{"abi":[{"inputs":[{"internalType":"uint256","name":"minimum","type":"uint256"},{"internalType":"address","name":"creator","type":"address"}],"stateMutability":"nonpayable","type":"constructor"},{"inputs":[{"internalType":"uint256","name":"index","type":"uint256"}],"name":"approveRequest","outputs":[],"stateMutability":"nonpayable","type":"function"},{"inputs":[{"internalType":"address","name":"","type":"address"}],"name":"approvers","outputs":[{"internalType":"bool","name":"","type":"bool"}],"stateMutability":"view","type":"function"},{"inputs":[],"name":"approversCount","outputs":[{"internalType":"uint256","name":"","type":"uint256"}],"stateMutability":"view","type":"function"},{"inputs":[],"name":"contribute","outputs":[],"stateMutability":"payable","type":"function"},{"inputs":[{"internalType":"string","name":"description","type":"string"},{"internalType":"uint256","name":"value","type":"uint256"},{"internalType":"address payable","name":"recipient","type":"address"}],"name":"createRequest","outputs":[],"stateMutability":"nonpayable","type":"function"},{"inputs":[{"internalType":"uint256","name":"index","type":"uint256"}],"name":"finalizeRequest","outputs":[],"stateMutability":"nonpayable","type":"function"},{"inputs":[{"internalType":"uint256","name":"index","type":"uint256"}],"name":"getRequest","outputs":[{"internalType":"string","name":"","type":"string"}],"stateMutability":"view","type":"function"},{"inputs":[],"name":"getRequestsCount","outputs":[{"internalType":"uint256","name":"","type":"uint256"}],"stateMutability":"view","type":"function"},{"inputs":[],"name":"getSummary","outputs":[{"internalType":"uint256","name":"","type":"uint256"},{"internalType":"uint256","name":"","type":"uint256"},{"internalType":"uint256","name":"","type":"uint256"},{"internalType":"uint256","name":"","type":"uint256"},{"internalType":"address","name":"","type":"address"}],"stateMutability":"view","type":"function"},{"inputs":[],"name":"manager","outputs":[{"internalType":"address","name":"","type":"address"}],"stateMutability":"view","type":"function"},{"inputs":[],"name":"minimumContribution","outputs":[{"internalType":"uint256","name":"","type":"uint256"}],"stateMutability":"view","type":"function"},{"inputs":[{"internalType":"uint256","name":"","type":"uint256"}],"name":"requests","outputs":[{"internalType":"string","name":"description","type":"string"},{"internalType":"uint256","name":"value","type":"uint256"},{"internalType":"address payable","name":"recipient","type":"address"},{"internalType":"bool","name":"complete","type":"bool"},{"internalType":"uint256","name":"approvalCount","type":"uint256"}],"stateMutability":"view","type":"function"}],"devdoc":{"kind":"dev","methods":{},"version":1},"evm":{"assembly":"    /* \"Campaign.sol\":516:3538  contract Campaign { // we define the type Campaign but we have not instatiated a variable... */\n  mstore(0x40, 0x80)\n    /* \"Campaign.sol\":1197:1356  constructor(uint minimum, address creator) {... */\n  callvalue\n  dup1\n  iszero\n  tag_1\n  jumpi\n  0x00\n  dup1\n  revert\ntag_1:\n  pop\n  mload(0x40)\n  sub(codesize, bytecodeSize)\n  dup1\n  bytecodeSize\n  dup4\n  codecopy\n  dup2\n  dup2\n  add\n  0x40\n  mstore\n  dup2\n  add\n  swap1\n  tag_2\n  swap2\n  swap1\n  tag_3\n  jump\t// in\ntag_2:\n    /* \"Campaign.sol\":1260:1267  creator */\n  dup1\n    /* \"Campaign.sol\":1250:1257  manager */\n  0x01\n  0x00\n    /* \"Campaign.sol\":1250:1267  manager = creator */\n  0x0100\n  exp\n  dup2\n  sload\n  dup2\n  0xffffffffffffffffffffffffffffffffffffffff\n  mul\n  not\n  and\n  swap1\n  dup4\n  0xffffffffffffffffffffffffffffffffffffffff\n  and\n  mul\n  or\n  swap1\n  sstore\n  pop\n    /* \"Campaign.sol\":1342:1349  minimum */\n  dup2\n    /* \"Campaign.sol\":1320:1339  minimumContribution */\n  0x02\n    /* \"Campaign.sol\":1320:1349  minimumContribution = minimum */\n  dup2\n  swap1\n  sstore\n  pop\n    /* \"Campaign.sol\":1197:1356  constructor(uint minimum, address creator) {... */\n  pop\n  pop\n    /* \"Campaign.sol\":516:3538  contract Campaign { // we define the type Campaign but we have not instatiated a variable... */\n  jump(tag_6)\n    /* \"#utility.yul\":88:205   */\ntag_8:\n    /* \"#utility.yul\":197:198   */\n  0x00\n    /* \"#utility.yul\":194:195   */\n  dup1\n    /* \"#utility.yul\":187:199   */\n  revert\n    /* \"#utility.yul\":334:411   */\ntag_10:\n    /* \"#utility.yul\":371:378   */\n  0x00\n    /* \"#utility.yul\":400:405   */\n  dup2\n    /* \"#utility.yul\":389:405   */\n  swap1\n  pop\n    /* \"#utility.yul\":334:411   */\n  swap2\n  swap1\n  pop\n  jump\t// out\n    /* \"#utility.yul\":417:539   */\ntag_11:\n    /* \"#utility.yul\":490:514   */\n  tag_23\n    /* \"#utility.yul\":508:513   */\n  dup2\n    /* \"#utility.yul\":490:514   */\n  tag_10\n  jump\t// in\ntag_23:\n    /* \"#utility.yul\":483:488   */\n  dup2\n    /* \"#utility.yul\":480:515   */\n  eq\n    /* \"#utility.yul\":470:533   */\n  tag_24\n  jumpi\n    /* \"#utility.yul\":529:530   */\n  0x00\n    /* \"#utility.yul\":526:527   */\n  dup1\n    /* \"#utility.yul\":519:531   */\n  revert\n    /* \"#utility.yul\":470:533   */\ntag_24:\n    /* \"#utility.yul\":417:539   */\n  pop\n  jump\t// out\n    /* \"#utility.yul\":545:688   */\ntag_12:\n    /* \"#utility.yul\":602:607   */\n  0x00\n    /* \"#utility.yul\":633:639   */\n  dup2\n    /* \"#utility.yul\":627:640   */\n  mload\n    /* \"#utility.yul\":618:640   */\n  swap1\n  pop\n    /* \"#utility.yul\":649:682   */\n  tag_26\n    /* \"#utility.yul\":676:681   */\n  dup2\n    /* \"#utility.yul\":649:682   */\n  tag_11\n  jump\t// in\ntag_26:\n    /* \"#utility.yul\":545:688   */\n  swap3\n  swap2\n  pop\n  pop\n  jump\t// out\n    /* \"#utility.yul\":694:820   */\ntag_13:\n    /* \"#utility.yul\":731:738   */\n  0x00\n    /* \"#utility.yul\":771:813   */\n  0xffffffffffffffffffffffffffffffffffffffff\n    /* \"#utility.yul\":764:769   */\n  dup3\n    /* \"#utility.yul\":760:814   */\n  and\n    /* \"#utility.yul\":749:814   */\n  swap1\n  pop\n    /* \"#utility.yul\":694:820   */\n  swap2\n  swap1\n  pop\n  jump\t// out\n    /* \"#utility.yul\":826:922   */\ntag_14:\n    /* \"#utility.yul\":863:870   */\n  0x00\n    /* \"#utility.yul\":892:916   */\n  tag_29\n    /* \"#utility.yul\":910:915   */\n  dup3\n    /* \"#utility.yul\":892:916   */\n  tag_13\n  jump\t// in\ntag_29:\n    /* \"#utility.yul\":881:916   */\n  swap1\n  pop\n    /* \"#utility.yul\":826:922   */\n  swap2\n  swap1\n  pop\n  jump\t// out\n    /* \"#utility.yul\":928:1050   */\ntag_15:\n    /* \"#utility.yul\":1001:1025   */\n  tag_31\n    /* \"#utility.yul\":1019:1024   */\n  dup2\n    /* \"#utility.yul\":1001:1025   */\n  tag_14\n  jump\t// in\ntag_31:\n    /* \"#utility.yul\":994:999   */\n  dup2\n    /* \"#utility.yul\":991:1026   */\n  eq\n    /* \"#utility.yul\":981:1044   */\n  tag_32\n  jumpi\n    /* \"#utility.yul\":1040:1041   */\n  0x00\n    /* \"#utility.yul\":1037:1038   */\n  dup1\n    /* \"#utility.yul\":1030:1042   */\n  revert\n    /* \"#utility.yul\":981:1044   */\ntag_32:\n    /* \"#utility.yul\":928:1050   */\n  pop\n  jump\t// out\n    /* \"#utility.yul\":1056:1199   */\ntag_16:\n    /* \"#utility.yul\":1113:1118   */\n  0x00\n    /* \"#utility.yul\":1144:1150   */\n  dup2\n    /* \"#utility.yul\":1138:1151   */\n  mload\n    /* \"#utility.yul\":1129:1151   */\n  swap1\n  pop\n    /* \"#utility.yul\":1160:1193   */\n  tag_34\n    /* \"#utility.yul\":1187:1192   */\n  dup2\n    /* \"#utility.yul\":1160:1193   */\n  tag_15\n  jump\t// in\ntag_34:\n    /* \"#utility.yul\":1056:1199   */\n  swap3\n  swap2\n  pop\n  pop\n  jump\t// out\n    /* \"#utility.yul\":1205:1712   */\ntag_3:\n    /* \"#utility.yul\":1284:1290   */\n  0x00\n    /* \"#utility.yul\":1292:1298   */\n  dup1\n    /* \"#utility.yul\":1341:1343   */\n  0x40\n    /* \"#utility.yul\":1329:1338   */\n  dup4\n    /* \"#utility.yul\":1320:1327   */\n  dup6\n    /* \"#utility.yul\":1316:1339   */\n  sub\n    /* \"#utility.yul\":1312:1344   */\n  slt\n    /* \"#utility.yul\":1309:1428   */\n  iszero\n  tag_36\n  jumpi\n    /* \"#utility.yul\":1347:1426   */\n  tag_37\n  tag_8\n  jump\t// in\ntag_37:\n    /* \"#utility.yul\":1309:1428   */\ntag_36:\n    /* \"#utility.yul\":1467:1468   */\n  0x00\n    /* \"#utility.yul\":1492:1556   */\n  tag_38\n    /* \"#utility.yul\":1548:1555   */\n  dup6\n    /* \"#utility.yul\":1539:1545   */\n  dup3\n    /* \"#utility.yul\":1528:1537   */\n  dup7\n    /* \"#utility.yul\":1524:1546   */\n  add\n    /* \"#utility.yul\":1492:1556   */\n  tag_12\n  jump\t// in\ntag_38:\n    /* \"#utility.yul\":1482:1556   */\n  swap3\n  pop\n    /* \"#utility.yul\":1438:1566   */\n  pop\n    /* \"#utility.yul\":1605:1607   */\n  0x20\n    /* \"#utility.yul\":1631:1695   */\n  tag_39\n    /* \"#utility.yul\":1687:1694   */\n  dup6\n    /* \"#utility.yul\":1678:1684   */\n  dup3\n    /* \"#utility.yul\":1667:1676   */\n  dup7\n    /* \"#utility.yul\":1663:1685   */\n  add\n    /* \"#utility.yul\":1631:1695   */\n  tag_16\n  jump\t// in\ntag_39:\n    /* \"#utility.yul\":1621:1695   */\n  swap2\n  pop\n    /* \"#utility.yul\":1576:1705   */\n  pop\n    /* \"#utility.yul\":1205:1712   */\n  swap3\n  pop\n  swap3\n  swap1\n  pop\n  jump\t// out\n    /* \"Campaign.sol\":516:3538  contract Campaign { // we define the type Campaign but we have not instatiated a variable... */\ntag_6:\n  dataSize(sub_0)\n  dup1\n  dataOffset(sub_0)\n  0x00\n  codecopy\n  0x00\n  return\nstop\n\nsub_0: assembly {\n        /* \"Campaign.sol\":516:3538  contract Campaign { // we define the type Campaign but we have not instatiated a variable... */\n      mstore(0x40, 0x80)\n      jumpi(tag_1, lt(calldatasize, 0x04))\n      shr(0xe0, calldataload(0x00))\n      dup1\n      0x82fde093\n      gt\n      tag_14\n      jumpi\n      dup1\n      0x82fde093\n      eq\n      tag_8\n      jumpi\n      dup1\n      0x8a9cfd55\n      eq\n      tag_9\n      jumpi\n      dup1\n      0x937e09b1\n      eq\n      tag_10\n      jumpi\n      dup1\n      0xc58343ef\n      eq\n      tag_11\n      jumpi\n      dup1\n      0xd7bb99ba\n      eq\n      tag_12\n      jumpi\n      dup1\n      0xd7d1bbdb\n      eq\n      tag_13\n      jumpi\n      jump(tag_1)\n    tag_14:\n      dup1\n      0x03441006\n      eq\n      tag_2\n      jumpi\n      dup1\n      0x0a144391\n      eq\n      tag_3\n      jumpi\n      dup1\n      0x3410452a\n      eq\n      tag_4\n      jumpi\n      dup1\n      0x4051ddac\n      eq\n      tag_5\n      jumpi\n      dup1\n      0x481c6a75\n      eq\n      tag_6\n      jumpi\n      dup1\n      0x81d12c58\n      eq\n      tag_7\n      jumpi\n    tag_1:\n      0x00\n      dup1\n      revert\n        /* \"Campaign.sol\":2535:2978  function finalizeRequest(uint index) public restricted { // the index of the Request[]... */\n    tag_2:\n      callvalue\n      dup1\n      iszero\n      tag_15\n      jumpi\n      0x00\n      dup1\n      revert\n    tag_15:\n      pop\n      tag_16\n      0x04\n      dup1\n      calldatasize\n      sub\n      dup2\n      add\n      swap1\n      tag_17\n      swap2\n      swap1\n      tag_18\n      jump\t// in\n    tag_17:\n      tag_19\n      jump\t// in\n    tag_16:\n      stop\n        /* \"Campaign.sol\":912:953  mapping(address => bool) public approvers */\n    tag_3:\n      callvalue\n      dup1\n      iszero\n      tag_20\n      jumpi\n      0x00\n      dup1\n      revert\n    tag_20:\n      pop\n      tag_21\n      0x04\n      dup1\n      calldatasize\n      sub\n      dup2\n      add\n      swap1\n      tag_22\n      swap2\n      swap1\n      tag_23\n      jump\t// in\n    tag_22:\n      tag_24\n      jump\t// in\n    tag_21:\n      mload(0x40)\n      tag_25\n      swap2\n      swap1\n      tag_26\n      jump\t// in\n    tag_25:\n      mload(0x40)\n      dup1\n      swap2\n      sub\n      swap1\n      return\n        /* \"Campaign.sol\":3442:3536  function getRequestsCount() public view returns (uint) {... */\n    tag_4:\n      callvalue\n      dup1\n      iszero\n      tag_27\n      jumpi\n      0x00\n      dup1\n      revert\n    tag_27:\n      pop\n      tag_28\n      tag_29\n      jump\t// in\n    tag_28:\n      mload(0x40)\n      tag_30\n      swap2\n      swap1\n      tag_31\n      jump\t// in\n    tag_30:\n      mload(0x40)\n      dup1\n      swap2\n      sub\n      swap1\n      return\n        /* \"Campaign.sol\":3180:3436  function getSummary() public view returns (uint, uint, uint, uint, address) {... */\n    tag_5:\n      callvalue\n      dup1\n      iszero\n      tag_32\n      jumpi\n      0x00\n      dup1\n      revert\n    tag_32:\n      pop\n      tag_33\n      tag_34\n      jump\t// in\n    tag_33:\n      mload(0x40)\n      tag_35\n      swap6\n      swap5\n      swap4\n      swap3\n      swap2\n      swap1\n      tag_36\n      jump\t// in\n    tag_35:\n      mload(0x40)\n      dup1\n      swap2\n      sub\n      swap1\n      return\n        /* \"Campaign.sol\":847:869  address public manager */\n    tag_6:\n      callvalue\n      dup1\n      iszero\n      tag_37\n      jumpi\n      0x00\n      dup1\n      revert\n    tag_37:\n      pop\n      tag_38\n      tag_39\n      jump\t// in\n    tag_38:\n      mload(0x40)\n      tag_40\n      swap2\n      swap1\n      tag_41\n      jump\t// in\n    tag_40:\n      mload(0x40)\n      dup1\n      swap2\n      sub\n      swap1\n      return\n        /* \"Campaign.sol\":816:841  Request[] public requests */\n    tag_7:\n      callvalue\n      dup1\n      iszero\n      tag_42\n      jumpi\n      0x00\n      dup1\n      revert\n    tag_42:\n      pop\n      tag_43\n      0x04\n      dup1\n      calldatasize\n      sub\n      dup2\n      add\n      swap1\n      tag_44\n      swap2\n      swap1\n      tag_18\n      jump\t// in\n    tag_44:\n      tag_45\n      jump\t// in\n    tag_43:\n      mload(0x40)\n      tag_46\n      swap6\n      swap5\n      swap4\n      swap3\n      swap2\n      swap1\n      tag_47\n      jump\t// in\n    tag_46:\n      mload(0x40)\n      dup1\n      swap2\n      sub\n      swap1\n      return\n        /* \"Campaign.sol\":959:985  uint public approversCount */\n    tag_8:\n      callvalue\n      dup1\n      iszero\n      tag_48\n      jumpi\n      0x00\n      dup1\n      revert\n    tag_48:\n      pop\n      tag_49\n      tag_50\n      jump\t// in\n    tag_49:\n      mload(0x40)\n      tag_51\n      swap2\n      swap1\n      tag_31\n      jump\t// in\n    tag_51:\n      mload(0x40)\n      dup1\n      swap2\n      sub\n      swap1\n      return\n        /* \"Campaign.sol\":1692:2078  function createRequest(string memory description, uint value, address payable recipient) public  restricted {... */\n    tag_9:\n      callvalue\n      dup1\n      iszero\n      tag_52\n      jumpi\n      0x00\n      dup1\n      revert\n    tag_52:\n      pop\n      tag_53\n      0x04\n      dup1\n      calldatasize\n      sub\n      dup2\n      add\n      swap1\n      tag_54\n      swap2\n      swap1\n      tag_55\n      jump\t// in\n    tag_54:\n      tag_56\n      jump\t// in\n    tag_53:\n      stop\n        /* \"Campaign.sol\":875:906  uint public minimumContribution */\n    tag_10:\n      callvalue\n      dup1\n      iszero\n      tag_57\n      jumpi\n      0x00\n      dup1\n      revert\n    tag_57:\n      pop\n      tag_58\n      tag_59\n      jump\t// in\n    tag_58:\n      mload(0x40)\n      tag_60\n      swap2\n      swap1\n      tag_31\n      jump\t// in\n    tag_60:\n      mload(0x40)\n      dup1\n      swap2\n      sub\n      swap1\n      return\n        /* \"Campaign.sol\":2984:3174  function getRequest(uint index) public view returns (string memory) {... */\n    tag_11:\n      callvalue\n      dup1\n      iszero\n      tag_61\n      jumpi\n      0x00\n      dup1\n      revert\n    tag_61:\n      pop\n      tag_62\n      0x04\n      dup1\n      calldatasize\n      sub\n      dup2\n      add\n      swap1\n      tag_63\n      swap2\n      swap1\n      tag_18\n      jump\t// in\n    tag_63:\n      tag_64\n      jump\t// in\n    tag_62:\n      mload(0x40)\n      tag_65\n      swap2\n      swap1\n      tag_66\n      jump\t// in\n    tag_65:\n      mload(0x40)\n      dup1\n      swap2\n      sub\n      swap1\n      return\n        /* \"Campaign.sol\":1362:1686  function contribute() public payable {... */\n    tag_12:\n      tag_67\n      tag_68\n      jump\t// in\n    tag_67:\n      stop\n        /* \"Campaign.sol\":2084:2529  function approveRequest(uint index) public { // index of the Request[]... */\n    tag_13:\n      callvalue\n      dup1\n      iszero\n      tag_69\n      jumpi\n      0x00\n      dup1\n      revert\n    tag_69:\n      pop\n      tag_70\n      0x04\n      dup1\n      calldatasize\n      sub\n      dup2\n      add\n      swap1\n      tag_71\n      swap2\n      swap1\n      tag_18\n      jump\t// in\n    tag_71:\n      tag_72\n      jump\t// in\n    tag_70:\n      stop\n        /* \"Campaign.sol\":2535:2978  function finalizeRequest(uint index) public restricted { // the index of the Request[]... */\n    tag_19:\n        /* \"Campaign.sol\":1079:1086  manager */\n      0x01\n      0x00\n      swap1\n      sload\n      swap1\n      0x0100\n      exp\n      swap1\n      div\n      0xffffffffffffffffffffffffffffffffffffffff\n      and\n        /* \"Campaign.sol\":1065:1086  msg.sender == manager */\n      0xffffffffffffffffffffffffffffffffffffffff\n      and\n        /* \"Campaign.sol\":1065:1075  msg.sender */\n      caller\n        /* \"Campaign.sol\":1065:1086  msg.sender == manager */\n      0xffffffffffffffffffffffffffffffffffffffff\n      and\n      eq\n        /* \"Campaign.sol\":1057:1087  require(msg.sender == manager) */\n      tag_74\n      jumpi\n      0x00\n      dup1\n      revert\n    tag_74:\n        /* \"Campaign.sol\":2630:2653  Request storage request */\n      0x00\n        /* \"Campaign.sol\":2656:2664  requests */\n      dup1\n        /* \"Campaign.sol\":2665:2670  index */\n      dup3\n        /* \"Campaign.sol\":2656:2671  requests[index] */\n      dup2\n      sload\n      dup2\n      lt\n      tag_76\n      jumpi\n      tag_77\n      tag_78\n      jump\t// in\n    tag_77:\n    tag_76:\n      swap1\n      0x00\n      mstore\n      keccak256(0x00, 0x20)\n      swap1\n      0x05\n      mul\n      add\n        /* \"Campaign.sol\":2630:2671  Request storage request = requests[index] */\n      swap1\n      pop\n        /* \"Campaign.sol\":2731:2732  2 */\n      0x02\n        /* \"Campaign.sol\":2714:2728  approversCount */\n      sload(0x04)\n        /* \"Campaign.sol\":2714:2732  approversCount / 2 */\n      tag_80\n      swap2\n      swap1\n      tag_81\n      jump\t// in\n    tag_80:\n        /* \"Campaign.sol\":2689:2696  request */\n      dup2\n        /* \"Campaign.sol\":2689:2710  request.approvalCount */\n      0x03\n      add\n      sload\n        /* \"Campaign.sol\":2689:2733  request.approvalCount > (approversCount / 2) */\n      gt\n        /* \"Campaign.sol\":2681:2734  require(request.approvalCount > (approversCount / 2)) */\n      tag_82\n      jumpi\n      0x00\n      dup1\n      revert\n    tag_82:\n        /* \"Campaign.sol\":2834:2841  request */\n      dup1\n        /* \"Campaign.sol\":2834:2850  request.complete */\n      0x02\n      add\n      0x14\n      swap1\n      sload\n      swap1\n      0x0100\n      exp\n      swap1\n      div\n      0xff\n      and\n        /* \"Campaign.sol\":2833:2850  !request.complete */\n      iszero\n        /* \"Campaign.sol\":2825:2851  require(!request.complete) */\n      tag_83\n      jumpi\n      0x00\n      dup1\n      revert\n    tag_83:\n        /* \"Campaign.sol\":2861:2868  request */\n      dup1\n        /* \"Campaign.sol\":2861:2878  request.recipient */\n      0x02\n      add\n      0x00\n      swap1\n      sload\n      swap1\n      0x0100\n      exp\n      swap1\n      div\n      0xffffffffffffffffffffffffffffffffffffffff\n      and\n        /* \"Campaign.sol\":2861:2887  request.recipient.transfer */\n      0xffffffffffffffffffffffffffffffffffffffff\n      and\n        /* \"Campaign.sol\":2861:2902  request.recipient.transfer(request.value) */\n      0x08fc\n        /* \"Campaign.sol\":2888:2895  request */\n      dup3\n        /* \"Campaign.sol\":2888:2901  request.value */\n      0x01\n      add\n      sload\n        /* \"Campaign.sol\":2861:2902  request.recipient.transfer(request.value) */\n      swap1\n      dup2\n      iszero\n      mul\n      swap1\n      mload(0x40)\n      0x00\n      mload(0x40)\n      dup1\n      dup4\n      sub\n      dup2\n      dup6\n      dup9\n      dup9\n      call\n      swap4\n      pop\n      pop\n      pop\n      pop\n      iszero\n      dup1\n      iszero\n      tag_85\n      jumpi\n      returndatasize\n      0x00\n      dup1\n      returndatacopy\n      revert(0x00, returndatasize)\n    tag_85:\n      pop\n        /* \"Campaign.sol\":2967:2971  true */\n      0x01\n        /* \"Campaign.sol\":2948:2955  request */\n      dup2\n        /* \"Campaign.sol\":2948:2964  request.complete */\n      0x02\n      add\n      0x14\n        /* \"Campaign.sol\":2948:2971  request.complete = true */\n      0x0100\n      exp\n      dup2\n      sload\n      dup2\n      0xff\n      mul\n      not\n      and\n      swap1\n      dup4\n      iszero\n      iszero\n      mul\n      or\n      swap1\n      sstore\n      pop\n        /* \"Campaign.sol\":2590:2978  { // the index of the Request[]... */\n      pop\n        /* \"Campaign.sol\":2535:2978  function finalizeRequest(uint index) public restricted { // the index of the Request[]... */\n      pop\n      jump\t// out\n        /* \"Campaign.sol\":912:953  mapping(address => bool) public approvers */\n    tag_24:\n      mstore(0x20, 0x03)\n      dup1\n      0x00\n      mstore\n      keccak256(0x00, 0x40)\n      0x00\n      swap2\n      pop\n      sload\n      swap1\n      0x0100\n      exp\n      swap1\n      div\n      0xff\n      and\n      dup2\n      jump\t// out\n        /* \"Campaign.sol\":3442:3536  function getRequestsCount() public view returns (uint) {... */\n    tag_29:\n        /* \"Campaign.sol\":3491:3495  uint */\n      0x00\n        /* \"Campaign.sol\":3514:3522  requests */\n      dup1\n        /* \"Campaign.sol\":3514:3529  requests.length */\n      dup1\n      sload\n      swap1\n      pop\n        /* \"Campaign.sol\":3507:3529  return requests.length */\n      swap1\n      pop\n        /* \"Campaign.sol\":3442:3536  function getRequestsCount() public view returns (uint) {... */\n      swap1\n      jump\t// out\n        /* \"Campaign.sol\":3180:3436  function getSummary() public view returns (uint, uint, uint, uint, address) {... */\n    tag_34:\n        /* \"Campaign.sol\":3223:3227  uint */\n      0x00\n        /* \"Campaign.sol\":3229:3233  uint */\n      dup1\n        /* \"Campaign.sol\":3235:3239  uint */\n      0x00\n        /* \"Campaign.sol\":3241:3245  uint */\n      dup1\n        /* \"Campaign.sol\":3247:3254  address */\n      0x00\n        /* \"Campaign.sol\":3287:3306  minimumContribution */\n      sload(0x02)\n        /* \"Campaign.sol\":3320:3341  address(this).balance */\n      selfbalance\n        /* \"Campaign.sol\":3355:3363  requests */\n      0x00\n        /* \"Campaign.sol\":3355:3370  requests.length */\n      dup1\n      sload\n      swap1\n      pop\n        /* \"Campaign.sol\":3384:3398  approversCount */\n      sload(0x04)\n        /* \"Campaign.sol\":3412:3419  manager */\n      0x01\n      0x00\n      swap1\n      sload\n      swap1\n      0x0100\n      exp\n      swap1\n      div\n      0xffffffffffffffffffffffffffffffffffffffff\n      and\n        /* \"Campaign.sol\":3266:3429  return (... */\n      swap5\n      pop\n      swap5\n      pop\n      swap5\n      pop\n      swap5\n      pop\n      swap5\n      pop\n        /* \"Campaign.sol\":3180:3436  function getSummary() public view returns (uint, uint, uint, uint, address) {... */\n      swap1\n      swap2\n      swap3\n      swap4\n      swap5\n      jump\t// out\n        /* \"Campaign.sol\":847:869  address public manager */\n    tag_39:\n      0x01\n      0x00\n      swap1\n      sload\n      swap1\n      0x0100\n      exp\n      swap1\n      div\n      0xffffffffffffffffffffffffffffffffffffffff\n      and\n      dup2\n      jump\t// out\n        /* \"Campaign.sol\":816:841  Request[] public requests */\n    tag_45:\n      0x00\n      dup2\n      dup2\n      sload\n      dup2\n      lt\n      tag_88\n      jumpi\n      0x00\n      dup1\n      revert\n    tag_88:\n      swap1\n      0x00\n      mstore\n      keccak256(0x00, 0x20)\n      swap1\n      0x05\n      mul\n      add\n      0x00\n      swap2\n      pop\n      swap1\n      pop\n      dup1\n      0x00\n      add\n      dup1\n      sload\n      tag_90\n      swap1\n      tag_91\n      jump\t// in\n    tag_90:\n      dup1\n      0x1f\n      add\n      0x20\n      dup1\n      swap2\n      div\n      mul\n      0x20\n      add\n      mload(0x40)\n      swap1\n      dup2\n      add\n      0x40\n      mstore\n      dup1\n      swap3\n      swap2\n      swap1\n      dup2\n      dup2\n      mstore\n      0x20\n      add\n      dup3\n      dup1\n      sload\n      tag_92\n      swap1\n      tag_91\n      jump\t// in\n    tag_92:\n      dup1\n      iszero\n      tag_93\n      jumpi\n      dup1\n      0x1f\n      lt\n      tag_94\n      jumpi\n      0x0100\n      dup1\n      dup4\n      sload\n      div\n      mul\n      dup4\n      mstore\n      swap2\n      0x20\n      add\n      swap2\n      jump(tag_93)\n    tag_94:\n      dup3\n      add\n      swap2\n      swap1\n      0x00\n      mstore\n      keccak256(0x00, 0x20)\n      swap1\n    tag_95:\n      dup2\n      sload\n      dup2\n      mstore\n      swap1\n      0x01\n      add\n      swap1\n      0x20\n      add\n      dup1\n      dup4\n      gt\n      tag_95\n      jumpi\n      dup3\n      swap1\n      sub\n      0x1f\n      and\n      dup3\n      add\n      swap2\n    tag_93:\n      pop\n      pop\n      pop\n      pop\n      pop\n      swap1\n      dup1\n      0x01\n      add\n      sload\n      swap1\n      dup1\n      0x02\n      add\n      0x00\n      swap1\n      sload\n      swap1\n      0x0100\n      exp\n      swap1\n      div\n      0xffffffffffffffffffffffffffffffffffffffff\n      and\n      swap1\n      dup1\n      0x02\n      add\n      0x14\n      swap1\n      sload\n      swap1\n      0x0100\n      exp\n      swap1\n      div\n      0xff\n      and\n      swap1\n      dup1\n      0x03\n      add\n      sload\n      swap1\n      pop\n      dup6\n      jump\t// out\n        /* \"Campaign.sol\":959:985  uint public approversCount */\n    tag_50:\n      sload(0x04)\n      dup2\n      jump\t// out\n        /* \"Campaign.sol\":1692:2078  function createRequest(string memory description, uint value, address payable recipient) public  restricted {... */\n    tag_56:\n        /* \"Campaign.sol\":1079:1086  manager */\n      0x01\n      0x00\n      swap1\n      sload\n      swap1\n      0x0100\n      exp\n      swap1\n      div\n      0xffffffffffffffffffffffffffffffffffffffff\n      and\n        /* \"Campaign.sol\":1065:1086  msg.sender == manager */\n      0xffffffffffffffffffffffffffffffffffffffff\n      and\n        /* \"Campaign.sol\":1065:1075  msg.sender */\n      caller\n        /* \"Campaign.sol\":1065:1086  msg.sender == manager */\n      0xffffffffffffffffffffffffffffffffffffffff\n      and\n      eq\n        /* \"Campaign.sol\":1057:1087  require(msg.sender == manager) */\n      tag_97\n      jumpi\n      0x00\n      dup1\n      revert\n    tag_97:\n        /* \"Campaign.sol\":1810:1818  requests */\n      0x00\n        /* \"Campaign.sol\":1810:1825  requests.push() */\n      0x01\n      dup2\n      0x01\n      dup2\n      sload\n      add\n      dup1\n      dup3\n      sstore\n      dup1\n      swap2\n      pop\n      pop\n      sub\n      swap1\n      0x00\n      mstore\n      keccak256(0x00, 0x20)\n      swap1\n      pop\n      pop\n        /* \"Campaign.sol\":1835:1858  Request storage request */\n      0x00\n        /* \"Campaign.sol\":1861:1869  requests */\n      dup1\n        /* \"Campaign.sol\":1887:1888  1 */\n      0x01\n        /* \"Campaign.sol\":1870:1878  requests */\n      0x00\n        /* \"Campaign.sol\":1870:1885  requests.length */\n      dup1\n      sload\n      swap1\n      pop\n        /* \"Campaign.sol\":1870:1888  requests.length -1 */\n      tag_100\n      swap2\n      swap1\n      tag_101\n      jump\t// in\n    tag_100:\n        /* \"Campaign.sol\":1861:1889  requests[requests.length -1] */\n      dup2\n      sload\n      dup2\n      lt\n      tag_102\n      jumpi\n      tag_103\n      tag_78\n      jump\t// in\n    tag_103:\n    tag_102:\n      swap1\n      0x00\n      mstore\n      keccak256(0x00, 0x20)\n      swap1\n      0x05\n      mul\n      add\n        /* \"Campaign.sol\":1835:1889  Request storage request = requests[requests.length -1] */\n      swap1\n      pop\n        /* \"Campaign.sol\":1921:1932  description */\n      dup4\n        /* \"Campaign.sol\":1899:1906  request */\n      dup2\n        /* \"Campaign.sol\":1899:1918  request.description */\n      0x00\n      add\n        /* \"Campaign.sol\":1899:1932  request.description = description */\n      swap1\n      dup2\n      tag_105\n      swap2\n      swap1\n      tag_106\n      jump\t// in\n    tag_105:\n      pop\n        /* \"Campaign.sol\":1958:1963  value */\n      dup3\n        /* \"Campaign.sol\":1942:1949  request */\n      dup2\n        /* \"Campaign.sol\":1942:1955  request.value */\n      0x01\n      add\n        /* \"Campaign.sol\":1942:1963  request.value = value */\n      dup2\n      swap1\n      sstore\n      pop\n        /* \"Campaign.sol\":1993:2002  recipient */\n      dup2\n        /* \"Campaign.sol\":1973:1980  request */\n      dup2\n        /* \"Campaign.sol\":1973:1990  request.recipient */\n      0x02\n      add\n      0x00\n        /* \"Campaign.sol\":1973:2002  request.recipient = recipient */\n      0x0100\n      exp\n      dup2\n      sload\n      dup2\n      0xffffffffffffffffffffffffffffffffffffffff\n      mul\n      not\n      and\n      swap1\n      dup4\n      0xffffffffffffffffffffffffffffffffffffffff\n      and\n      mul\n      or\n      swap1\n      sstore\n      pop\n        /* \"Campaign.sol\":2031:2036  false */\n      0x00\n        /* \"Campaign.sol\":2012:2019  request */\n      dup2\n        /* \"Campaign.sol\":2012:2028  request.complete */\n      0x02\n      add\n      0x14\n        /* \"Campaign.sol\":2012:2036  request.complete = false */\n      0x0100\n      exp\n      dup2\n      sload\n      dup2\n      0xff\n      mul\n      not\n      and\n      swap1\n      dup4\n      iszero\n      iszero\n      mul\n      or\n      swap1\n      sstore\n      pop\n        /* \"Campaign.sol\":2070:2071  0 */\n      0x00\n        /* \"Campaign.sol\":2046:2053  request */\n      dup2\n        /* \"Campaign.sol\":2046:2067  request.approvalCount */\n      0x03\n      add\n        /* \"Campaign.sol\":2046:2071  request.approvalCount = 0 */\n      dup2\n      swap1\n      sstore\n      pop\n        /* \"Campaign.sol\":1800:2078  {... */\n      pop\n        /* \"Campaign.sol\":1692:2078  function createRequest(string memory description, uint value, address payable recipient) public  restricted {... */\n      pop\n      pop\n      pop\n      jump\t// out\n        /* \"Campaign.sol\":875:906  uint public minimumContribution */\n    tag_59:\n      sload(0x02)\n      dup2\n      jump\t// out\n        /* \"Campaign.sol\":2984:3174  function getRequest(uint index) public view returns (string memory) {... */\n    tag_64:\n        /* \"Campaign.sol\":3037:3050  string memory */\n      0x60\n        /* \"Campaign.sol\":3062:3085  Request storage request */\n      0x00\n        /* \"Campaign.sol\":3088:3096  requests */\n      dup1\n        /* \"Campaign.sol\":3097:3102  index */\n      dup4\n        /* \"Campaign.sol\":3088:3103  requests[index] */\n      dup2\n      sload\n      dup2\n      lt\n      tag_108\n      jumpi\n      tag_109\n      tag_78\n      jump\t// in\n    tag_109:\n    tag_108:\n      swap1\n      0x00\n      mstore\n      keccak256(0x00, 0x20)\n      swap1\n      0x05\n      mul\n      add\n        /* \"Campaign.sol\":3062:3103  Request storage request = requests[index] */\n      swap1\n      pop\n        /* \"Campaign.sol\":3134:3141  request */\n      dup1\n        /* \"Campaign.sol\":3134:3153  request.description */\n      0x00\n      add\n        /* \"Campaign.sol\":3113:3167  return (... */\n      dup1\n      sload\n      tag_111\n      swap1\n      tag_91\n      jump\t// in\n    tag_111:\n      dup1\n      0x1f\n      add\n      0x20\n      dup1\n      swap2\n      div\n      mul\n      0x20\n      add\n      mload(0x40)\n      swap1\n      dup2\n      add\n      0x40\n      mstore\n      dup1\n      swap3\n      swap2\n      swap1\n      dup2\n      dup2\n      mstore\n      0x20\n      add\n      dup3\n      dup1\n      sload\n      tag_112\n      swap1\n      tag_91\n      jump\t// in\n    tag_112:\n      dup1\n      iszero\n      tag_113\n      jumpi\n      dup1\n      0x1f\n      lt\n      tag_114\n      jumpi\n      0x0100\n      dup1\n      dup4\n      sload\n      div\n      mul\n      dup4\n      mstore\n      swap2\n      0x20\n      add\n      swap2\n      jump(tag_113)\n    tag_114:\n      dup3\n      add\n      swap2\n      swap1\n      0x00\n      mstore\n      keccak256(0x00, 0x20)\n      swap1\n    tag_115:\n      dup2\n      sload\n      dup2\n      mstore\n      swap1\n      0x01\n      add\n      swap1\n      0x20\n      add\n      dup1\n      dup4\n      gt\n      tag_115\n      jumpi\n      dup3\n      swap1\n      sub\n      0x1f\n      and\n      dup3\n      add\n      swap2\n    tag_113:\n      pop\n      pop\n      pop\n      pop\n      pop\n      swap2\n      pop\n      pop\n        /* \"Campaign.sol\":2984:3174  function getRequest(uint index) public view returns (string memory) {... */\n      swap2\n      swap1\n      pop\n      jump\t// out\n        /* \"Campaign.sol\":1362:1686  function contribute() public payable {... */\n    tag_68:\n        /* \"Campaign.sol\":1429:1448  minimumContribution */\n      sload(0x02)\n        /* \"Campaign.sol\":1417:1426  msg.value */\n      callvalue\n        /* \"Campaign.sol\":1417:1448  msg.value > minimumContribution */\n      gt\n        /* \"Campaign.sol\":1409:1449  require(msg.value > minimumContribution) */\n      tag_117\n      jumpi\n      0x00\n      dup1\n      revert\n    tag_117:\n        /* \"Campaign.sol\":1592:1596  true */\n      0x01\n        /* \"Campaign.sol\":1568:1577  approvers */\n      0x03\n        /* \"Campaign.sol\":1568:1589  approvers[msg.sender] */\n      0x00\n        /* \"Campaign.sol\":1578:1588  msg.sender */\n      caller\n        /* \"Campaign.sol\":1568:1589  approvers[msg.sender] */\n      0xffffffffffffffffffffffffffffffffffffffff\n      and\n      0xffffffffffffffffffffffffffffffffffffffff\n      and\n      dup2\n      mstore\n      0x20\n      add\n      swap1\n      dup2\n      mstore\n      0x20\n      add\n      0x00\n      keccak256\n      0x00\n        /* \"Campaign.sol\":1568:1596  approvers[msg.sender] = true */\n      0x0100\n      exp\n      dup2\n      sload\n      dup2\n      0xff\n      mul\n      not\n      and\n      swap1\n      dup4\n      iszero\n      iszero\n      mul\n      or\n      swap1\n      sstore\n      pop\n        /* \"Campaign.sol\":1663:1677  approversCount */\n      0x04\n      0x00\n        /* \"Campaign.sol\":1663:1679  approversCount++ */\n      dup2\n      sload\n      dup1\n      swap3\n      swap2\n      swap1\n      tag_118\n      swap1\n      tag_119\n      jump\t// in\n    tag_118:\n      swap2\n      swap1\n      pop\n      sstore\n      pop\n        /* \"Campaign.sol\":1362:1686  function contribute() public payable {... */\n      jump\t// out\n        /* \"Campaign.sol\":2084:2529  function approveRequest(uint index) public { // index of the Request[]... */\n    tag_72:\n        /* \"Campaign.sol\":2171:2180  approvers */\n      0x03\n        /* \"Campaign.sol\":2171:2192  approvers[msg.sender] */\n      0x00\n        /* \"Campaign.sol\":2181:2191  msg.sender */\n      caller\n        /* \"Campaign.sol\":2171:2192  approvers[msg.sender] */\n      0xffffffffffffffffffffffffffffffffffffffff\n      and\n      0xffffffffffffffffffffffffffffffffffffffff\n      and\n      dup2\n      mstore\n      0x20\n      add\n      swap1\n      dup2\n      mstore\n      0x20\n      add\n      0x00\n      keccak256\n      0x00\n      swap1\n      sload\n      swap1\n      0x0100\n      exp\n      swap1\n      div\n      0xff\n      and\n        /* \"Campaign.sol\":2163:2193  require(approvers[msg.sender]) */\n      tag_121\n      jumpi\n      0x00\n      dup1\n      revert\n    tag_121:\n        /* \"Campaign.sol\":2241:2264  Request storage request */\n      0x00\n        /* \"Campaign.sol\":2267:2275  requests */\n      dup1\n        /* \"Campaign.sol\":2276:2281  index */\n      dup3\n        /* \"Campaign.sol\":2267:2282  requests[index] */\n      dup2\n      sload\n      dup2\n      lt\n      tag_122\n      jumpi\n      tag_123\n      tag_78\n      jump\t// in\n    tag_123:\n    tag_122:\n      swap1\n      0x00\n      mstore\n      keccak256(0x00, 0x20)\n      swap1\n      0x05\n      mul\n      add\n        /* \"Campaign.sol\":2241:2282  Request storage request = requests[index] */\n      swap1\n      pop\n        /* \"Campaign.sol\":2361:2368  request */\n      dup1\n        /* \"Campaign.sol\":2361:2378  request.approvals */\n      0x04\n      add\n        /* \"Campaign.sol\":2361:2390  request.approvals[msg.sender] */\n      0x00\n        /* \"Campaign.sol\":2379:2389  msg.sender */\n      caller\n        /* \"Campaign.sol\":2361:2390  request.approvals[msg.sender] */\n      0xffffffffffffffffffffffffffffffffffffffff\n      and\n      0xffffffffffffffffffffffffffffffffffffffff\n      and\n      dup2\n      mstore\n      0x20\n      add\n      swap1\n      dup2\n      mstore\n      0x20\n      add\n      0x00\n      keccak256\n      0x00\n      swap1\n      sload\n      swap1\n      0x0100\n      exp\n      swap1\n      div\n      0xff\n      and\n        /* \"Campaign.sol\":2360:2390  !request.approvals[msg.sender] */\n      iszero\n        /* \"Campaign.sol\":2352:2391  require(!request.approvals[msg.sender]) */\n      tag_125\n      jumpi\n      0x00\n      dup1\n      revert\n    tag_125:\n        /* \"Campaign.sol\":2485:2489  true */\n      0x01\n        /* \"Campaign.sol\":2453:2460  request */\n      dup2\n        /* \"Campaign.sol\":2453:2470  request.approvals */\n      0x04\n      add\n        /* \"Campaign.sol\":2453:2482  request.approvals[msg.sender] */\n      0x00\n        /* \"Campaign.sol\":2471:2481  msg.sender */\n      caller\n        /* \"Campaign.sol\":2453:2482  request.approvals[msg.sender] */\n      0xffffffffffffffffffffffffffffffffffffffff\n      and\n      0xffffffffffffffffffffffffffffffffffffffff\n      and\n      dup2\n      mstore\n      0x20\n      add\n      swap1\n      dup2\n      mstore\n      0x20\n      add\n      0x00\n      keccak256\n      0x00\n        /* \"Campaign.sol\":2453:2489  request.approvals[msg.sender] = true */\n      0x0100\n      exp\n      dup2\n      sload\n      dup2\n      0xff\n      mul\n      not\n      and\n      swap1\n      dup4\n      iszero\n      iszero\n      mul\n      or\n      swap1\n      sstore\n      pop\n        /* \"Campaign.sol\":2499:2506  request */\n      dup1\n        /* \"Campaign.sol\":2499:2520  request.approvalCount */\n      0x03\n      add\n      0x00\n        /* \"Campaign.sol\":2499:2522  request.approvalCount++ */\n      dup2\n      sload\n      dup1\n      swap3\n      swap2\n      swap1\n      tag_126\n      swap1\n      tag_119\n      jump\t// in\n    tag_126:\n      swap2\n      swap1\n      pop\n      sstore\n      pop\n        /* \"Campaign.sol\":2127:2529  { // index of the Request[]... */\n      pop\n        /* \"Campaign.sol\":2084:2529  function approveRequest(uint index) public { // index of the Request[]... */\n      pop\n      jump\t// out\n        /* \"#utility.yul\":7:82   */\n    tag_127:\n        /* \"#utility.yul\":40:46   */\n      0x00\n        /* \"#utility.yul\":73:75   */\n      0x40\n        /* \"#utility.yul\":67:76   */\n      mload\n        /* \"#utility.yul\":57:76   */\n      swap1\n      pop\n        /* \"#utility.yul\":7:82   */\n      swap1\n      jump\t// out\n        /* \"#utility.yul\":88:205   */\n    tag_128:\n        /* \"#utility.yul\":197:198   */\n      0x00\n        /* \"#utility.yul\":194:195   */\n      dup1\n        /* \"#utility.yul\":187:199   */\n      revert\n        /* \"#utility.yul\":211:328   */\n    tag_129:\n        /* \"#utility.yul\":320:321   */\n      0x00\n        /* \"#utility.yul\":317:318   */\n      dup1\n        /* \"#utility.yul\":310:322   */\n      revert\n        /* \"#utility.yul\":334:411   */\n    tag_130:\n        /* \"#utility.yul\":371:378   */\n      0x00\n        /* \"#utility.yul\":400:405   */\n      dup2\n        /* \"#utility.yul\":389:405   */\n      swap1\n      pop\n        /* \"#utility.yul\":334:411   */\n      swap2\n      swap1\n      pop\n      jump\t// out\n        /* \"#utility.yul\":417:539   */\n    tag_131:\n        /* \"#utility.yul\":490:514   */\n      tag_183\n        /* \"#utility.yul\":508:513   */\n      dup2\n        /* \"#utility.yul\":490:514   */\n      tag_130\n      jump\t// in\n    tag_183:\n        /* \"#utility.yul\":483:488   */\n      dup2\n        /* \"#utility.yul\":480:515   */\n      eq\n        /* \"#utility.yul\":470:533   */\n      tag_184\n      jumpi\n        /* \"#utility.yul\":529:530   */\n      0x00\n        /* \"#utility.yul\":526:527   */\n      dup1\n        /* \"#utility.yul\":519:531   */\n      revert\n        /* \"#utility.yul\":470:533   */\n    tag_184:\n        /* \"#utility.yul\":417:539   */\n      pop\n      jump\t// out\n        /* \"#utility.yul\":545:684   */\n    tag_132:\n        /* \"#utility.yul\":591:596   */\n      0x00\n        /* \"#utility.yul\":629:635   */\n      dup2\n        /* \"#utility.yul\":616:636   */\n      calldataload\n        /* \"#utility.yul\":607:636   */\n      swap1\n      pop\n        /* \"#utility.yul\":645:678   */\n      tag_186\n        /* \"#utility.yul\":672:677   */\n      dup2\n        /* \"#utility.yul\":645:678   */\n      tag_131\n      jump\t// in\n    tag_186:\n        /* \"#utility.yul\":545:684   */\n      swap3\n      swap2\n      pop\n      pop\n      jump\t// out\n        /* \"#utility.yul\":690:1019   */\n    tag_18:\n        /* \"#utility.yul\":749:755   */\n      0x00\n        /* \"#utility.yul\":798:800   */\n      0x20\n        /* \"#utility.yul\":786:795   */\n      dup3\n        /* \"#utility.yul\":777:784   */\n      dup5\n        /* \"#utility.yul\":773:796   */\n      sub\n        /* \"#utility.yul\":769:801   */\n      slt\n        /* \"#utility.yul\":766:885   */\n      iszero\n      tag_188\n      jumpi\n        /* \"#utility.yul\":804:883   */\n      tag_189\n      tag_128\n      jump\t// in\n    tag_189:\n        /* \"#utility.yul\":766:885   */\n    tag_188:\n        /* \"#utility.yul\":924:925   */\n      0x00\n        /* \"#utility.yul\":949:1002   */\n      tag_190\n        /* \"#utility.yul\":994:1001   */\n      dup5\n        /* \"#utility.yul\":985:991   */\n      dup3\n        /* \"#utility.yul\":974:983   */\n      dup6\n        /* \"#utility.yul\":970:992   */\n      add\n        /* \"#utility.yul\":949:1002   */\n      tag_132\n      jump\t// in\n    tag_190:\n        /* \"#utility.yul\":939:1002   */\n      swap2\n      pop\n        /* \"#utility.yul\":895:1012   */\n      pop\n        /* \"#utility.yul\":690:1019   */\n      swap3\n      swap2\n      pop\n      pop\n      jump\t// out\n        /* \"#utility.yul\":1025:1151   */\n    tag_133:\n        /* \"#utility.yul\":1062:1069   */\n      0x00\n        /* \"#utility.yul\":1102:1144   */\n      0xffffffffffffffffffffffffffffffffffffffff\n        /* \"#utility.yul\":1095:1100   */\n      dup3\n        /* \"#utility.yul\":1091:1145   */\n      and\n        /* \"#utility.yul\":1080:1145   */\n      swap1\n      pop\n        /* \"#utility.yul\":1025:1151   */\n      swap2\n      swap1\n      pop\n      jump\t// out\n        /* \"#utility.yul\":1157:1253   */\n    tag_134:\n        /* \"#utility.yul\":1194:1201   */\n      0x00\n        /* \"#utility.yul\":1223:1247   */\n      tag_193\n        /* \"#utility.yul\":1241:1246   */\n      dup3\n        /* \"#utility.yul\":1223:1247   */\n      tag_133\n      jump\t// in\n    tag_193:\n        /* \"#utility.yul\":1212:1247   */\n      swap1\n      pop\n        /* \"#utility.yul\":1157:1253   */\n      swap2\n      swap1\n      pop\n      jump\t// out\n        /* \"#utility.yul\":1259:1381   */\n    tag_135:\n        /* \"#utility.yul\":1332:1356   */\n      tag_195\n        /* \"#utility.yul\":1350:1355   */\n      dup2\n        /* \"#utility.yul\":1332:1356   */\n      tag_134\n      jump\t// in\n    tag_195:\n        /* \"#utility.yul\":1325:1330   */\n      dup2\n        /* \"#utility.yul\":1322:1357   */\n      eq\n        /* \"#utility.yul\":1312:1375   */\n      tag_196\n      jumpi\n        /* \"#utility.yul\":1371:1372   */\n      0x00\n        /* \"#utility.yul\":1368:1369   */\n      dup1\n        /* \"#utility.yul\":1361:1373   */\n      revert\n        /* \"#utility.yul\":1312:1375   */\n    tag_196:\n        /* \"#utility.yul\":1259:1381   */\n      pop\n      jump\t// out\n        /* \"#utility.yul\":1387:1526   */\n    tag_136:\n        /* \"#utility.yul\":1433:1438   */\n      0x00\n        /* \"#utility.yul\":1471:1477   */\n      dup2\n        /* \"#utility.yul\":1458:1478   */\n      calldataload\n        /* \"#utility.yul\":1449:1478   */\n      swap1\n      pop\n        /* \"#utility.yul\":1487:1520   */\n      tag_198\n        /* \"#utility.yul\":1514:1519   */\n      dup2\n        /* \"#utility.yul\":1487:1520   */\n      tag_135\n      jump\t// in\n    tag_198:\n        /* \"#utility.yul\":1387:1526   */\n      swap3\n      swap2\n      pop\n      pop\n      jump\t// out\n        /* \"#utility.yul\":1532:1861   */\n    tag_23:\n        /* \"#utility.yul\":1591:1597   */\n      0x00\n        /* \"#utility.yul\":1640:1642   */\n      0x20\n        /* \"#utility.yul\":1628:1637   */\n      dup3\n        /* \"#utility.yul\":1619:1626   */\n      dup5\n        /* \"#utility.yul\":1615:1638   */\n      sub\n        /* \"#utility.yul\":1611:1643   */\n      slt\n        /* \"#utility.yul\":1608:1727   */\n      iszero\n      tag_200\n      jumpi\n        /* \"#utility.yul\":1646:1725   */\n      tag_201\n      tag_128\n      jump\t// in\n    tag_201:\n        /* \"#utility.yul\":1608:1727   */\n    tag_200:\n        /* \"#utility.yul\":1766:1767   */\n      0x00\n        /* \"#utility.yul\":1791:1844   */\n      tag_202\n        /* \"#utility.yul\":1836:1843   */\n      dup5\n        /* \"#utility.yul\":1827:1833   */\n      dup3\n        /* \"#utility.yul\":1816:1825   */\n      dup6\n        /* \"#utility.yul\":1812:1834   */\n      add\n        /* \"#utility.yul\":1791:1844   */\n      tag_136\n      jump\t// in\n    tag_202:\n        /* \"#utility.yul\":1781:1844   */\n      swap2\n      pop\n        /* \"#utility.yul\":1737:1854   */\n      pop\n        /* \"#utility.yul\":1532:1861   */\n      swap3\n      swap2\n      pop\n      pop\n      jump\t// out\n        /* \"#utility.yul\":1867:1957   */\n    tag_137:\n        /* \"#utility.yul\":1901:1908   */\n      0x00\n        /* \"#utility.yul\":1944:1949   */\n      dup2\n        /* \"#utility.yul\":1937:1950   */\n      iszero\n        /* \"#utility.yul\":1930:1951   */\n      iszero\n        /* \"#utility.yul\":1919:1951   */\n      swap1\n      pop\n        /* \"#utility.yul\":1867:1957   */\n      swap2\n      swap1\n      pop\n      jump\t// out\n        /* \"#utility.yul\":1963:2072   */\n    tag_138:\n        /* \"#utility.yul\":2044:2065   */\n      tag_205\n        /* \"#utility.yul\":2059:2064   */\n      dup2\n        /* \"#utility.yul\":2044:2065   */\n      tag_137\n      jump\t// in\n    tag_205:\n        /* \"#utility.yul\":2039:2042   */\n      dup3\n        /* \"#utility.yul\":2032:2066   */\n      mstore\n        /* \"#utility.yul\":1963:2072   */\n      pop\n      pop\n      jump\t// out\n        /* \"#utility.yul\":2078:2288   */\n    tag_26:\n        /* \"#utility.yul\":2165:2169   */\n      0x00\n        /* \"#utility.yul\":2203:2205   */\n      0x20\n        /* \"#utility.yul\":2192:2201   */\n      dup3\n        /* \"#utility.yul\":2188:2206   */\n      add\n        /* \"#utility.yul\":2180:2206   */\n      swap1\n      pop\n        /* \"#utility.yul\":2216:2281   */\n      tag_207\n        /* \"#utility.yul\":2278:2279   */\n      0x00\n        /* \"#utility.yul\":2267:2276   */\n      dup4\n        /* \"#utility.yul\":2263:2280   */\n      add\n        /* \"#utility.yul\":2254:2260   */\n      dup5\n        /* \"#utility.yul\":2216:2281   */\n      tag_138\n      jump\t// in\n    tag_207:\n        /* \"#utility.yul\":2078:2288   */\n      swap3\n      swap2\n      pop\n      pop\n      jump\t// out\n        /* \"#utility.yul\":2294:2412   */\n    tag_139:\n        /* \"#utility.yul\":2381:2405   */\n      tag_209\n        /* \"#utility.yul\":2399:2404   */\n      dup2\n        /* \"#utility.yul\":2381:2405   */\n      tag_130\n      jump\t// in\n    tag_209:\n        /* \"#utility.yul\":2376:2379   */\n      dup3\n        /* \"#utility.yul\":2369:2406   */\n      mstore\n        /* \"#utility.yul\":2294:2412   */\n      pop\n      pop\n      jump\t// out\n        /* \"#utility.yul\":2418:2640   */\n    tag_31:\n        /* \"#utility.yul\":2511:2515   */\n      0x00\n        /* \"#utility.yul\":2549:2551   */\n      0x20\n        /* \"#utility.yul\":2538:2547   */\n      dup3\n        /* \"#utility.yul\":2534:2552   */\n      add\n        /* \"#utility.yul\":2526:2552   */\n      swap1\n      pop\n        /* \"#utility.yul\":2562:2633   */\n      tag_211\n        /* \"#utility.yul\":2630:2631   */\n      0x00\n        /* \"#utility.yul\":2619:2628   */\n      dup4\n        /* \"#utility.yul\":2615:2632   */\n      add\n        /* \"#utility.yul\":2606:2612   */\n      dup5\n        /* \"#utility.yul\":2562:2633   */\n      tag_139\n      jump\t// in\n    tag_211:\n        /* \"#utility.yul\":2418:2640   */\n      swap3\n      swap2\n      pop\n      pop\n      jump\t// out\n        /* \"#utility.yul\":2646:2764   */\n    tag_140:\n        /* \"#utility.yul\":2733:2757   */\n      tag_213\n        /* \"#utility.yul\":2751:2756   */\n      dup2\n        /* \"#utility.yul\":2733:2757   */\n      tag_134\n      jump\t// in\n    tag_213:\n        /* \"#utility.yul\":2728:2731   */\n      dup3\n        /* \"#utility.yul\":2721:2758   */\n      mstore\n        /* \"#utility.yul\":2646:2764   */\n      pop\n      pop\n      jump\t// out\n        /* \"#utility.yul\":2770:3434   */\n    tag_36:\n        /* \"#utility.yul\":2975:2979   */\n      0x00\n        /* \"#utility.yul\":3013:3016   */\n      0xa0\n        /* \"#utility.yul\":3002:3011   */\n      dup3\n        /* \"#utility.yul\":2998:3017   */\n      add\n        /* \"#utility.yul\":2990:3017   */\n      swap1\n      pop\n        /* \"#utility.yul\":3027:3098   */\n      tag_215\n        /* \"#utility.yul\":3095:3096   */\n      0x00\n        /* \"#utility.yul\":3084:3093   */\n      dup4\n        /* \"#utility.yul\":3080:3097   */\n      add\n        /* \"#utility.yul\":3071:3077   */\n      dup9\n        /* \"#utility.yul\":3027:3098   */\n      tag_139\n      jump\t// in\n    tag_215:\n        /* \"#utility.yul\":3108:3180   */\n      tag_216\n        /* \"#utility.yul\":3176:3178   */\n      0x20\n        /* \"#utility.yul\":3165:3174   */\n      dup4\n        /* \"#utility.yul\":3161:3179   */\n      add\n        /* \"#utility.yul\":3152:3158   */\n      dup8\n        /* \"#utility.yul\":3108:3180   */\n      tag_139\n      jump\t// in\n    tag_216:\n        /* \"#utility.yul\":3190:3262   */\n      tag_217\n        /* \"#utility.yul\":3258:3260   */\n      0x40\n        /* \"#utility.yul\":3247:3256   */\n      dup4\n        /* \"#utility.yul\":3243:3261   */\n      add\n        /* \"#utility.yul\":3234:3240   */\n      dup7\n        /* \"#utility.yul\":3190:3262   */\n      tag_139\n      jump\t// in\n    tag_217:\n        /* \"#utility.yul\":3272:3344   */\n      tag_218\n        /* \"#utility.yul\":3340:3342   */\n      0x60\n        /* \"#utility.yul\":3329:3338   */\n      dup4\n        /* \"#utility.yul\":3325:3343   */\n      add\n        /* \"#utility.yul\":3316:3322   */\n      dup6\n        /* \"#utility.yul\":3272:3344   */\n      tag_139\n      jump\t// in\n    tag_218:\n        /* \"#utility.yul\":3354:3427   */\n      tag_219\n        /* \"#utility.yul\":3422:3425   */\n      0x80\n        /* \"#utility.yul\":3411:3420   */\n      dup4\n        /* \"#utility.yul\":3407:3426   */\n      add\n        /* \"#utility.yul\":3398:3404   */\n      dup5\n        /* \"#utility.yul\":3354:3427   */\n      tag_140\n      jump\t// in\n    tag_219:\n        /* \"#utility.yul\":2770:3434   */\n      swap7\n      swap6\n      pop\n      pop\n      pop\n      pop\n      pop\n      pop\n      jump\t// out\n        /* \"#utility.yul\":3440:3662   */\n    tag_41:\n        /* \"#utility.yul\":3533:3537   */\n      0x00\n        /* \"#utility.yul\":3571:3573   */\n      0x20\n        /* \"#utility.yul\":3560:3569   */\n      dup3\n        /* \"#utility.yul\":3556:3574   */\n      add\n        /* \"#utility.yul\":3548:3574   */\n      swap1\n      pop\n        /* \"#utility.yul\":3584:3655   */\n      tag_221\n        /* \"#utility.yul\":3652:3653   */\n      0x00\n        /* \"#utility.yul\":3641:3650   */\n      dup4\n        /* \"#utility.yul\":3637:3654   */\n      add\n        /* \"#utility.yul\":3628:3634   */\n      dup5\n        /* \"#utility.yul\":3584:3655   */\n      tag_140\n      jump\t// in\n    tag_221:\n        /* \"#utility.yul\":3440:3662   */\n      swap3\n      swap2\n      pop\n      pop\n      jump\t// out\n        /* \"#utility.yul\":3668:3767   */\n    tag_141:\n        /* \"#utility.yul\":3720:3726   */\n      0x00\n        /* \"#utility.yul\":3754:3759   */\n      dup2\n        /* \"#utility.yul\":3748:3760   */\n      mload\n        /* \"#utility.yul\":3738:3760   */\n      swap1\n      pop\n        /* \"#utility.yul\":3668:3767   */\n      swap2\n      swap1\n      pop\n      jump\t// out\n        /* \"#utility.yul\":3773:3942   */\n    tag_142:\n        /* \"#utility.yul\":3857:3868   */\n      0x00\n        /* \"#utility.yul\":3891:3897   */\n      dup3\n        /* \"#utility.yul\":3886:3889   */\n      dup3\n        /* \"#utility.yul\":3879:3898   */\n      mstore\n        /* \"#utility.yul\":3931:3935   */\n      0x20\n        /* \"#utility.yul\":3926:3929   */\n      dup3\n        /* \"#utility.yul\":3922:3936   */\n      add\n        /* \"#utility.yul\":3907:3936   */\n      swap1\n      pop\n        /* \"#utility.yul\":3773:3942   */\n      swap3\n      swap2\n      pop\n      pop\n      jump\t// out\n        /* \"#utility.yul\":3948:4087   */\n    tag_143:\n        /* \"#utility.yul\":4037:4043   */\n      dup3\n        /* \"#utility.yul\":4032:4035   */\n      dup2\n        /* \"#utility.yul\":4027:4030   */\n      dup4\n        /* \"#utility.yul\":4021:4044   */\n      mcopy\n        /* \"#utility.yul\":4078:4079   */\n      0x00\n        /* \"#utility.yul\":4069:4075   */\n      dup4\n        /* \"#utility.yul\":4064:4067   */\n      dup4\n        /* \"#utility.yul\":4060:4076   */\n      add\n        /* \"#utility.yul\":4053:4080   */\n      mstore\n        /* \"#utility.yul\":3948:4087   */\n      pop\n      pop\n      pop\n      jump\t// out\n        /* \"#utility.yul\":4093:4195   */\n    tag_144:\n        /* \"#utility.yul\":4134:4140   */\n      0x00\n        /* \"#utility.yul\":4185:4187   */\n      0x1f\n        /* \"#utility.yul\":4181:4188   */\n      not\n        /* \"#utility.yul\":4176:4178   */\n      0x1f\n        /* \"#utility.yul\":4169:4174   */\n      dup4\n        /* \"#utility.yul\":4165:4179   */\n      add\n        /* \"#utility.yul\":4161:4189   */\n      and\n        /* \"#utility.yul\":4151:4189   */\n      swap1\n      pop\n        /* \"#utility.yul\":4093:4195   */\n      swap2\n      swap1\n      pop\n      jump\t// out\n        /* \"#utility.yul\":4201:4578   */\n    tag_145:\n        /* \"#utility.yul\":4289:4292   */\n      0x00\n        /* \"#utility.yul\":4317:4356   */\n      tag_227\n        /* \"#utility.yul\":4350:4355   */\n      dup3\n        /* \"#utility.yul\":4317:4356   */\n      tag_141\n      jump\t// in\n    tag_227:\n        /* \"#utility.yul\":4372:4443   */\n      tag_228\n        /* \"#utility.yul\":4436:4442   */\n      dup2\n        /* \"#utility.yul\":4431:4434   */\n      dup6\n        /* \"#utility.yul\":4372:4443   */\n      tag_142\n      jump\t// in\n    tag_228:\n        /* \"#utility.yul\":4365:4443   */\n      swap4\n      pop\n        /* \"#utility.yul\":4452:4517   */\n      tag_229\n        /* \"#utility.yul\":4510:4516   */\n      dup2\n        /* \"#utility.yul\":4505:4508   */\n      dup6\n        /* \"#utility.yul\":4498:4502   */\n      0x20\n        /* \"#utility.yul\":4491:4496   */\n      dup7\n        /* \"#utility.yul\":4487:4503   */\n      add\n        /* \"#utility.yul\":4452:4517   */\n      tag_143\n      jump\t// in\n    tag_229:\n        /* \"#utility.yul\":4542:4571   */\n      tag_230\n        /* \"#utility.yul\":4564:4570   */\n      dup2\n        /* \"#utility.yul\":4542:4571   */\n      tag_144\n      jump\t// in\n    tag_230:\n        /* \"#utility.yul\":4537:4540   */\n      dup5\n        /* \"#utility.yul\":4533:4572   */\n      add\n        /* \"#utility.yul\":4526:4572   */\n      swap2\n      pop\n        /* \"#utility.yul\":4293:4578   */\n      pop\n        /* \"#utility.yul\":4201:4578   */\n      swap3\n      swap2\n      pop\n      pop\n      jump\t// out\n        /* \"#utility.yul\":4584:4688   */\n    tag_146:\n        /* \"#utility.yul\":4629:4636   */\n      0x00\n        /* \"#utility.yul\":4658:4682   */\n      tag_232\n        /* \"#utility.yul\":4676:4681   */\n      dup3\n        /* \"#utility.yul\":4658:4682   */\n      tag_133\n      jump\t// in\n    tag_232:\n        /* \"#utility.yul\":4647:4682   */\n      swap1\n      pop\n        /* \"#utility.yul\":4584:4688   */\n      swap2\n      swap1\n      pop\n      jump\t// out\n        /* \"#utility.yul\":4694:4836   */\n    tag_147:\n        /* \"#utility.yul\":4797:4829   */\n      tag_234\n        /* \"#utility.yul\":4823:4828   */\n      dup2\n        /* \"#utility.yul\":4797:4829   */\n      tag_146\n      jump\t// in\n    tag_234:\n        /* \"#utility.yul\":4792:4795   */\n      dup3\n        /* \"#utility.yul\":4785:4830   */\n      mstore\n        /* \"#utility.yul\":4694:4836   */\n      pop\n      pop\n      jump\t// out\n        /* \"#utility.yul\":4842:5617   */\n    tag_47:\n        /* \"#utility.yul\":5077:5081   */\n      0x00\n        /* \"#utility.yul\":5115:5118   */\n      0xa0\n        /* \"#utility.yul\":5104:5113   */\n      dup3\n        /* \"#utility.yul\":5100:5119   */\n      add\n        /* \"#utility.yul\":5092:5119   */\n      swap1\n      pop\n        /* \"#utility.yul\":5165:5174   */\n      dup2\n        /* \"#utility.yul\":5159:5163   */\n      dup2\n        /* \"#utility.yul\":5155:5175   */\n      sub\n        /* \"#utility.yul\":5151:5152   */\n      0x00\n        /* \"#utility.yul\":5140:5149   */\n      dup4\n        /* \"#utility.yul\":5136:5153   */\n      add\n        /* \"#utility.yul\":5129:5176   */\n      mstore\n        /* \"#utility.yul\":5193:5271   */\n      tag_236\n        /* \"#utility.yul\":5266:5270   */\n      dup2\n        /* \"#utility.yul\":5257:5263   */\n      dup9\n        /* \"#utility.yul\":5193:5271   */\n      tag_145\n      jump\t// in\n    tag_236:\n        /* \"#utility.yul\":5185:5271   */\n      swap1\n      pop\n        /* \"#utility.yul\":5281:5353   */\n      tag_237\n        /* \"#utility.yul\":5349:5351   */\n      0x20\n        /* \"#utility.yul\":5338:5347   */\n      dup4\n        /* \"#utility.yul\":5334:5352   */\n      add\n        /* \"#utility.yul\":5325:5331   */\n      dup8\n        /* \"#utility.yul\":5281:5353   */\n      tag_139\n      jump\t// in\n    tag_237:\n        /* \"#utility.yul\":5363:5451   */\n      tag_238\n        /* \"#utility.yul\":5447:5449   */\n      0x40\n        /* \"#utility.yul\":5436:5445   */\n      dup4\n        /* \"#utility.yul\":5432:5450   */\n      add\n        /* \"#utility.yul\":5423:5429   */\n      dup7\n        /* \"#utility.yul\":5363:5451   */\n      tag_147\n      jump\t// in\n    tag_238:\n        /* \"#utility.yul\":5461:5527   */\n      tag_239\n        /* \"#utility.yul\":5523:5525   */\n      0x60\n        /* \"#utility.yul\":5512:5521   */\n      dup4\n        /* \"#utility.yul\":5508:5526   */\n      add\n        /* \"#utility.yul\":5499:5505   */\n      dup6\n        /* \"#utility.yul\":5461:5527   */\n      tag_138\n      jump\t// in\n    tag_239:\n        /* \"#utility.yul\":5537:5610   */\n      tag_240\n        /* \"#utility.yul\":5605:5608   */\n      0x80\n        /* \"#utility.yul\":5594:5603   */\n      dup4\n        /* \"#utility.yul\":5590:5609   */\n      add\n        /* \"#utility.yul\":5581:5587   */\n      dup5\n        /* \"#utility.yul\":5537:5610   */\n      tag_139\n      jump\t// in\n    tag_240:\n        /* \"#utility.yul\":4842:5617   */\n      swap7\n      swap6\n      pop\n      pop\n      pop\n      pop\n      pop\n      pop\n      jump\t// out\n        /* \"#utility.yul\":5623:5740   */\n    tag_148:\n        /* \"#utility.yul\":5732:5733   */\n      0x00\n        /* \"#utility.yul\":5729:5730   */\n      dup1\n        /* \"#utility.yul\":5722:5734   */\n      revert\n        /* \"#utility.yul\":5746:5863   */\n    tag_149:\n        /* \"#utility.yul\":5855:5856   */\n      0x00\n        /* \"#utility.yul\":5852:5853   */\n      dup1\n        /* \"#utility.yul\":5845:5857   */\n      revert\n        /* \"#utility.yul\":5869:6049   */\n    tag_150:\n        /* \"#utility.yul\":5917:5994   */\n      0x4e487b7100000000000000000000000000000000000000000000000000000000\n        /* \"#utility.yul\":5914:5915   */\n      0x00\n        /* \"#utility.yul\":5907:5995   */\n      mstore\n        /* \"#utility.yul\":6014:6018   */\n      0x41\n        /* \"#utility.yul\":6011:6012   */\n      0x04\n        /* \"#utility.yul\":6004:6019   */\n      mstore\n        /* \"#utility.yul\":6038:6042   */\n      0x24\n        /* \"#utility.yul\":6035:6036   */\n      0x00\n        /* \"#utility.yul\":6028:6043   */\n      revert\n        /* \"#utility.yul\":6055:6336   */\n    tag_151:\n        /* \"#utility.yul\":6138:6165   */\n      tag_245\n        /* \"#utility.yul\":6160:6164   */\n      dup3\n        /* \"#utility.yul\":6138:6165   */\n      tag_144\n      jump\t// in\n    tag_245:\n        /* \"#utility.yul\":6130:6136   */\n      dup2\n        /* \"#utility.yul\":6126:6166   */\n      add\n        /* \"#utility.yul\":6268:6274   */\n      dup2\n        /* \"#utility.yul\":6256:6266   */\n      dup2\n        /* \"#utility.yul\":6253:6275   */\n      lt\n        /* \"#utility.yul\":6232:6250   */\n      0xffffffffffffffff\n        /* \"#utility.yul\":6220:6230   */\n      dup3\n        /* \"#utility.yul\":6217:6251   */\n      gt\n        /* \"#utility.yul\":6214:6276   */\n      or\n        /* \"#utility.yul\":6211:6299   */\n      iszero\n      tag_246\n      jumpi\n        /* \"#utility.yul\":6279:6297   */\n      tag_247\n      tag_150\n      jump\t// in\n    tag_247:\n        /* \"#utility.yul\":6211:6299   */\n    tag_246:\n        /* \"#utility.yul\":6319:6329   */\n      dup1\n        /* \"#utility.yul\":6315:6317   */\n      0x40\n        /* \"#utility.yul\":6308:6330   */\n      mstore\n        /* \"#utility.yul\":6098:6336   */\n      pop\n        /* \"#utility.yul\":6055:6336   */\n      pop\n      pop\n      jump\t// out\n        /* \"#utility.yul\":6342:6471   */\n    tag_152:\n        /* \"#utility.yul\":6376:6382   */\n      0x00\n        /* \"#utility.yul\":6403:6423   */\n      tag_249\n      tag_127\n      jump\t// in\n    tag_249:\n        /* \"#utility.yul\":6393:6423   */\n      swap1\n      pop\n        /* \"#utility.yul\":6432:6465   */\n      tag_250\n        /* \"#utility.yul\":6460:6464   */\n      dup3\n        /* \"#utility.yul\":6452:6458   */\n      dup3\n        /* \"#utility.yul\":6432:6465   */\n      tag_151\n      jump\t// in\n    tag_250:\n        /* \"#utility.yul\":6342:6471   */\n      swap2\n      swap1\n      pop\n      jump\t// out\n        /* \"#utility.yul\":6477:6785   */\n    tag_153:\n        /* \"#utility.yul\":6539:6543   */\n      0x00\n        /* \"#utility.yul\":6629:6647   */\n      0xffffffffffffffff\n        /* \"#utility.yul\":6621:6627   */\n      dup3\n        /* \"#utility.yul\":6618:6648   */\n      gt\n        /* \"#utility.yul\":6615:6671   */\n      iszero\n      tag_252\n      jumpi\n        /* \"#utility.yul\":6651:6669   */\n      tag_253\n      tag_150\n      jump\t// in\n    tag_253:\n        /* \"#utility.yul\":6615:6671   */\n    tag_252:\n        /* \"#utility.yul\":6689:6718   */\n      tag_254\n        /* \"#utility.yul\":6711:6717   */\n      dup3\n        /* \"#utility.yul\":6689:6718   */\n      tag_144\n      jump\t// in\n    tag_254:\n        /* \"#utility.yul\":6681:6718   */\n      swap1\n      pop\n        /* \"#utility.yul\":6773:6777   */\n      0x20\n        /* \"#utility.yul\":6767:6771   */\n      dup2\n        /* \"#utility.yul\":6763:6778   */\n      add\n        /* \"#utility.yul\":6755:6778   */\n      swap1\n      pop\n        /* \"#utility.yul\":6477:6785   */\n      swap2\n      swap1\n      pop\n      jump\t// out\n        /* \"#utility.yul\":6791:6939   */\n    tag_154:\n        /* \"#utility.yul\":6889:6895   */\n      dup3\n        /* \"#utility.yul\":6884:6887   */\n      dup2\n        /* \"#utility.yul\":6879:6882   */\n      dup4\n        /* \"#utility.yul\":6866:6896   */\n      calldatacopy\n        /* \"#utility.yul\":6930:6931   */\n      0x00\n        /* \"#utility.yul\":6921:6927   */\n      dup4\n        /* \"#utility.yul\":6916:6919   */\n      dup4\n        /* \"#utility.yul\":6912:6928   */\n      add\n        /* \"#utility.yul\":6905:6932   */\n      mstore\n        /* \"#utility.yul\":6791:6939   */\n      pop\n      pop\n      pop\n      jump\t// out\n        /* \"#utility.yul\":6945:7370   */\n    tag_155:\n        /* \"#utility.yul\":7023:7028   */\n      0x00\n        /* \"#utility.yul\":7048:7114   */\n      tag_257\n        /* \"#utility.yul\":7064:7113   */\n      tag_258\n        /* \"#utility.yul\":7106:7112   */\n      dup5\n        /* \"#utility.yul\":7064:7113   */\n      tag_153\n      jump\t// in\n    tag_258:\n        /* \"#utility.yul\":7048:7114   */\n      tag_152\n      jump\t// in\n    tag_257:\n        /* \"#utility.yul\":7039:7114   */\n      swap1\n      pop\n        /* \"#utility.yul\":7137:7143   */\n      dup3\n        /* \"#utility.yul\":7130:7135   */\n      dup2\n        /* \"#utility.yul\":7123:7144   */\n      mstore\n        /* \"#utility.yul\":7175:7179   */\n      0x20\n        /* \"#utility.yul\":7168:7173   */\n      dup2\n        /* \"#utility.yul\":7164:7180   */\n      add\n        /* \"#utility.yul\":7213:7216   */\n      dup5\n        /* \"#utility.yul\":7204:7210   */\n      dup5\n        /* \"#utility.yul\":7199:7202   */\n      dup5\n        /* \"#utility.yul\":7195:7211   */\n      add\n        /* \"#utility.yul\":7192:7217   */\n      gt\n        /* \"#utility.yul\":7189:7301   */\n      iszero\n      tag_259\n      jumpi\n        /* \"#utility.yul\":7220:7299   */\n      tag_260\n      tag_149\n      jump\t// in\n    tag_260:\n        /* \"#utility.yul\":7189:7301   */\n    tag_259:\n        /* \"#utility.yul\":7310:7364   */\n      tag_261\n        /* \"#utility.yul\":7357:7363   */\n      dup5\n        /* \"#utility.yul\":7352:7355   */\n      dup3\n        /* \"#utility.yul\":7347:7350   */\n      dup6\n        /* \"#utility.yul\":7310:7364   */\n      tag_154\n      jump\t// in\n    tag_261:\n        /* \"#utility.yul\":7029:7370   */\n      pop\n        /* \"#utility.yul\":6945:7370   */\n      swap4\n      swap3\n      pop\n      pop\n      pop\n      jump\t// out\n        /* \"#utility.yul\":7390:7730   */\n    tag_156:\n        /* \"#utility.yul\":7446:7451   */\n      0x00\n        /* \"#utility.yul\":7495:7498   */\n      dup3\n        /* \"#utility.yul\":7488:7492   */\n      0x1f\n        /* \"#utility.yul\":7480:7486   */\n      dup4\n        /* \"#utility.yul\":7476:7493   */\n      add\n        /* \"#utility.yul\":7472:7499   */\n      slt\n        /* \"#utility.yul\":7462:7584   */\n      tag_263\n      jumpi\n        /* \"#utility.yul\":7503:7582   */\n      tag_264\n      tag_148\n      jump\t// in\n    tag_264:\n        /* \"#utility.yul\":7462:7584   */\n    tag_263:\n        /* \"#utility.yul\":7620:7626   */\n      dup2\n        /* \"#utility.yul\":7607:7627   */\n      calldataload\n        /* \"#utility.yul\":7645:7724   */\n      tag_265\n        /* \"#utility.yul\":7720:7723   */\n      dup5\n        /* \"#utility.yul\":7712:7718   */\n      dup3\n        /* \"#utility.yul\":7705:7709   */\n      0x20\n        /* \"#utility.yul\":7697:7703   */\n      dup7\n        /* \"#utility.yul\":7693:7710   */\n      add\n        /* \"#utility.yul\":7645:7724   */\n      tag_155\n      jump\t// in\n    tag_265:\n        /* \"#utility.yul\":7636:7724   */\n      swap2\n      pop\n        /* \"#utility.yul\":7452:7730   */\n      pop\n        /* \"#utility.yul\":7390:7730   */\n      swap3\n      swap2\n      pop\n      pop\n      jump\t// out\n        /* \"#utility.yul\":7736:7874   */\n    tag_157:\n        /* \"#utility.yul\":7817:7849   */\n      tag_267\n        /* \"#utility.yul\":7843:7848   */\n      dup2\n        /* \"#utility.yul\":7817:7849   */\n      tag_146\n      jump\t// in\n    tag_267:\n        /* \"#utility.yul\":7810:7815   */\n      dup2\n        /* \"#utility.yul\":7807:7850   */\n      eq\n        /* \"#utility.yul\":7797:7868   */\n      tag_268\n      jumpi\n        /* \"#utility.yul\":7864:7865   */\n      0x00\n        /* \"#utility.yul\":7861:7862   */\n      dup1\n        /* \"#utility.yul\":7854:7866   */\n      revert\n        /* \"#utility.yul\":7797:7868   */\n    tag_268:\n        /* \"#utility.yul\":7736:7874   */\n      pop\n      jump\t// out\n        /* \"#utility.yul\":7880:8035   */\n    tag_158:\n        /* \"#utility.yul\":7934:7939   */\n      0x00\n        /* \"#utility.yul\":7972:7978   */\n      dup2\n        /* \"#utility.yul\":7959:7979   */\n      calldataload\n        /* \"#utility.yul\":7950:7979   */\n      swap1\n      pop\n        /* \"#utility.yul\":7988:8029   */\n      tag_270\n        /* \"#utility.yul\":8023:8028   */\n      dup2\n        /* \"#utility.yul\":7988:8029   */\n      tag_157\n      jump\t// in\n    tag_270:\n        /* \"#utility.yul\":7880:8035   */\n      swap3\n      swap2\n      pop\n      pop\n      jump\t// out\n        /* \"#utility.yul\":8041:8856   */\n    tag_55:\n        /* \"#utility.yul\":8136:8142   */\n      0x00\n        /* \"#utility.yul\":8144:8150   */\n      dup1\n        /* \"#utility.yul\":8152:8158   */\n      0x00\n        /* \"#utility.yul\":8201:8203   */\n      0x60\n        /* \"#utility.yul\":8189:8198   */\n      dup5\n        /* \"#utility.yul\":8180:8187   */\n      dup7\n        /* \"#utility.yul\":8176:8199   */\n      sub\n        /* \"#utility.yul\":8172:8204   */\n      slt\n        /* \"#utility.yul\":8169:8288   */\n      iszero\n      tag_272\n      jumpi\n        /* \"#utility.yul\":8207:8286   */\n      tag_273\n      tag_128\n      jump\t// in\n    tag_273:\n        /* \"#utility.yul\":8169:8288   */\n    tag_272:\n        /* \"#utility.yul\":8355:8356   */\n      0x00\n        /* \"#utility.yul\":8344:8353   */\n      dup5\n        /* \"#utility.yul\":8340:8357   */\n      add\n        /* \"#utility.yul\":8327:8358   */\n      calldataload\n        /* \"#utility.yul\":8385:8403   */\n      0xffffffffffffffff\n        /* \"#utility.yul\":8377:8383   */\n      dup2\n        /* \"#utility.yul\":8374:8404   */\n      gt\n        /* \"#utility.yul\":8371:8488   */\n      iszero\n      tag_274\n      jumpi\n        /* \"#utility.yul\":8407:8486   */\n      tag_275\n      tag_129\n      jump\t// in\n    tag_275:\n        /* \"#utility.yul\":8371:8488   */\n    tag_274:\n        /* \"#utility.yul\":8512:8575   */\n      tag_276\n        /* \"#utility.yul\":8567:8574   */\n      dup7\n        /* \"#utility.yul\":8558:8564   */\n      dup3\n        /* \"#utility.yul\":8547:8556   */\n      dup8\n        /* \"#utility.yul\":8543:8565   */\n      add\n        /* \"#utility.yul\":8512:8575   */\n      tag_156\n      jump\t// in\n    tag_276:\n        /* \"#utility.yul\":8502:8575   */\n      swap4\n      pop\n        /* \"#utility.yul\":8298:8585   */\n      pop\n        /* \"#utility.yul\":8624:8626   */\n      0x20\n        /* \"#utility.yul\":8650:8703   */\n      tag_277\n        /* \"#utility.yul\":8695:8702   */\n      dup7\n        /* \"#utility.yul\":8686:8692   */\n      dup3\n        /* \"#utility.yul\":8675:8684   */\n      dup8\n        /* \"#utility.yul\":8671:8693   */\n      add\n        /* \"#utility.yul\":8650:8703   */\n      tag_132\n      jump\t// in\n    tag_277:\n        /* \"#utility.yul\":8640:8703   */\n      swap3\n      pop\n        /* \"#utility.yul\":8595:8713   */\n      pop\n        /* \"#utility.yul\":8752:8754   */\n      0x40\n        /* \"#utility.yul\":8778:8839   */\n      tag_278\n        /* \"#utility.yul\":8831:8838   */\n      dup7\n        /* \"#utility.yul\":8822:8828   */\n      dup3\n        /* \"#utility.yul\":8811:8820   */\n      dup8\n        /* \"#utility.yul\":8807:8829   */\n      add\n        /* \"#utility.yul\":8778:8839   */\n      tag_158\n      jump\t// in\n    tag_278:\n        /* \"#utility.yul\":8768:8839   */\n      swap2\n      pop\n        /* \"#utility.yul\":8723:8849   */\n      pop\n        /* \"#utility.yul\":8041:8856   */\n      swap3\n      pop\n      swap3\n      pop\n      swap3\n      jump\t// out\n        /* \"#utility.yul\":8862:9175   */\n    tag_66:\n        /* \"#utility.yul\":8975:8979   */\n      0x00\n        /* \"#utility.yul\":9013:9015   */\n      0x20\n        /* \"#utility.yul\":9002:9011   */\n      dup3\n        /* \"#utility.yul\":8998:9016   */\n      add\n        /* \"#utility.yul\":8990:9016   */\n      swap1\n      pop\n        /* \"#utility.yul\":9062:9071   */\n      dup2\n        /* \"#utility.yul\":9056:9060   */\n      dup2\n        /* \"#utility.yul\":9052:9072   */\n      sub\n        /* \"#utility.yul\":9048:9049   */\n      0x00\n        /* \"#utility.yul\":9037:9046   */\n      dup4\n        /* \"#utility.yul\":9033:9050   */\n      add\n        /* \"#utility.yul\":9026:9073   */\n      mstore\n        /* \"#utility.yul\":9090:9168   */\n      tag_280\n        /* \"#utility.yul\":9163:9167   */\n      dup2\n        /* \"#utility.yul\":9154:9160   */\n      dup5\n        /* \"#utility.yul\":9090:9168   */\n      tag_145\n      jump\t// in\n    tag_280:\n        /* \"#utility.yul\":9082:9168   */\n      swap1\n      pop\n        /* \"#utility.yul\":8862:9175   */\n      swap3\n      swap2\n      pop\n      pop\n      jump\t// out\n        /* \"#utility.yul\":9181:9361   */\n    tag_78:\n        /* \"#utility.yul\":9229:9306   */\n      0x4e487b7100000000000000000000000000000000000000000000000000000000\n        /* \"#utility.yul\":9226:9227   */\n      0x00\n        /* \"#utility.yul\":9219:9307   */\n      mstore\n        /* \"#utility.yul\":9326:9330   */\n      0x32\n        /* \"#utility.yul\":9323:9324   */\n      0x04\n        /* \"#utility.yul\":9316:9331   */\n      mstore\n        /* \"#utility.yul\":9350:9354   */\n      0x24\n        /* \"#utility.yul\":9347:9348   */\n      0x00\n        /* \"#utility.yul\":9340:9355   */\n      revert\n        /* \"#utility.yul\":9367:9547   */\n    tag_159:\n        /* \"#utility.yul\":9415:9492   */\n      0x4e487b7100000000000000000000000000000000000000000000000000000000\n        /* \"#utility.yul\":9412:9413   */\n      0x00\n        /* \"#utility.yul\":9405:9493   */\n      mstore\n        /* \"#utility.yul\":9512:9516   */\n      0x12\n        /* \"#utility.yul\":9509:9510   */\n      0x04\n        /* \"#utility.yul\":9502:9517   */\n      mstore\n        /* \"#utility.yul\":9536:9540   */\n      0x24\n        /* \"#utility.yul\":9533:9534   */\n      0x00\n        /* \"#utility.yul\":9526:9541   */\n      revert\n        /* \"#utility.yul\":9553:9733   */\n    tag_160:\n        /* \"#utility.yul\":9601:9678   */\n      0x4e487b7100000000000000000000000000000000000000000000000000000000\n        /* \"#utility.yul\":9598:9599   */\n      0x00\n        /* \"#utility.yul\":9591:9679   */\n      mstore\n        /* \"#utility.yul\":9698:9702   */\n      0x11\n        /* \"#utility.yul\":9695:9696   */\n      0x04\n        /* \"#utility.yul\":9688:9703   */\n      mstore\n        /* \"#utility.yul\":9722:9726   */\n      0x24\n        /* \"#utility.yul\":9719:9720   */\n      0x00\n        /* \"#utility.yul\":9712:9727   */\n      revert\n        /* \"#utility.yul\":9739:9924   */\n    tag_81:\n        /* \"#utility.yul\":9779:9780   */\n      0x00\n        /* \"#utility.yul\":9796:9816   */\n      tag_285\n        /* \"#utility.yul\":9814:9815   */\n      dup3\n        /* \"#utility.yul\":9796:9816   */\n      tag_130\n      jump\t// in\n    tag_285:\n        /* \"#utility.yul\":9791:9816   */\n      swap2\n      pop\n        /* \"#utility.yul\":9830:9850   */\n      tag_286\n        /* \"#utility.yul\":9848:9849   */\n      dup4\n        /* \"#utility.yul\":9830:9850   */\n      tag_130\n      jump\t// in\n    tag_286:\n        /* \"#utility.yul\":9825:9850   */\n      swap3\n      pop\n        /* \"#utility.yul\":9869:9870   */\n      dup3\n        /* \"#utility.yul\":9859:9894   */\n      tag_287\n      jumpi\n        /* \"#utility.yul\":9874:9892   */\n      tag_288\n      tag_159\n      jump\t// in\n    tag_288:\n        /* \"#utility.yul\":9859:9894   */\n    tag_287:\n        /* \"#utility.yul\":9916:9917   */\n      dup3\n        /* \"#utility.yul\":9913:9914   */\n      dup3\n        /* \"#utility.yul\":9909:9918   */\n      div\n        /* \"#utility.yul\":9904:9918   */\n      swap1\n      pop\n        /* \"#utility.yul\":9739:9924   */\n      swap3\n      swap2\n      pop\n      pop\n      jump\t// out\n        /* \"#utility.yul\":9930:10110   */\n    tag_161:\n        /* \"#utility.yul\":9978:10055   */\n      0x4e487b7100000000000000000000000000000000000000000000000000000000\n        /* \"#utility.yul\":9975:9976   */\n      0x00\n        /* \"#utility.yul\":9968:10056   */\n      mstore\n        /* \"#utility.yul\":10075:10079   */\n      0x22\n        /* \"#utility.yul\":10072:10073   */\n      0x04\n        /* \"#utility.yul\":10065:10080   */\n      mstore\n        /* \"#utility.yul\":10099:10103   */\n      0x24\n        /* \"#utility.yul\":10096:10097   */\n      0x00\n        /* \"#utility.yul\":10089:10104   */\n      revert\n        /* \"#utility.yul\":10116:10436   */\n    tag_91:\n        /* \"#utility.yul\":10160:10166   */\n      0x00\n        /* \"#utility.yul\":10197:10198   */\n      0x02\n        /* \"#utility.yul\":10191:10195   */\n      dup3\n        /* \"#utility.yul\":10187:10199   */\n      div\n        /* \"#utility.yul\":10177:10199   */\n      swap1\n      pop\n        /* \"#utility.yul\":10244:10245   */\n      0x01\n        /* \"#utility.yul\":10238:10242   */\n      dup3\n        /* \"#utility.yul\":10234:10246   */\n      and\n        /* \"#utility.yul\":10265:10283   */\n      dup1\n        /* \"#utility.yul\":10255:10336   */\n      tag_291\n      jumpi\n        /* \"#utility.yul\":10321:10325   */\n      0x7f\n        /* \"#utility.yul\":10313:10319   */\n      dup3\n        /* \"#utility.yul\":10309:10326   */\n      and\n        /* \"#utility.yul\":10299:10326   */\n      swap2\n      pop\n        /* \"#utility.yul\":10255:10336   */\n    tag_291:\n        /* \"#utility.yul\":10383:10385   */\n      0x20\n        /* \"#utility.yul\":10375:10381   */\n      dup3\n        /* \"#utility.yul\":10372:10386   */\n      lt\n        /* \"#utility.yul\":10352:10370   */\n      dup2\n        /* \"#utility.yul\":10349:10387   */\n      sub\n        /* \"#utility.yul\":10346:10430   */\n      tag_292\n      jumpi\n        /* \"#utility.yul\":10402:10420   */\n      tag_293\n      tag_161\n      jump\t// in\n    tag_293:\n        /* \"#utility.yul\":10346:10430   */\n    tag_292:\n        /* \"#utility.yul\":10167:10436   */\n      pop\n        /* \"#utility.yul\":10116:10436   */\n      swap2\n      swap1\n      pop\n      jump\t// out\n        /* \"#utility.yul\":10442:10636   */\n    tag_101:\n        /* \"#utility.yul\":10482:10486   */\n      0x00\n        /* \"#utility.yul\":10502:10522   */\n      tag_295\n        /* \"#utility.yul\":10520:10521   */\n      dup3\n        /* \"#utility.yul\":10502:10522   */\n      tag_130\n      jump\t// in\n    tag_295:\n        /* \"#utility.yul\":10497:10522   */\n      swap2\n      pop\n        /* \"#utility.yul\":10536:10556   */\n      tag_296\n        /* \"#utility.yul\":10554:10555   */\n      dup4\n        /* \"#utility.yul\":10536:10556   */\n      tag_130\n      jump\t// in\n    tag_296:\n        /* \"#utility.yul\":10531:10556   */\n      swap3\n      pop\n        /* \"#utility.yul\":10580:10581   */\n      dup3\n        /* \"#utility.yul\":10577:10578   */\n      dup3\n        /* \"#utility.yul\":10573:10582   */\n      sub\n        /* \"#utility.yul\":10565:10582   */\n      swap1\n      pop\n        /* \"#utility.yul\":10604:10605   */\n      dup2\n        /* \"#utility.yul\":10598:10602   */\n      dup2\n        /* \"#utility.yul\":10595:10606   */\n      gt\n        /* \"#utility.yul\":10592:10629   */\n      iszero\n      tag_297\n      jumpi\n        /* \"#utility.yul\":10609:10627   */\n      tag_298\n      tag_160\n      jump\t// in\n    tag_298:\n        /* \"#utility.yul\":10592:10629   */\n    tag_297:\n        /* \"#utility.yul\":10442:10636   */\n      swap3\n      swap2\n      pop\n      pop\n      jump\t// out\n        /* \"#utility.yul\":10642:10783   */\n    tag_162:\n        /* \"#utility.yul\":10691:10695   */\n      0x00\n        /* \"#utility.yul\":10714:10717   */\n      dup2\n        /* \"#utility.yul\":10706:10717   */\n      swap1\n      pop\n        /* \"#utility.yul\":10737:10740   */\n      dup2\n        /* \"#utility.yul\":10734:10735   */\n      0x00\n        /* \"#utility.yul\":10727:10741   */\n      mstore\n        /* \"#utility.yul\":10771:10775   */\n      0x20\n        /* \"#utility.yul\":10768:10769   */\n      0x00\n        /* \"#utility.yul\":10758:10776   */\n      keccak256\n        /* \"#utility.yul\":10750:10776   */\n      swap1\n      pop\n        /* \"#utility.yul\":10642:10783   */\n      swap2\n      swap1\n      pop\n      jump\t// out\n        /* \"#utility.yul\":10789:10882   */\n    tag_163:\n        /* \"#utility.yul\":10826:10832   */\n      0x00\n        /* \"#utility.yul\":10873:10875   */\n      0x20\n        /* \"#utility.yul\":10868:10870   */\n      0x1f\n        /* \"#utility.yul\":10861:10866   */\n      dup4\n        /* \"#utility.yul\":10857:10871   */\n      add\n        /* \"#utility.yul\":10853:10876   */\n      div\n        /* \"#utility.yul\":10843:10876   */\n      swap1\n      pop\n        /* \"#utility.yul\":10789:10882   */\n      swap2\n      swap1\n      pop\n      jump\t// out\n        /* \"#utility.yul\":10888:10995   */\n    tag_164:\n        /* \"#utility.yul\":10932:10940   */\n      0x00\n        /* \"#utility.yul\":10982:10987   */\n      dup3\n        /* \"#utility.yul\":10976:10980   */\n      dup3\n        /* \"#utility.yul\":10972:10988   */\n      shl\n        /* \"#utility.yul\":10951:10988   */\n      swap1\n      pop\n        /* \"#utility.yul\":10888:10995   */\n      swap3\n      swap2\n      pop\n      pop\n      jump\t// out\n        /* \"#utility.yul\":11001:11394   */\n    tag_165:\n        /* \"#utility.yul\":11070:11076   */\n      0x00\n        /* \"#utility.yul\":11120:11121   */\n      0x08\n        /* \"#utility.yul\":11108:11118   */\n      dup4\n        /* \"#utility.yul\":11104:11122   */\n      mul\n        /* \"#utility.yul\":11143:11240   */\n      tag_303\n        /* \"#utility.yul\":11173:11239   */\n      0xffffffffffffffffffffffffffffffffffffffffffffffffffffffffffffffff\n        /* \"#utility.yul\":11162:11171   */\n      dup3\n        /* \"#utility.yul\":11143:11240   */\n      tag_164\n      jump\t// in\n    tag_303:\n        /* \"#utility.yul\":11261:11300   */\n      tag_304\n        /* \"#utility.yul\":11291:11299   */\n      dup7\n        /* \"#utility.yul\":11280:11289   */\n      dup4\n        /* \"#utility.yul\":11261:11300   */\n      tag_164\n      jump\t// in\n    tag_304:\n        /* \"#utility.yul\":11249:11300   */\n      swap6\n      pop\n        /* \"#utility.yul\":11333:11337   */\n      dup1\n        /* \"#utility.yul\":11329:11338   */\n      not\n        /* \"#utility.yul\":11322:11327   */\n      dup5\n        /* \"#utility.yul\":11318:11339   */\n      and\n        /* \"#utility.yul\":11309:11339   */\n      swap4\n      pop\n        /* \"#utility.yul\":11382:11386   */\n      dup1\n        /* \"#utility.yul\":11372:11380   */\n      dup7\n        /* \"#utility.yul\":11368:11387   */\n      and\n        /* \"#utility.yul\":11361:11366   */\n      dup5\n        /* \"#utility.yul\":11358:11388   */\n      or\n        /* \"#utility.yul\":11348:11388   */\n      swap3\n      pop\n        /* \"#utility.yul\":11077:11394   */\n      pop\n      pop\n        /* \"#utility.yul\":11001:11394   */\n      swap4\n      swap3\n      pop\n      pop\n      pop\n      jump\t// out\n        /* \"#utility.yul\":11400:11460   */\n    tag_166:\n        /* \"#utility.yul\":11428:11431   */\n      0x00\n        /* \"#utility.yul\":11449:11454   */\n      dup2\n        /* \"#utility.yul\":11442:11454   */\n      swap1\n      pop\n        /* \"#utility.yul\":11400:11460   */\n      swap2\n      swap1\n      pop\n      jump\t// out\n        /* \"#utility.yul\":11466:11608   */\n    tag_167:\n        /* \"#utility.yul\":11516:11525   */\n      0x00\n        /* \"#utility.yul\":11549:11602   */\n      tag_307\n        /* \"#utility.yul\":11567:11601   */\n      tag_308\n        /* \"#utility.yul\":11576:11600   */\n      tag_309\n        /* \"#utility.yul\":11594:11599   */\n      dup5\n        /* \"#utility.yul\":11576:11600   */\n      tag_130\n      jump\t// in\n    tag_309:\n        /* \"#utility.yul\":11567:11601   */\n      tag_166\n      jump\t// in\n    tag_308:\n        /* \"#utility.yul\":11549:11602   */\n      tag_130\n      jump\t// in\n    tag_307:\n        /* \"#utility.yul\":11536:11602   */\n      swap1\n      pop\n        /* \"#utility.yul\":11466:11608   */\n      swap2\n      swap1\n      pop\n      jump\t// out\n        /* \"#utility.yul\":11614:11689   */\n    tag_168:\n        /* \"#utility.yul\":11657:11660   */\n      0x00\n        /* \"#utility.yul\":11678:11683   */\n      dup2\n        /* \"#utility.yul\":11671:11683   */\n      swap1\n      pop\n        /* \"#utility.yul\":11614:11689   */\n      swap2\n      swap1\n      pop\n      jump\t// out\n        /* \"#utility.yul\":11695:11964   */\n    tag_169:\n        /* \"#utility.yul\":11805:11844   */\n      tag_312\n        /* \"#utility.yul\":11836:11843   */\n      dup4\n        /* \"#utility.yul\":11805:11844   */\n      tag_167\n      jump\t// in\n    tag_312:\n        /* \"#utility.yul\":11866:11957   */\n      tag_313\n        /* \"#utility.yul\":11915:11956   */\n      tag_314\n        /* \"#utility.yul\":11939:11955   */\n      dup3\n        /* \"#utility.yul\":11915:11956   */\n      tag_168\n      jump\t// in\n    tag_314:\n        /* \"#utility.yul\":11907:11913   */\n      dup5\n        /* \"#utility.yul\":11900:11904   */\n      dup5\n        /* \"#utility.yul\":11894:11905   */\n      sload\n        /* \"#utility.yul\":11866:11957   */\n      tag_165\n      jump\t// in\n    tag_313:\n        /* \"#utility.yul\":11860:11864   */\n      dup3\n        /* \"#utility.yul\":11853:11958   */\n      sstore\n        /* \"#utility.yul\":11771:11964   */\n      pop\n        /* \"#utility.yul\":11695:11964   */\n      pop\n      pop\n      pop\n      jump\t// out\n        /* \"#utility.yul\":11970:12043   */\n    tag_170:\n        /* \"#utility.yul\":12015:12018   */\n      0x00\n        /* \"#utility.yul\":11970:12043   */\n      swap1\n      jump\t// out\n        /* \"#utility.yul\":12049:12238   */\n    tag_171:\n        /* \"#utility.yul\":12126:12158   */\n      tag_317\n      tag_170\n      jump\t// in\n    tag_317:\n        /* \"#utility.yul\":12167:12232   */\n      tag_318\n        /* \"#utility.yul\":12225:12231   */\n      dup2\n        /* \"#utility.yul\":12217:12223   */\n      dup5\n        /* \"#utility.yul\":12211:12215   */\n      dup5\n        /* \"#utility.yul\":12167:12232   */\n      tag_169\n      jump\t// in\n    tag_318:\n        /* \"#utility.yul\":12102:12238   */\n      pop\n        /* \"#utility.yul\":12049:12238   */\n      pop\n      pop\n      jump\t// out\n        /* \"#utility.yul\":12244:12430   */\n    tag_172:\n        /* \"#utility.yul\":12304:12424   */\n    tag_320:\n        /* \"#utility.yul\":12321:12324   */\n      dup2\n        /* \"#utility.yul\":12314:12319   */\n      dup2\n        /* \"#utility.yul\":12311:12325   */\n      lt\n        /* \"#utility.yul\":12304:12424   */\n      iszero\n      tag_322\n      jumpi\n        /* \"#utility.yul\":12375:12414   */\n      tag_323\n        /* \"#utility.yul\":12412:12413   */\n      0x00\n        /* \"#utility.yul\":12405:12410   */\n      dup3\n        /* \"#utility.yul\":12375:12414   */\n      tag_171\n      jump\t// in\n    tag_323:\n        /* \"#utility.yul\":12348:12349   */\n      0x01\n        /* \"#utility.yul\":12341:12346   */\n      dup2\n        /* \"#utility.yul\":12337:12350   */\n      add\n        /* \"#utility.yul\":12328:12350   */\n      swap1\n      pop\n        /* \"#utility.yul\":12304:12424   */\n      jump(tag_320)\n    tag_322:\n        /* \"#utility.yul\":12244:12430   */\n      pop\n      pop\n      jump\t// out\n        /* \"#utility.yul\":12436:12979   */\n    tag_173:\n        /* \"#utility.yul\":12537:12539   */\n      0x1f\n        /* \"#utility.yul\":12532:12535   */\n      dup3\n        /* \"#utility.yul\":12529:12540   */\n      gt\n        /* \"#utility.yul\":12526:12972   */\n      iszero\n      tag_325\n      jumpi\n        /* \"#utility.yul\":12571:12609   */\n      tag_326\n        /* \"#utility.yul\":12603:12608   */\n      dup2\n        /* \"#utility.yul\":12571:12609   */\n      tag_162\n      jump\t// in\n    tag_326:\n        /* \"#utility.yul\":12655:12684   */\n      tag_327\n        /* \"#utility.yul\":12673:12683   */\n      dup5\n        /* \"#utility.yul\":12655:12684   */\n      tag_163\n      jump\t// in\n    tag_327:\n        /* \"#utility.yul\":12645:12653   */\n      dup2\n        /* \"#utility.yul\":12641:12685   */\n      add\n        /* \"#utility.yul\":12838:12840   */\n      0x20\n        /* \"#utility.yul\":12826:12836   */\n      dup6\n        /* \"#utility.yul\":12823:12841   */\n      lt\n        /* \"#utility.yul\":12820:12869   */\n      iszero\n      tag_328\n      jumpi\n        /* \"#utility.yul\":12859:12867   */\n      dup2\n        /* \"#utility.yul\":12844:12867   */\n      swap1\n      pop\n        /* \"#utility.yul\":12820:12869   */\n    tag_328:\n        /* \"#utility.yul\":12882:12962   */\n      tag_329\n        /* \"#utility.yul\":12938:12960   */\n      tag_330\n        /* \"#utility.yul\":12956:12959   */\n      dup6\n        /* \"#utility.yul\":12938:12960   */\n      tag_163\n      jump\t// in\n    tag_330:\n        /* \"#utility.yul\":12928:12936   */\n      dup4\n        /* \"#utility.yul\":12924:12961   */\n      add\n        /* \"#utility.yul\":12911:12922   */\n      dup3\n        /* \"#utility.yul\":12882:12962   */\n      tag_172\n      jump\t// in\n    tag_329:\n        /* \"#utility.yul\":12541:12972   */\n      pop\n      pop\n        /* \"#utility.yul\":12526:12972   */\n    tag_325:\n        /* \"#utility.yul\":12436:12979   */\n      pop\n      pop\n      pop\n      jump\t// out\n        /* \"#utility.yul\":12985:13102   */\n    tag_174:\n        /* \"#utility.yul\":13039:13047   */\n      0x00\n        /* \"#utility.yul\":13089:13094   */\n      dup3\n        /* \"#utility.yul\":13083:13087   */\n      dup3\n        /* \"#utility.yul\":13079:13095   */\n      shr\n        /* \"#utility.yul\":13058:13095   */\n      swap1\n      pop\n        /* \"#utility.yul\":12985:13102   */\n      swap3\n      swap2\n      pop\n      pop\n      jump\t// out\n        /* \"#utility.yul\":13108:13277   */\n    tag_175:\n        /* \"#utility.yul\":13152:13158   */\n      0x00\n        /* \"#utility.yul\":13185:13236   */\n      tag_333\n        /* \"#utility.yul\":13233:13234   */\n      0x00\n        /* \"#utility.yul\":13229:13235   */\n      not\n        /* \"#utility.yul\":13221:13226   */\n      dup5\n        /* \"#utility.yul\":13218:13219   */\n      0x08\n        /* \"#utility.yul\":13214:13227   */\n      mul\n        /* \"#utility.yul\":13185:13236   */\n      tag_174\n      jump\t// in\n    tag_333:\n        /* \"#utility.yul\":13181:13237   */\n      not\n        /* \"#utility.yul\":13266:13270   */\n      dup1\n        /* \"#utility.yul\":13260:13264   */\n      dup4\n        /* \"#utility.yul\":13256:13271   */\n      and\n        /* \"#utility.yul\":13246:13271   */\n      swap2\n      pop\n        /* \"#utility.yul\":13159:13277   */\n      pop\n        /* \"#utility.yul\":13108:13277   */\n      swap3\n      swap2\n      pop\n      pop\n      jump\t// out\n        /* \"#utility.yul\":13282:13577   */\n    tag_176:\n        /* \"#utility.yul\":13358:13362   */\n      0x00\n        /* \"#utility.yul\":13504:13533   */\n      tag_335\n        /* \"#utility.yul\":13529:13532   */\n      dup4\n        /* \"#utility.yul\":13523:13527   */\n      dup4\n        /* \"#utility.yul\":13504:13533   */\n      tag_175\n      jump\t// in\n    tag_335:\n        /* \"#utility.yul\":13496:13533   */\n      swap2\n      pop\n        /* \"#utility.yul\":13566:13569   */\n      dup3\n        /* \"#utility.yul\":13563:13564   */\n      0x02\n        /* \"#utility.yul\":13559:13570   */\n      mul\n        /* \"#utility.yul\":13553:13557   */\n      dup3\n        /* \"#utility.yul\":13550:13571   */\n      or\n        /* \"#utility.yul\":13542:13571   */\n      swap1\n      pop\n        /* \"#utility.yul\":13282:13577   */\n      swap3\n      swap2\n      pop\n      pop\n      jump\t// out\n        /* \"#utility.yul\":13582:14977   */\n    tag_106:\n        /* \"#utility.yul\":13699:13736   */\n      tag_337\n        /* \"#utility.yul\":13732:13735   */\n      dup3\n        /* \"#utility.yul\":13699:13736   */\n      tag_141\n      jump\t// in\n    tag_337:\n        /* \"#utility.yul\":13801:13819   */\n      0xffffffffffffffff\n        /* \"#utility.yul\":13793:13799   */\n      dup2\n        /* \"#utility.yul\":13790:13820   */\n      gt\n        /* \"#utility.yul\":13787:13843   */\n      iszero\n      tag_338\n      jumpi\n        /* \"#utility.yul\":13823:13841   */\n      tag_339\n      tag_150\n      jump\t// in\n    tag_339:\n        /* \"#utility.yul\":13787:13843   */\n    tag_338:\n        /* \"#utility.yul\":13867:13905   */\n      tag_340\n        /* \"#utility.yul\":13899:13903   */\n      dup3\n        /* \"#utility.yul\":13893:13904   */\n      sload\n        /* \"#utility.yul\":13867:13905   */\n      tag_91\n      jump\t// in\n    tag_340:\n        /* \"#utility.yul\":13952:14019   */\n      tag_341\n        /* \"#utility.yul\":14012:14018   */\n      dup3\n        /* \"#utility.yul\":14004:14010   */\n      dup3\n        /* \"#utility.yul\":13998:14002   */\n      dup6\n        /* \"#utility.yul\":13952:14019   */\n      tag_173\n      jump\t// in\n    tag_341:\n        /* \"#utility.yul\":14046:14047   */\n      0x00\n        /* \"#utility.yul\":14070:14074   */\n      0x20\n        /* \"#utility.yul\":14057:14074   */\n      swap1\n      pop\n        /* \"#utility.yul\":14102:14104   */\n      0x1f\n        /* \"#utility.yul\":14094:14100   */\n      dup4\n        /* \"#utility.yul\":14091:14105   */\n      gt\n        /* \"#utility.yul\":14119:14120   */\n      0x01\n        /* \"#utility.yul\":14114:14732   */\n      dup2\n      eq\n      tag_343\n      jumpi\n        /* \"#utility.yul\":14776:14777   */\n      0x00\n        /* \"#utility.yul\":14793:14799   */\n      dup5\n        /* \"#utility.yul\":14790:14867   */\n      iszero\n      tag_344\n      jumpi\n        /* \"#utility.yul\":14842:14851   */\n      dup3\n        /* \"#utility.yul\":14837:14840   */\n      dup8\n        /* \"#utility.yul\":14833:14852   */\n      add\n        /* \"#utility.yul\":14827:14853   */\n      mload\n        /* \"#utility.yul\":14818:14853   */\n      swap1\n      pop\n        /* \"#utility.yul\":14790:14867   */\n    tag_344:\n        /* \"#utility.yul\":14893:14960   */\n      tag_345\n        /* \"#utility.yul\":14953:14959   */\n      dup6\n        /* \"#utility.yul\":14946:14951   */\n      dup3\n        /* \"#utility.yul\":14893:14960   */\n      tag_176\n      jump\t// in\n    tag_345:\n        /* \"#utility.yul\":14887:14891   */\n      dup7\n        /* \"#utility.yul\":14880:14961   */\n      sstore\n        /* \"#utility.yul\":14749:14971   */\n      pop\n        /* \"#utility.yul\":14084:14971   */\n      jump(tag_342)\n        /* \"#utility.yul\":14114:14732   */\n    tag_343:\n        /* \"#utility.yul\":14166:14170   */\n      0x1f\n        /* \"#utility.yul\":14162:14171   */\n      not\n        /* \"#utility.yul\":14154:14160   */\n      dup5\n        /* \"#utility.yul\":14150:14172   */\n      and\n        /* \"#utility.yul\":14200:14237   */\n      tag_346\n        /* \"#utility.yul\":14232:14236   */\n      dup7\n        /* \"#utility.yul\":14200:14237   */\n      tag_162\n      jump\t// in\n    tag_346:\n        /* \"#utility.yul\":14259:14260   */\n      0x00\n        /* \"#utility.yul\":14273:14481   */\n    tag_347:\n        /* \"#utility.yul\":14287:14294   */\n      dup3\n        /* \"#utility.yul\":14284:14285   */\n      dup2\n        /* \"#utility.yul\":14281:14295   */\n      lt\n        /* \"#utility.yul\":14273:14481   */\n      iszero\n      tag_349\n      jumpi\n        /* \"#utility.yul\":14366:14375   */\n      dup5\n        /* \"#utility.yul\":14361:14364   */\n      dup10\n        /* \"#utility.yul\":14357:14376   */\n      add\n        /* \"#utility.yul\":14351:14377   */\n      mload\n        /* \"#utility.yul\":14343:14349   */\n      dup3\n        /* \"#utility.yul\":14336:14378   */\n      sstore\n        /* \"#utility.yul\":14417:14418   */\n      0x01\n        /* \"#utility.yul\":14409:14415   */\n      dup3\n        /* \"#utility.yul\":14405:14419   */\n      add\n        /* \"#utility.yul\":14395:14419   */\n      swap2\n      pop\n        /* \"#utility.yul\":14464:14466   */\n      0x20\n        /* \"#utility.yul\":14453:14462   */\n      dup6\n        /* \"#utility.yul\":14449:14467   */\n      add\n        /* \"#utility.yul\":14436:14467   */\n      swap5\n      pop\n        /* \"#utility.yul\":14310:14314   */\n      0x20\n        /* \"#utility.yul\":14307:14308   */\n      dup2\n        /* \"#utility.yul\":14303:14315   */\n      add\n        /* \"#utility.yul\":14298:14315   */\n      swap1\n      pop\n        /* \"#utility.yul\":14273:14481   */\n      jump(tag_347)\n    tag_349:\n        /* \"#utility.yul\":14509:14515   */\n      dup7\n        /* \"#utility.yul\":14500:14507   */\n      dup4\n        /* \"#utility.yul\":14497:14516   */\n      lt\n        /* \"#utility.yul\":14494:14673   */\n      iszero\n      tag_350\n      jumpi\n        /* \"#utility.yul\":14567:14576   */\n      dup5\n        /* \"#utility.yul\":14562:14565   */\n      dup10\n        /* \"#utility.yul\":14558:14577   */\n      add\n        /* \"#utility.yul\":14552:14578   */\n      mload\n        /* \"#utility.yul\":14610:14658   */\n      tag_351\n        /* \"#utility.yul\":14652:14656   */\n      0x1f\n        /* \"#utility.yul\":14644:14650   */\n      dup10\n        /* \"#utility.yul\":14640:14657   */\n      and\n        /* \"#utility.yul\":14629:14638   */\n      dup3\n        /* \"#utility.yul\":14610:14658   */\n      tag_175\n      jump\t// in\n    tag_351:\n        /* \"#utility.yul\":14602:14608   */\n      dup4\n        /* \"#utility.yul\":14595:14659   */\n      sstore\n        /* \"#utility.yul\":14517:14673   */\n      pop\n        /* \"#utility.yul\":14494:14673   */\n    tag_350:\n        /* \"#utility.yul\":14719:14720   */\n      0x01\n        /* \"#utility.yul\":14715:14716   */\n      0x02\n        /* \"#utility.yul\":14707:14713   */\n      dup9\n        /* \"#utility.yul\":14703:14717   */\n      mul\n        /* \"#utility.yul\":14699:14721   */\n      add\n        /* \"#utility.yul\":14693:14697   */\n      dup9\n        /* \"#utility.yul\":14686:14722   */\n      sstore\n        /* \"#utility.yul\":14121:14732   */\n      pop\n      pop\n      pop\n        /* \"#utility.yul\":14084:14971   */\n    tag_342:\n      pop\n        /* \"#utility.yul\":13674:14977   */\n      pop\n      pop\n      pop\n        /* \"#utility.yul\":13582:14977   */\n      pop\n      pop\n      jump\t// out\n        /* \"#utility.yul\":14983:15216   */\n    tag_119:\n        /* \"#utility.yul\":15022:15025   */\n      0x00\n        /* \"#utility.yul\":15045:15069   */\n      tag_353\n        /* \"#utility.yul\":15063:15068   */\n      dup3\n        /* \"#utility.yul\":15045:15069   */\n      tag_130\n      jump\t// in\n    tag_353:\n        /* \"#utility.yul\":15036:15069   */\n      swap2\n      pop\n        /* \"#utility.yul\":15091:15157   */\n      0xffffffffffffffffffffffffffffffffffffffffffffffffffffffffffffffff\n        /* \"#utility.yul\":15084:15089   */\n      dup3\n        /* \"#utility.yul\":15081:15158   */\n      sub\n        /* \"#utility.yul\":15078:15181   */\n      tag_354\n      jumpi\n        /* \"#utility.yul\":15161:15179   */\n      tag_355\n      tag_160\n      jump\t// in\n    tag_355:\n        /* \"#utility.yul\":15078:15181   */\n    tag_354:\n        /* \"#utility.yul\":15208:15209   */\n      0x01\n        /* \"#utility.yul\":15201:15206   */\n      dup3\n        /* \"#utility.yul\":15197:15210   */\n      add\n        /* \"#utility.yul\":15190:15210   */\n      swap1\n      pop\n        /* \"#utility.yul\":14983:15216   */\n      swap2\n      swap1\n      pop\n      jump\t// out\n\n    auxdata: 0xa264697066735822122070adae6ec31f2ae95c71f5c7d5e9324be38d03ca237d75684cda7ae6283f9c3264736f6c634300081a0033\n}\n","bytecode":{"linkReferences":{},"object":"608060405234801561000f575f80fd5b5060405161133e38038061133e83398181016040528101906100319190610110565b8060015f6101000a81548173ffffffffffffffffffffffffffffffffffffffff021916908373ffffffffffffffffffffffffffffffffffffffff16021790555081600281905550505061014e565b5f80fd5b5f819050919050565b61009581610083565b811461009f575f80fd5b50565b5f815190506100b08161008c565b92915050565b5f73ffffffffffffffffffffffffffffffffffffffff82169050919050565b5f6100df826100b6565b9050919050565b6100ef816100d5565b81146100f9575f80fd5b50565b5f8151905061010a816100e6565b92915050565b5f80604083850312156101265761012561007f565b5b5f610133858286016100a2565b9250506020610144858286016100fc565b9150509250929050565b6111e38061015b5f395ff3fe6080604052600436106100a6575f3560e01c806382fde0931161006357806382fde093146101d05780638a9cfd55146101fa578063937e09b114610222578063c58343ef1461024c578063d7bb99ba14610288578063d7d1bbdb14610292576100a6565b806303441006146100aa5780630a144391146100d25780633410452a1461010e5780634051ddac14610138578063481c6a751461016657806381d12c5814610190575b5f80fd5b3480156100b5575f80fd5b506100d060048036038101906100cb9190610965565b6102ba565b005b3480156100dd575f80fd5b506100f860048036038101906100f391906109ea565b6103f8565b6040516101059190610a2f565b60405180910390f35b348015610119575f80fd5b50610122610415565b60405161012f9190610a57565b60405180910390f35b348015610143575f80fd5b5061014c610420565b60405161015d959493929190610a7f565b60405180910390f35b348015610171575f80fd5b5061017a610464565b6040516101879190610ad0565b60405180910390f35b34801561019b575f80fd5b506101b660048036038101906101b19190610965565b610489565b6040516101c7959493929190610b79565b60405180910390f35b3480156101db575f80fd5b506101e461057b565b6040516101f19190610a57565b60405180910390f35b348015610205575f80fd5b50610220600480360381019061021b9190610d27565b610581565b005b34801561022d575f80fd5b506102366106ad565b6040516102439190610a57565b60405180910390f35b348015610257575f80fd5b50610272600480360381019061026d9190610965565b6106b3565b60405161027f9190610d93565b60405180910390f35b610290610769565b005b34801561029d575f80fd5b506102b860048036038101906102b39190610965565b6107e4565b005b60015f9054906101000a900473ffffffffffffffffffffffffffffffffffffffff1673ffffffffffffffffffffffffffffffffffffffff163373ffffffffffffffffffffffffffffffffffffffff1614610312575f80fd5b5f80828154811061032657610325610db3565b5b905f5260205f209060050201905060026004546103439190610e3a565b816003015411610351575f80fd5b8060020160149054906101000a900460ff161561036c575f80fd5b806002015f9054906101000a900473ffffffffffffffffffffffffffffffffffffffff1673ffffffffffffffffffffffffffffffffffffffff166108fc826001015490811502906040515f60405180830381858888f193505050501580156103d6573d5f803e3d5ffd5b5060018160020160146101000a81548160ff0219169083151502179055505050565b6003602052805f5260405f205f915054906101000a900460ff1681565b5f8080549050905090565b5f805f805f600254475f8054905060045460015f9054906101000a900473ffffffffffffffffffffffffffffffffffffffff16945094509450945094509091929394565b60015f9054906101000a900473ffffffffffffffffffffffffffffffffffffffff1681565b5f8181548110610497575f80fd5b905f5260205f2090600502015f91509050805f0180546104b690610e97565b80601f01602080910402602001604051908101604052809291908181526020018280546104e290610e97565b801561052d5780601f106105045761010080835404028352916020019161052d565b820191905f5260205f20905b81548152906001019060200180831161051057829003601f168201915b505050505090806001015490806002015f9054906101000a900473ffffffffffffffffffffffffffffffffffffffff16908060020160149054906101000a900460ff16908060030154905085565b60045481565b60015f9054906101000a900473ffffffffffffffffffffffffffffffffffffffff1673ffffffffffffffffffffffffffffffffffffffff163373ffffffffffffffffffffffffffffffffffffffff16146105d9575f80fd5b5f60018160018154018082558091505003905f5260205f209050505f8060015f805490506106079190610ec7565b8154811061061857610617610db3565b5b905f5260205f209060050201905083815f0190816106369190611097565b5082816001018190555081816002015f6101000a81548173ffffffffffffffffffffffffffffffffffffffff021916908373ffffffffffffffffffffffffffffffffffffffff1602179055505f8160020160146101000a81548160ff0219169083151502179055505f816003018190555050505050565b60025481565b60605f8083815481106106c9576106c8610db3565b5b905f5260205f2090600502019050805f0180546106e590610e97565b80601f016020809104026020016040519081016040528092919081815260200182805461071190610e97565b801561075c5780601f106107335761010080835404028352916020019161075c565b820191905f5260205f20905b81548152906001019060200180831161073f57829003601f168201915b5050505050915050919050565b6002543411610776575f80fd5b600160035f3373ffffffffffffffffffffffffffffffffffffffff1673ffffffffffffffffffffffffffffffffffffffff1681526020019081526020015f205f6101000a81548160ff02191690831515021790555060045f8154809291906107dd90611166565b9190505550565b60035f3373ffffffffffffffffffffffffffffffffffffffff1673ffffffffffffffffffffffffffffffffffffffff1681526020019081526020015f205f9054906101000a900460ff16610836575f80fd5b5f80828154811061084a57610849610db3565b5b905f5260205f2090600502019050806004015f3373ffffffffffffffffffffffffffffffffffffffff1673ffffffffffffffffffffffffffffffffffffffff1681526020019081526020015f205f9054906101000a900460ff16156108ad575f80fd5b6001816004015f3373ffffffffffffffffffffffffffffffffffffffff1673ffffffffffffffffffffffffffffffffffffffff1681526020019081526020015f205f6101000a81548160ff021916908315150217905550806003015f81548092919061091890611166565b91905055505050565b5f604051905090565b5f80fd5b5f80fd5b5f819050919050565b61094481610932565b811461094e575f80fd5b50565b5f8135905061095f8161093b565b92915050565b5f6020828403121561097a5761097961092a565b5b5f61098784828501610951565b91505092915050565b5f73ffffffffffffffffffffffffffffffffffffffff82169050919050565b5f6109b982610990565b9050919050565b6109c9816109af565b81146109d3575f80fd5b50565b5f813590506109e4816109c0565b92915050565b5f602082840312156109ff576109fe61092a565b5b5f610a0c848285016109d6565b91505092915050565b5f8115159050919050565b610a2981610a15565b82525050565b5f602082019050610a425f830184610a20565b92915050565b610a5181610932565b82525050565b5f602082019050610a6a5f830184610a48565b92915050565b610a79816109af565b82525050565b5f60a082019050610a925f830188610a48565b610a9f6020830187610a48565b610aac6040830186610a48565b610ab96060830185610a48565b610ac66080830184610a70565b9695505050505050565b5f602082019050610ae35f830184610a70565b92915050565b5f81519050919050565b5f82825260208201905092915050565b8281835e5f83830152505050565b5f601f19601f8301169050919050565b5f610b2b82610ae9565b610b358185610af3565b9350610b45818560208601610b03565b610b4e81610b11565b840191505092915050565b5f610b6382610990565b9050919050565b610b7381610b59565b82525050565b5f60a0820190508181035f830152610b918188610b21565b9050610ba06020830187610a48565b610bad6040830186610b6a565b610bba6060830185610a20565b610bc76080830184610a48565b9695505050505050565b5f80fd5b5f80fd5b7f4e487b71000000000000000000000000000000000000000000000000000000005f52604160045260245ffd5b610c0f82610b11565b810181811067ffffffffffffffff82111715610c2e57610c2d610bd9565b5b80604052505050565b5f610c40610921565b9050610c4c8282610c06565b919050565b5f67ffffffffffffffff821115610c6b57610c6a610bd9565b5b610c7482610b11565b9050602081019050919050565b828183375f83830152505050565b5f610ca1610c9c84610c51565b610c37565b905082815260208101848484011115610cbd57610cbc610bd5565b5b610cc8848285610c81565b509392505050565b5f82601f830112610ce457610ce3610bd1565b5b8135610cf4848260208601610c8f565b91505092915050565b610d0681610b59565b8114610d10575f80fd5b50565b5f81359050610d2181610cfd565b92915050565b5f805f60608486031215610d3e57610d3d61092a565b5b5f84013567ffffffffffffffff811115610d5b57610d5a61092e565b5b610d6786828701610cd0565b9350506020610d7886828701610951565b9250506040610d8986828701610d13565b9150509250925092565b5f6020820190508181035f830152610dab8184610b21565b905092915050565b7f4e487b71000000000000000000000000000000000000000000000000000000005f52603260045260245ffd5b7f4e487b71000000000000000000000000000000000000000000000000000000005f52601260045260245ffd5b7f4e487b71000000000000000000000000000000000000000000000000000000005f52601160045260245ffd5b5f610e4482610932565b9150610e4f83610932565b925082610e5f57610e5e610de0565b5b828204905092915050565b7f4e487b71000000000000000000000000000000000000000000000000000000005f52602260045260245ffd5b5f6002820490506001821680610eae57607f821691505b602082108103610ec157610ec0610e6a565b5b50919050565b5f610ed182610932565b9150610edc83610932565b9250828203905081811115610ef457610ef3610e0d565b5b92915050565b5f819050815f5260205f209050919050565b5f6020601f8301049050919050565b5f82821b905092915050565b5f60088302610f567fffffffffffffffffffffffffffffffffffffffffffffffffffffffffffffffff82610f1b565b610f608683610f1b565b95508019841693508086168417925050509392505050565b5f819050919050565b5f610f9b610f96610f9184610932565b610f78565b610932565b9050919050565b5f819050919050565b610fb483610f81565b610fc8610fc082610fa2565b848454610f27565b825550505050565b5f90565b610fdc610fd0565b610fe7818484610fab565b505050565b5b8181101561100a57610fff5f82610fd4565b600181019050610fed565b5050565b601f82111561104f5761102081610efa565b61102984610f0c565b81016020851015611038578190505b61104c61104485610f0c565b830182610fec565b50505b505050565b5f82821c905092915050565b5f61106f5f1984600802611054565b1980831691505092915050565b5f6110878383611060565b9150826002028217905092915050565b6110a082610ae9565b67ffffffffffffffff8111156110b9576110b8610bd9565b5b6110c38254610e97565b6110ce82828561100e565b5f60209050601f8311600181146110ff575f84156110ed578287015190505b6110f7858261107c565b86555061115e565b601f19841661110d86610efa565b5f5b828110156111345784890151825560018201915060208501945060208101905061110f565b86831015611151578489015161114d601f891682611060565b8355505b6001600288020188555050505b505050505050565b5f61117082610932565b91507fffffffffffffffffffffffffffffffffffffffffffffffffffffffffffffffff82036111a2576111a1610e0d565b5b60018201905091905056fea264697066735822122070adae6ec31f2ae95c71f5c7d5e9324be38d03ca237d75684cda7ae6283f9c3264736f6c634300081a0033","opcodes":"PUSH1 0x80 PUSH1 0x40 MSTORE CALLVALUE DUP1 ISZERO PUSH2 0xF JUMPI PUSH0 DUP1 REVERT JUMPDEST POP PUSH1 0x40 MLOAD PUSH2 0x133E CODESIZE SUB DUP1 PUSH2 0x133E DUP4 CODECOPY DUP2 DUP2 ADD PUSH1 0x40 MSTORE DUP2 ADD SWAP1 PUSH2 0x31 SWAP2 SWAP1 PUSH2 0x110 JUMP JUMPDEST DUP1 PUSH1 0x1 PUSH0 PUSH2 0x100 EXP DUP2 SLOAD DUP2 PUSH20 0xFFFFFFFFFFFFFFFFFFFFFFFFFFFFFFFFFFFFFFFF MUL NOT AND SWAP1 DUP4 PUSH20 0xFFFFFFFFFFFFFFFFFFFFFFFFFFFFFFFFFFFFFFFF AND MUL OR SWAP1 SSTORE POP DUP2 PUSH1 0x2 DUP2 SWAP1 SSTORE POP POP POP PUSH2 0x14E JUMP JUMPDEST PUSH0 DUP1 REVERT JUMPDEST PUSH0 DUP2 SWAP1 POP SWAP2 SWAP1 POP JUMP JUMPDEST PUSH2 0x95 DUP2 PUSH2 0x83 JUMP JUMPDEST DUP2 EQ PUSH2 0x9F JUMPI PUSH0 DUP1 REVERT JUMPDEST POP JUMP JUMPDEST PUSH0 DUP2 MLOAD SWAP1 POP PUSH2 0xB0 DUP2 PUSH2 0x8C JUMP JUMPDEST SWAP3 SWAP2 POP POP JUMP JUMPDEST PUSH0 PUSH20 0xFFFFFFFFFFFFFFFFFFFFFFFFFFFFFFFFFFFFFFFF DUP3 AND SWAP1 POP SWAP2 SWAP1 POP JUMP JUMPDEST PUSH0 PUSH2 0xDF DUP3 PUSH2 0xB6 JUMP JUMPDEST SWAP1 POP SWAP2 SWAP1 POP JUMP JUMPDEST PUSH2 0xEF DUP2 PUSH2 0xD5 JUMP JUMPDEST DUP2 EQ PUSH2 0xF9 JUMPI PUSH0 DUP1 REVERT JUMPDEST POP JUMP JUMPDEST PUSH0 DUP2 MLOAD SWAP1 POP PUSH2 0x10A DUP2 PUSH2 0xE6 JUMP JUMPDEST SWAP3 SWAP2 POP POP JUMP JUMPDEST PUSH0 DUP1 PUSH1 0x40 DUP4 DUP6 SUB SLT ISZERO PUSH2 0x126 JUMPI PUSH2 0x125 PUSH2 0x7F JUMP JUMPDEST JUMPDEST PUSH0 PUSH2 0x133 DUP6 DUP3 DUP7 ADD PUSH2 0xA2 JUMP JUMPDEST SWAP3 POP POP PUSH1 0x20 PUSH2 0x144 DUP6 DUP3 DUP7 ADD PUSH2 0xFC JUMP JUMPDEST SWAP2 POP POP SWAP3 POP SWAP3 SWAP1 POP JUMP JUMPDEST PUSH2 0x11E3 DUP1 PUSH2 0x15B PUSH0 CODECOPY PUSH0 RETURN INVALID PUSH1 0x80 PUSH1 0x40 MSTORE PUSH1 0x4 CALLDATASIZE LT PUSH2 0xA6 JUMPI PUSH0 CALLDATALOAD PUSH1 0xE0 SHR DUP1 PUSH4 0x82FDE093 GT PUSH2 0x63 JUMPI DUP1 PUSH4 0x82FDE093 EQ PUSH2 0x1D0 JUMPI DUP1 PUSH4 0x8A9CFD55 EQ PUSH2 0x1FA JUMPI DUP1 PUSH4 0x937E09B1 EQ PUSH2 0x222 JUMPI DUP1 PUSH4 0xC58343EF EQ PUSH2 0x24C JUMPI DUP1 PUSH4 0xD7BB99BA EQ PUSH2 0x288 JUMPI DUP1 PUSH4 0xD7D1BBDB EQ PUSH2 0x292 JUMPI PUSH2 0xA6 JUMP JUMPDEST DUP1 PUSH4 0x3441006 EQ PUSH2 0xAA JUMPI DUP1 PUSH4 0xA144391 EQ PUSH2 0xD2 JUMPI DUP1 PUSH4 0x3410452A EQ PUSH2 0x10E JUMPI DUP1 PUSH4 0x4051DDAC EQ PUSH2 0x138 JUMPI DUP1 PUSH4 0x481C6A75 EQ PUSH2 0x166 JUMPI DUP1 PUSH4 0x81D12C58 EQ PUSH2 0x190 JUMPI JUMPDEST PUSH0 DUP1 REVERT JUMPDEST CALLVALUE DUP1 ISZERO PUSH2 0xB5 JUMPI PUSH0 DUP1 REVERT JUMPDEST POP PUSH2 0xD0 PUSH1 0x4 DUP1 CALLDATASIZE SUB DUP2 ADD SWAP1 PUSH2 0xCB SWAP2 SWAP1 PUSH2 0x965 JUMP JUMPDEST PUSH2 0x2BA JUMP JUMPDEST STOP JUMPDEST CALLVALUE DUP1 ISZERO PUSH2 0xDD JUMPI PUSH0 DUP1 REVERT JUMPDEST POP PUSH2 0xF8 PUSH1 0x4 DUP1 CALLDATASIZE SUB DUP2 ADD SWAP1 PUSH2 0xF3 SWAP2 SWAP1 PUSH2 0x9EA JUMP JUMPDEST PUSH2 0x3F8 JUMP JUMPDEST PUSH1 0x40 MLOAD PUSH2 0x105 SWAP2 SWAP1 PUSH2 0xA2F JUMP JUMPDEST PUSH1 0x40 MLOAD DUP1 SWAP2 SUB SWAP1 RETURN JUMPDEST CALLVALUE DUP1 ISZERO PUSH2 0x119 JUMPI PUSH0 DUP1 REVERT JUMPDEST POP PUSH2 0x122 PUSH2 0x415 JUMP JUMPDEST PUSH1 0x40 MLOAD PUSH2 0x12F SWAP2 SWAP1 PUSH2 0xA57 JUMP JUMPDEST PUSH1 0x40 MLOAD DUP1 SWAP2 SUB SWAP1 RETURN JUMPDEST CALLVALUE DUP1 ISZERO PUSH2 0x143 JUMPI PUSH0 DUP1 REVERT JUMPDEST POP PUSH2 0x14C PUSH2 0x420 JUMP JUMPDEST PUSH1 0x40 MLOAD PUSH2 0x15D SWAP6 SWAP5 SWAP4 SWAP3 SWAP2 SWAP1 PUSH2 0xA7F JUMP JUMPDEST PUSH1 0x40 MLOAD DUP1 SWAP2 SUB SWAP1 RETURN JUMPDEST CALLVALUE DUP1 ISZERO PUSH2 0x171 JUMPI PUSH0 DUP1 REVERT JUMPDEST POP PUSH2 0x17A PUSH2 0x464 JUMP JUMPDEST PUSH1 0x40 MLOAD PUSH2 0x187 SWAP2 SWAP1 PUSH2 0xAD0 JUMP JUMPDEST PUSH1 0x40 MLOAD DUP1 SWAP2 SUB SWAP1 RETURN JUMPDEST CALLVALUE DUP1 ISZERO PUSH2 0x19B JUMPI PUSH0 DUP1 REVERT JUMPDEST POP PUSH2 0x1B6 PUSH1 0x4 DUP1 CALLDATASIZE SUB DUP2 ADD SWAP1 PUSH2 0x1B1 SWAP2 SWAP1 PUSH2 0x965 JUMP JUMPDEST PUSH2 0x489 JUMP JUMPDEST PUSH1 0x40 MLOAD PUSH2 0x1C7 SWAP6 SWAP5 SWAP4 SWAP3 SWAP2 SWAP1 PUSH2 0xB79 JUMP JUMPDEST PUSH1 0x40 MLOAD DUP1 SWAP2 SUB SWAP1 RETURN JUMPDEST CALLVALUE DUP1 ISZERO PUSH2 0x1DB JUMPI PUSH0 DUP1 REVERT JUMPDEST POP PUSH2 0x1E4 PUSH2 0x57B JUMP JUMPDEST PUSH1 0x40 MLOAD PUSH2 0x1F1 SWAP2 SWAP1 PUSH2 0xA57 JUMP JUMPDEST PUSH1 0x40 MLOAD DUP1 SWAP2 SUB SWAP1 RETURN JUMPDEST CALLVALUE DUP1 ISZERO PUSH2 0x205 JUMPI PUSH0 DUP1 REVERT JUMPDEST POP PUSH2 0x220 PUSH1 0x4 DUP1 CALLDATASIZE SUB DUP2 ADD SWAP1 PUSH2 0x21B SWAP2 SWAP1 PUSH2 0xD27 JUMP JUMPDEST PUSH2 0x581 JUMP JUMPDEST STOP JUMPDEST CALLVALUE DUP1 ISZERO PUSH2 0x22D JUMPI PUSH0 DUP1 REVERT JUMPDEST POP PUSH2 0x236 PUSH2 0x6AD JUMP JUMPDEST PUSH1 0x40 MLOAD PUSH2 0x243 SWAP2 SWAP1 PUSH2 0xA57 JUMP JUMPDEST PUSH1 0x40 MLOAD DUP1 SWAP2 SUB SWAP1 RETURN JUMPDEST CALLVALUE DUP1 ISZERO PUSH2 0x257 JUMPI PUSH0 DUP1 REVERT JUMPDEST POP PUSH2 0x272 PUSH1 0x4 DUP1 CALLDATASIZE SUB DUP2 ADD SWAP1 PUSH2 0x26D SWAP2 SWAP1 PUSH2 0x965 JUMP JUMPDEST PUSH2 0x6B3 JUMP JUMPDEST PUSH1 0x40 MLOAD PUSH2 0x27F SWAP2 SWAP1 PUSH2 0xD93 JUMP JUMPDEST PUSH1 0x40 MLOAD DUP1 SWAP2 SUB SWAP1 RETURN JUMPDEST PUSH2 0x290 PUSH2 0x769 JUMP JUMPDEST STOP JUMPDEST CALLVALUE DUP1 ISZERO PUSH2 0x29D JUMPI PUSH0 DUP1 REVERT JUMPDEST POP PUSH2 0x2B8 PUSH1 0x4 DUP1 CALLDATASIZE SUB DUP2 ADD SWAP1 PUSH2 0x2B3 SWAP2 SWAP1 PUSH2 0x965 JUMP JUMPDEST PUSH2 0x7E4 JUMP JUMPDEST STOP JUMPDEST PUSH1 0x1 PUSH0 SWAP1 SLOAD SWAP1 PUSH2 0x100 EXP SWAP1 DIV PUSH20 0xFFFFFFFFFFFFFFFFFFFFFFFFFFFFFFFFFFFFFFFF AND PUSH20 0xFFFFFFFFFFFFFFFFFFFFFFFFFFFFFFFFFFFFFFFF AND CALLER PUSH20 0xFFFFFFFFFFFFFFFFFFFFFFFFFFFFFFFFFFFFFFFF AND EQ PUSH2 0x312 JUMPI PUSH0 DUP1 REVERT JUMPDEST PUSH0 DUP1 DUP3 DUP2 SLOAD DUP2 LT PUSH2 0x326 JUMPI PUSH2 0x325 PUSH2 0xDB3 JUMP JUMPDEST JUMPDEST SWAP1 PUSH0 MSTORE PUSH1 0x20 PUSH0 KECCAK256 SWAP1 PUSH1 0x5 MUL ADD SWAP1 POP PUSH1 0x2 PUSH1 0x4 SLOAD PUSH2 0x343 SWAP2 SWAP1 PUSH2 0xE3A JUMP JUMPDEST DUP2 PUSH1 0x3 ADD SLOAD GT PUSH2 0x351 JUMPI PUSH0 DUP1 REVERT JUMPDEST DUP1 PUSH1 0x2 ADD PUSH1 0x14 SWAP1 SLOAD SWAP1 PUSH2 0x100 EXP SWAP1 DIV PUSH1 0xFF AND ISZERO PUSH2 0x36C JUMPI PUSH0 DUP1 REVERT JUMPDEST DUP1 PUSH1 0x2 ADD PUSH0 SWAP1 SLOAD SWAP1 PUSH2 0x100 EXP SWAP1 DIV PUSH20 0xFFFFFFFFFFFFFFFFFFFFFFFFFFFFFFFFFFFFFFFF AND PUSH20 0xFFFFFFFFFFFFFFFFFFFFFFFFFFFFFFFFFFFFFFFF AND PUSH2 0x8FC DUP3 PUSH1 0x1 ADD SLOAD SWAP1 DUP2 ISZERO MUL SWAP1 PUSH1 0x40 MLOAD PUSH0 PUSH1 0x40 MLOAD DUP1 DUP4 SUB DUP2 DUP6 DUP9 DUP9 CALL SWAP4 POP POP POP POP ISZERO DUP1 ISZERO PUSH2 0x3D6 JUMPI RETURNDATASIZE PUSH0 DUP1 RETURNDATACOPY RETURNDATASIZE PUSH0 REVERT JUMPDEST POP PUSH1 0x1 DUP2 PUSH1 0x2 ADD PUSH1 0x14 PUSH2 0x100 EXP DUP2 SLOAD DUP2 PUSH1 0xFF MUL NOT AND SWAP1 DUP4 ISZERO ISZERO MUL OR SWAP1 SSTORE POP POP POP JUMP JUMPDEST PUSH1 0x3 PUSH1 0x20 MSTORE DUP1 PUSH0 MSTORE PUSH1 0x40 PUSH0 KECCAK256 PUSH0 SWAP2 POP SLOAD SWAP1 PUSH2 0x100 EXP SWAP1 DIV PUSH1 0xFF AND DUP2 JUMP JUMPDEST PUSH0 DUP1 DUP1 SLOAD SWAP1 POP SWAP1 POP SWAP1 JUMP JUMPDEST PUSH0 DUP1 PUSH0 DUP1 PUSH0 PUSH1 0x2 SLOAD SELFBALANCE PUSH0 DUP1 SLOAD SWAP1 POP PUSH1 0x4 SLOAD PUSH1 0x1 PUSH0 SWAP1 SLOAD SWAP1 PUSH2 0x100 EXP SWAP1 DIV PUSH20 0xFFFFFFFFFFFFFFFFFFFFFFFFFFFFFFFFFFFFFFFF AND SWAP5 POP SWAP5 POP SWAP5 POP SWAP5 POP SWAP5 POP SWAP1 SWAP2 SWAP3 SWAP4 SWAP5 JUMP JUMPDEST PUSH1 0x1 PUSH0 SWAP1 SLOAD SWAP1 PUSH2 0x100 EXP SWAP1 DIV PUSH20 0xFFFFFFFFFFFFFFFFFFFFFFFFFFFFFFFFFFFFFFFF AND DUP2 JUMP JUMPDEST PUSH0 DUP2 DUP2 SLOAD DUP2 LT PUSH2 0x497 JUMPI PUSH0 DUP1 REVERT JUMPDEST SWAP1 PUSH0 MSTORE PUSH1 0x20 PUSH0 KECCAK256 SWAP1 PUSH1 0x5 MUL ADD PUSH0 SWAP2 POP SWAP1 POP DUP1 PUSH0 ADD DUP1 SLOAD PUSH2 0x4B6 SWAP1 PUSH2 0xE97 JUMP JUMPDEST DUP1 PUSH1 0x1F ADD PUSH1 0x20 DUP1 SWAP2 DIV MUL PUSH1 0x20 ADD PUSH1 0x40 MLOAD SWAP1 DUP2 ADD PUSH1 0x40 MSTORE DUP1 SWAP3 SWAP2 SWAP1 DUP2 DUP2 MSTORE PUSH1 0x20 ADD DUP3 DUP1 SLOAD PUSH2 0x4E2 SWAP1 PUSH2 0xE97 JUMP JUMPDEST DUP1 ISZERO PUSH2 0x52D JUMPI DUP1 PUSH1 0x1F LT PUSH2 0x504 JUMPI PUSH2 0x100 DUP1 DUP4 SLOAD DIV MUL DUP4 MSTORE SWAP2 PUSH1 0x20 ADD SWAP2 PUSH2 0x52D JUMP JUMPDEST DUP3 ADD SWAP2 SWAP1 PUSH0 MSTORE PUSH1 0x20 PUSH0 KECCAK256 SWAP1 JUMPDEST DUP2 SLOAD DUP2 MSTORE SWAP1 PUSH1 0x1 ADD SWAP1 PUSH1 0x20 ADD DUP1 DUP4 GT PUSH2 0x510 JUMPI DUP3 SWAP1 SUB PUSH1 0x1F AND DUP3 ADD SWAP2 JUMPDEST POP POP POP POP POP SWAP1 DUP1 PUSH1 0x1 ADD SLOAD SWAP1 DUP1 PUSH1 0x2 ADD PUSH0 SWAP1 SLOAD SWAP1 PUSH2 0x100 EXP SWAP1 DIV PUSH20 0xFFFFFFFFFFFFFFFFFFFFFFFFFFFFFFFFFFFFFFFF AND SWAP1 DUP1 PUSH1 0x2 ADD PUSH1 0x14 SWAP1 SLOAD SWAP1 PUSH2 0x100 EXP SWAP1 DIV PUSH1 0xFF AND SWAP1 DUP1 PUSH1 0x3 ADD SLOAD SWAP1 POP DUP6 JUMP JUMPDEST PUSH1 0x4 SLOAD DUP2 JUMP JUMPDEST PUSH1 0x1 PUSH0 SWAP1 SLOAD SWAP1 PUSH2 0x100 EXP SWAP1 DIV PUSH20 0xFFFFFFFFFFFFFFFFFFFFFFFFFFFFFFFFFFFFFFFF AND PUSH20 0xFFFFFFFFFFFFFFFFFFFFFFFFFFFFFFFFFFFFFFFF AND CALLER PUSH20 0xFFFFFFFFFFFFFFFFFFFFFFFFFFFFFFFFFFFFFFFF AND EQ PUSH2 0x5D9 JUMPI PUSH0 DUP1 REVERT JUMPDEST PUSH0 PUSH1 0x1 DUP2 PUSH1 0x1 DUP2 SLOAD ADD DUP1 DUP3 SSTORE DUP1 SWAP2 POP POP SUB SWAP1 PUSH0 MSTORE PUSH1 0x20 PUSH0 KECCAK256 SWAP1 POP POP PUSH0 DUP1 PUSH1 0x1 PUSH0 DUP1 SLOAD SWAP1 POP PUSH2 0x607 SWAP2 SWAP1 PUSH2 0xEC7 JUMP JUMPDEST DUP2 SLOAD DUP2 LT PUSH2 0x618 JUMPI PUSH2 0x617 PUSH2 0xDB3 JUMP JUMPDEST JUMPDEST SWAP1 PUSH0 MSTORE PUSH1 0x20 PUSH0 KECCAK256 SWAP1 PUSH1 0x5 MUL ADD SWAP1 POP DUP4 DUP2 PUSH0 ADD SWAP1 DUP2 PUSH2 0x636 SWAP2 SWAP1 PUSH2 0x1097 JUMP JUMPDEST POP DUP3 DUP2 PUSH1 0x1 ADD DUP2 SWAP1 SSTORE POP DUP2 DUP2 PUSH1 0x2 ADD PUSH0 PUSH2 0x100 EXP DUP2 SLOAD DUP2 PUSH20 0xFFFFFFFFFFFFFFFFFFFFFFFFFFFFFFFFFFFFFFFF MUL NOT AND SWAP1 DUP4 PUSH20 0xFFFFFFFFFFFFFFFFFFFFFFFFFFFFFFFFFFFFFFFF AND MUL OR SWAP1 SSTORE POP PUSH0 DUP2 PUSH1 0x2 ADD PUSH1 0x14 PUSH2 0x100 EXP DUP2 SLOAD DUP2 PUSH1 0xFF MUL NOT AND SWAP1 DUP4 ISZERO ISZERO MUL OR SWAP1 SSTORE POP PUSH0 DUP2 PUSH1 0x3 ADD DUP2 SWAP1 SSTORE POP POP POP POP POP JUMP JUMPDEST PUSH1 0x2 SLOAD DUP2 JUMP JUMPDEST PUSH1 0x60 PUSH0 DUP1 DUP4 DUP2 SLOAD DUP2 LT PUSH2 0x6C9 JUMPI PUSH2 0x6C8 PUSH2 0xDB3 JUMP JUMPDEST JUMPDEST SWAP1 PUSH0 MSTORE PUSH1 0x20 PUSH0 KECCAK256 SWAP1 PUSH1 0x5 MUL ADD SWAP1 POP DUP1 PUSH0 ADD DUP1 SLOAD PUSH2 0x6E5 SWAP1 PUSH2 0xE97 JUMP JUMPDEST DUP1 PUSH1 0x1F ADD PUSH1 0x20 DUP1 SWAP2 DIV MUL PUSH1 0x20 ADD PUSH1 0x40 MLOAD SWAP1 DUP2 ADD PUSH1 0x40 MSTORE DUP1 SWAP3 SWAP2 SWAP1 DUP2 DUP2 MSTORE PUSH1 0x20 ADD DUP3 DUP1 SLOAD PUSH2 0x711 SWAP1 PUSH2 0xE97 JUMP JUMPDEST DUP1 ISZERO PUSH2 0x75C JUMPI DUP1 PUSH1 0x1F LT PUSH2 0x733 JUMPI PUSH2 0x100 DUP1 DUP4 SLOAD DIV MUL DUP4 MSTORE SWAP2 PUSH1 0x20 ADD SWAP2 PUSH2 0x75C JUMP JUMPDEST DUP3 ADD SWAP2 SWAP1 PUSH0 MSTORE PUSH1 0x20 PUSH0 KECCAK256 SWAP1 JUMPDEST DUP2 SLOAD DUP2 MSTORE SWAP1 PUSH1 0x1 ADD SWAP1 PUSH1 0x20 ADD DUP1 DUP4 GT PUSH2 0x73F JUMPI DUP3 SWAP1 SUB PUSH1 0x1F AND DUP3 ADD SWAP2 JUMPDEST POP POP POP POP POP SWAP2 POP POP SWAP2 SWAP1 POP JUMP JUMPDEST PUSH1 0x2 SLOAD CALLVALUE GT PUSH2 0x776 JUMPI PUSH0 DUP1 REVERT JUMPDEST PUSH1 0x1 PUSH1 0x3 PUSH0 CALLER PUSH20 0xFFFFFFFFFFFFFFFFFFFFFFFFFFFFFFFFFFFFFFFF AND PUSH20 0xFFFFFFFFFFFFFFFFFFFFFFFFFFFFFFFFFFFFFFFF AND DUP2 MSTORE PUSH1 0x20 ADD SWAP1 DUP2 MSTORE PUSH1 0x20 ADD PUSH0 KECCAK256 PUSH0 PUSH2 0x100 EXP DUP2 SLOAD DUP2 PUSH1 0xFF MUL NOT AND SWAP1 DUP4 ISZERO ISZERO MUL OR SWAP1 SSTORE POP PUSH1 0x4 PUSH0 DUP2 SLOAD DUP1 SWAP3 SWAP2 SWAP1 PUSH2 0x7DD SWAP1 PUSH2 0x1166 JUMP JUMPDEST SWAP2 SWAP1 POP SSTORE POP JUMP JUMPDEST PUSH1 0x3 PUSH0 CALLER PUSH20 0xFFFFFFFFFFFFFFFFFFFFFFFFFFFFFFFFFFFFFFFF AND PUSH20 0xFFFFFFFFFFFFFFFFFFFFFFFFFFFFFFFFFFFFFFFF AND DUP2 MSTORE PUSH1 0x20 ADD SWAP1 DUP2 MSTORE PUSH1 0x20 ADD PUSH0 KECCAK256 PUSH0 SWAP1 SLOAD SWAP1 PUSH2 0x100 EXP SWAP1 DIV PUSH1 0xFF AND PUSH2 0x836 JUMPI PUSH0 DUP1 REVERT JUMPDEST PUSH0 DUP1 DUP3 DUP2 SLOAD DUP2 LT PUSH2 0x84A JUMPI PUSH2 0x849 PUSH2 0xDB3 JUMP JUMPDEST JUMPDEST SWAP1 PUSH0 MSTORE PUSH1 0x20 PUSH0 KECCAK256 SWAP1 PUSH1 0x5 MUL ADD SWAP1 POP DUP1 PUSH1 0x4 ADD PUSH0 CALLER PUSH20 0xFFFFFFFFFFFFFFFFFFFFFFFFFFFFFFFFFFFFFFFF AND PUSH20 0xFFFFFFFFFFFFFFFFFFFFFFFFFFFFFFFFFFFFFFFF AND DUP2 MSTORE PUSH1 0x20 ADD SWAP1 DUP2 MSTORE PUSH1 0x20 ADD PUSH0 KECCAK256 PUSH0 SWAP1 SLOAD SWAP1 PUSH2 0x100 EXP SWAP1 DIV PUSH1 0xFF AND ISZERO PUSH2 0x8AD JUMPI PUSH0 DUP1 REVERT JUMPDEST PUSH1 0x1 DUP2 PUSH1 0x4 ADD PUSH0 CALLER PUSH20 0xFFFFFFFFFFFFFFFFFFFFFFFFFFFFFFFFFFFFFFFF AND PUSH20 0xFFFFFFFFFFFFFFFFFFFFFFFFFFFFFFFFFFFFFFFF AND DUP2 MSTORE PUSH1 0x20 ADD SWAP1 DUP2 MSTORE PUSH1 0x20 ADD PUSH0 KECCAK256 PUSH0 PUSH2 0x100 EXP DUP2 SLOAD DUP2 PUSH1 0xFF MUL NOT AND SWAP1 DUP4 ISZERO ISZERO MUL OR SWAP1 SSTORE POP DUP1 PUSH1 0x3 ADD PUSH0 DUP2 SLOAD DUP1 SWAP3 SWAP2 SWAP1 PUSH2 0x918 SWAP1 PUSH2 0x1166 JUMP JUMPDEST SWAP2 SWAP1 POP SSTORE POP POP POP JUMP JUMPDEST PUSH0 PUSH1 0x40 MLOAD SWAP1 POP SWAP1 JUMP JUMPDEST PUSH0 DUP1 REVERT JUMPDEST PUSH0 DUP1 REVERT JUMPDEST PUSH0 DUP2 SWAP1 POP SWAP2 SWAP1 POP JUMP JUMPDEST PUSH2 0x944 DUP2 PUSH2 0x932 JUMP JUMPDEST DUP2 EQ PUSH2 0x94E JUMPI PUSH0 DUP1 REVERT JUMPDEST POP JUMP JUMPDEST PUSH0 DUP2 CALLDATALOAD SWAP1 POP PUSH2 0x95F DUP2 PUSH2 0x93B JUMP JUMPDEST SWAP3 SWAP2 POP POP JUMP JUMPDEST PUSH0 PUSH1 0x20 DUP3 DUP5 SUB SLT ISZERO PUSH2 0x97A JUMPI PUSH2 0x979 PUSH2 0x92A JUMP JUMPDEST JUMPDEST PUSH0 PUSH2 0x987 DUP5 DUP3 DUP6 ADD PUSH2 0x951 JUMP JUMPDEST SWAP2 POP POP SWAP3 SWAP2 POP POP JUMP JUMPDEST PUSH0 PUSH20 0xFFFFFFFFFFFFFFFFFFFFFFFFFFFFFFFFFFFFFFFF DUP3 AND SWAP1 POP SWAP2 SWAP1 POP JUMP JUMPDEST PUSH0 PUSH2 0x9B9 DUP3 PUSH2 0x990 JUMP JUMPDEST SWAP1 POP SWAP2 SWAP1 POP JUMP JUMPDEST PUSH2 0x9C9 DUP2 PUSH2 0x9AF JUMP JUMPDEST DUP2 EQ PUSH2 0x9D3 JUMPI PUSH0 DUP1 REVERT JUMPDEST POP JUMP JUMPDEST PUSH0 DUP2 CALLDATALOAD SWAP1 POP PUSH2 0x9E4 DUP2 PUSH2 0x9C0 JUMP JUMPDEST SWAP3 SWAP2 POP POP JUMP JUMPDEST PUSH0 PUSH1 0x20 DUP3 DUP5 SUB SLT ISZERO PUSH2 0x9FF JUMPI PUSH2 0x9FE PUSH2 0x92A JUMP JUMPDEST JUMPDEST PUSH0 PUSH2 0xA0C DUP5 DUP3 DUP6 ADD PUSH2 0x9D6 JUMP JUMPDEST SWAP2 POP POP SWAP3 SWAP2 POP POP JUMP JUMPDEST PUSH0 DUP2 ISZERO ISZERO SWAP1 POP SWAP2 SWAP1 POP JUMP JUMPDEST PUSH2 0xA29 DUP2 PUSH2 0xA15 JUMP JUMPDEST DUP3 MSTORE POP POP JUMP JUMPDEST PUSH0 PUSH1 0x20 DUP3 ADD SWAP1 POP PUSH2 0xA42 PUSH0 DUP4 ADD DUP5 PUSH2 0xA20 JUMP JUMPDEST SWAP3 SWAP2 POP POP JUMP JUMPDEST PUSH2 0xA51 DUP2 PUSH2 0x932 JUMP JUMPDEST DUP3 MSTORE POP POP JUMP JUMPDEST PUSH0 PUSH1 0x20 DUP3 ADD SWAP1 POP PUSH2 0xA6A PUSH0 DUP4 ADD DUP5 PUSH2 0xA48 JUMP JUMPDEST SWAP3 SWAP2 POP POP JUMP JUMPDEST PUSH2 0xA79 DUP2 PUSH2 0x9AF JUMP JUMPDEST DUP3 MSTORE POP POP JUMP JUMPDEST PUSH0 PUSH1 0xA0 DUP3 ADD SWAP1 POP PUSH2 0xA92 PUSH0 DUP4 ADD DUP9 PUSH2 0xA48 JUMP JUMPDEST PUSH2 0xA9F PUSH1 0x20 DUP4 ADD DUP8 PUSH2 0xA48 JUMP JUMPDEST PUSH2 0xAAC PUSH1 0x40 DUP4 ADD DUP7 PUSH2 0xA48 JUMP JUMPDEST PUSH2 0xAB9 PUSH1 0x60 DUP4 ADD DUP6 PUSH2 0xA48 JUMP JUMPDEST PUSH2 0xAC6 PUSH1 0x80 DUP4 ADD DUP5 PUSH2 0xA70 JUMP JUMPDEST SWAP7 SWAP6 POP POP POP POP POP POP JUMP JUMPDEST PUSH0 PUSH1 0x20 DUP3 ADD SWAP1 POP PUSH2 0xAE3 PUSH0 DUP4 ADD DUP5 PUSH2 0xA70 JUMP JUMPDEST SWAP3 SWAP2 POP POP JUMP JUMPDEST PUSH0 DUP2 MLOAD SWAP1 POP SWAP2 SWAP1 POP JUMP JUMPDEST PUSH0 DUP3 DUP3 MSTORE PUSH1 0x20 DUP3 ADD SWAP1 POP SWAP3 SWAP2 POP POP JUMP JUMPDEST DUP3 DUP2 DUP4 MCOPY PUSH0 DUP4 DUP4 ADD MSTORE POP POP POP JUMP JUMPDEST PUSH0 PUSH1 0x1F NOT PUSH1 0x1F DUP4 ADD AND SWAP1 POP SWAP2 SWAP1 POP JUMP JUMPDEST PUSH0 PUSH2 0xB2B DUP3 PUSH2 0xAE9 JUMP JUMPDEST PUSH2 0xB35 DUP2 DUP6 PUSH2 0xAF3 JUMP JUMPDEST SWAP4 POP PUSH2 0xB45 DUP2 DUP6 PUSH1 0x20 DUP7 ADD PUSH2 0xB03 JUMP JUMPDEST PUSH2 0xB4E DUP2 PUSH2 0xB11 JUMP JUMPDEST DUP5 ADD SWAP2 POP POP SWAP3 SWAP2 POP POP JUMP JUMPDEST PUSH0 PUSH2 0xB63 DUP3 PUSH2 0x990 JUMP JUMPDEST SWAP1 POP SWAP2 SWAP1 POP JUMP JUMPDEST PUSH2 0xB73 DUP2 PUSH2 0xB59 JUMP JUMPDEST DUP3 MSTORE POP POP JUMP JUMPDEST PUSH0 PUSH1 0xA0 DUP3 ADD SWAP1 POP DUP2 DUP2 SUB PUSH0 DUP4 ADD MSTORE PUSH2 0xB91 DUP2 DUP9 PUSH2 0xB21 JUMP JUMPDEST SWAP1 POP PUSH2 0xBA0 PUSH1 0x20 DUP4 ADD DUP8 PUSH2 0xA48 JUMP JUMPDEST PUSH2 0xBAD PUSH1 0x40 DUP4 ADD DUP7 PUSH2 0xB6A JUMP JUMPDEST PUSH2 0xBBA PUSH1 0x60 DUP4 ADD DUP6 PUSH2 0xA20 JUMP JUMPDEST PUSH2 0xBC7 PUSH1 0x80 DUP4 ADD DUP5 PUSH2 0xA48 JUMP JUMPDEST SWAP7 SWAP6 POP POP POP POP POP POP JUMP JUMPDEST PUSH0 DUP1 REVERT JUMPDEST PUSH0 DUP1 REVERT JUMPDEST PUSH32 0x4E487B7100000000000000000000000000000000000000000000000000000000 PUSH0 MSTORE PUSH1 0x41 PUSH1 0x4 MSTORE PUSH1 0x24 PUSH0 REVERT JUMPDEST PUSH2 0xC0F DUP3 PUSH2 0xB11 JUMP JUMPDEST DUP2 ADD DUP2 DUP2 LT PUSH8 0xFFFFFFFFFFFFFFFF DUP3 GT OR ISZERO PUSH2 0xC2E JUMPI PUSH2 0xC2D PUSH2 0xBD9 JUMP JUMPDEST JUMPDEST DUP1 PUSH1 0x40 MSTORE POP POP POP JUMP JUMPDEST PUSH0 PUSH2 0xC40 PUSH2 0x921 JUMP JUMPDEST SWAP1 POP PUSH2 0xC4C DUP3 DUP3 PUSH2 0xC06 JUMP JUMPDEST SWAP2 SWAP1 POP JUMP JUMPDEST PUSH0 PUSH8 0xFFFFFFFFFFFFFFFF DUP3 GT ISZERO PUSH2 0xC6B JUMPI PUSH2 0xC6A PUSH2 0xBD9 JUMP JUMPDEST JUMPDEST PUSH2 0xC74 DUP3 PUSH2 0xB11 JUMP JUMPDEST SWAP1 POP PUSH1 0x20 DUP2 ADD SWAP1 POP SWAP2 SWAP1 POP JUMP JUMPDEST DUP3 DUP2 DUP4 CALLDATACOPY PUSH0 DUP4 DUP4 ADD MSTORE POP POP POP JUMP JUMPDEST PUSH0 PUSH2 0xCA1 PUSH2 0xC9C DUP5 PUSH2 0xC51 JUMP JUMPDEST PUSH2 0xC37 JUMP JUMPDEST SWAP1 POP DUP3 DUP2 MSTORE PUSH1 0x20 DUP2 ADD DUP5 DUP5 DUP5 ADD GT ISZERO PUSH2 0xCBD JUMPI PUSH2 0xCBC PUSH2 0xBD5 JUMP JUMPDEST JUMPDEST PUSH2 0xCC8 DUP5 DUP3 DUP6 PUSH2 0xC81 JUMP JUMPDEST POP SWAP4 SWAP3 POP POP POP JUMP JUMPDEST PUSH0 DUP3 PUSH1 0x1F DUP4 ADD SLT PUSH2 0xCE4 JUMPI PUSH2 0xCE3 PUSH2 0xBD1 JUMP JUMPDEST JUMPDEST DUP2 CALLDATALOAD PUSH2 0xCF4 DUP5 DUP3 PUSH1 0x20 DUP7 ADD PUSH2 0xC8F JUMP JUMPDEST SWAP2 POP POP SWAP3 SWAP2 POP POP JUMP JUMPDEST PUSH2 0xD06 DUP2 PUSH2 0xB59 JUMP JUMPDEST DUP2 EQ PUSH2 0xD10 JUMPI PUSH0 DUP1 REVERT JUMPDEST POP JUMP JUMPDEST PUSH0 DUP2 CALLDATALOAD SWAP1 POP PUSH2 0xD21 DUP2 PUSH2 0xCFD JUMP JUMPDEST SWAP3 SWAP2 POP POP JUMP JUMPDEST PUSH0 DUP1 PUSH0 PUSH1 0x60 DUP5 DUP7 SUB SLT ISZERO PUSH2 0xD3E JUMPI PUSH2 0xD3D PUSH2 0x92A JUMP JUMPDEST JUMPDEST PUSH0 DUP5 ADD CALLDATALOAD PUSH8 0xFFFFFFFFFFFFFFFF DUP2 GT ISZERO PUSH2 0xD5B JUMPI PUSH2 0xD5A PUSH2 0x92E JUMP JUMPDEST JUMPDEST PUSH2 0xD67 DUP7 DUP3 DUP8 ADD PUSH2 0xCD0 JUMP JUMPDEST SWAP4 POP POP PUSH1 0x20 PUSH2 0xD78 DUP7 DUP3 DUP8 ADD PUSH2 0x951 JUMP JUMPDEST SWAP3 POP POP PUSH1 0x40 PUSH2 0xD89 DUP7 DUP3 DUP8 ADD PUSH2 0xD13 JUMP JUMPDEST SWAP2 POP POP SWAP3 POP SWAP3 POP SWAP3 JUMP JUMPDEST PUSH0 PUSH1 0x20 DUP3 ADD SWAP1 POP DUP2 DUP2 SUB PUSH0 DUP4 ADD MSTORE PUSH2 0xDAB DUP2 DUP5 PUSH2 0xB21 JUMP JUMPDEST SWAP1 POP SWAP3 SWAP2 POP POP JUMP JUMPDEST PUSH32 0x4E487B7100000000000000000000000000000000000000000000000000000000 PUSH0 MSTORE PUSH1 0x32 PUSH1 0x4 MSTORE PUSH1 0x24 PUSH0 REVERT JUMPDEST PUSH32 0x4E487B7100000000000000000000000000000000000000000000000000000000 PUSH0 MSTORE PUSH1 0x12 PUSH1 0x4 MSTORE PUSH1 0x24 PUSH0 REVERT JUMPDEST PUSH32 0x4E487B7100000000000000000000000000000000000000000000000000000000 PUSH0 MSTORE PUSH1 0x11 PUSH1 0x4 MSTORE PUSH1 0x24 PUSH0 REVERT JUMPDEST PUSH0 PUSH2 0xE44 DUP3 PUSH2 0x932 JUMP JUMPDEST SWAP2 POP PUSH2 0xE4F DUP4 PUSH2 0x932 JUMP JUMPDEST SWAP3 POP DUP3 PUSH2 0xE5F JUMPI PUSH2 0xE5E PUSH2 0xDE0 JUMP JUMPDEST JUMPDEST DUP3 DUP3 DIV SWAP1 POP SWAP3 SWAP2 POP POP JUMP JUMPDEST PUSH32 0x4E487B7100000000000000000000000000000000000000000000000000000000 PUSH0 MSTORE PUSH1 0x22 PUSH1 0x4 MSTORE PUSH1 0x24 PUSH0 REVERT JUMPDEST PUSH0 PUSH1 0x2 DUP3 DIV SWAP1 POP PUSH1 0x1 DUP3 AND DUP1 PUSH2 0xEAE JUMPI PUSH1 0x7F DUP3 AND SWAP2 POP JUMPDEST PUSH1 0x20 DUP3 LT DUP2 SUB PUSH2 0xEC1 JUMPI PUSH2 0xEC0 PUSH2 0xE6A JUMP JUMPDEST JUMPDEST POP SWAP2 SWAP1 POP JUMP JUMPDEST PUSH0 PUSH2 0xED1 DUP3 PUSH2 0x932 JUMP JUMPDEST SWAP2 POP PUSH2 0xEDC DUP4 PUSH2 0x932 JUMP JUMPDEST SWAP3 POP DUP3 DUP3 SUB SWAP1 POP DUP2 DUP2 GT ISZERO PUSH2 0xEF4 JUMPI PUSH2 0xEF3 PUSH2 0xE0D JUMP JUMPDEST JUMPDEST SWAP3 SWAP2 POP POP JUMP JUMPDEST PUSH0 DUP2 SWAP1 POP DUP2 PUSH0 MSTORE PUSH1 0x20 PUSH0 KECCAK256 SWAP1 POP SWAP2 SWAP1 POP JUMP JUMPDEST PUSH0 PUSH1 0x20 PUSH1 0x1F DUP4 ADD DIV SWAP1 POP SWAP2 SWAP1 POP JUMP JUMPDEST PUSH0 DUP3 DUP3 SHL SWAP1 POP SWAP3 SWAP2 POP POP JUMP JUMPDEST PUSH0 PUSH1 0x8 DUP4 MUL PUSH2 0xF56 PUSH32 0xFFFFFFFFFFFFFFFFFFFFFFFFFFFFFFFFFFFFFFFFFFFFFFFFFFFFFFFFFFFFFFFF DUP3 PUSH2 0xF1B JUMP JUMPDEST PUSH2 0xF60 DUP7 DUP4 PUSH2 0xF1B JUMP JUMPDEST SWAP6 POP DUP1 NOT DUP5 AND SWAP4 POP DUP1 DUP7 AND DUP5 OR SWAP3 POP POP POP SWAP4 SWAP3 POP POP POP JUMP JUMPDEST PUSH0 DUP2 SWAP1 POP SWAP2 SWAP1 POP JUMP JUMPDEST PUSH0 PUSH2 0xF9B PUSH2 0xF96 PUSH2 0xF91 DUP5 PUSH2 0x932 JUMP JUMPDEST PUSH2 0xF78 JUMP JUMPDEST PUSH2 0x932 JUMP JUMPDEST SWAP1 POP SWAP2 SWAP1 POP JUMP JUMPDEST PUSH0 DUP2 SWAP1 POP SWAP2 SWAP1 POP JUMP JUMPDEST PUSH2 0xFB4 DUP4 PUSH2 0xF81 JUMP JUMPDEST PUSH2 0xFC8 PUSH2 0xFC0 DUP3 PUSH2 0xFA2 JUMP JUMPDEST DUP5 DUP5 SLOAD PUSH2 0xF27 JUMP JUMPDEST DUP3 SSTORE POP POP POP POP JUMP JUMPDEST PUSH0 SWAP1 JUMP JUMPDEST PUSH2 0xFDC PUSH2 0xFD0 JUMP JUMPDEST PUSH2 0xFE7 DUP2 DUP5 DUP5 PUSH2 0xFAB JUMP JUMPDEST POP POP POP JUMP JUMPDEST JUMPDEST DUP2 DUP2 LT ISZERO PUSH2 0x100A JUMPI PUSH2 0xFFF PUSH0 DUP3 PUSH2 0xFD4 JUMP JUMPDEST PUSH1 0x1 DUP2 ADD SWAP1 POP PUSH2 0xFED JUMP JUMPDEST POP POP JUMP JUMPDEST PUSH1 0x1F DUP3 GT ISZERO PUSH2 0x104F JUMPI PUSH2 0x1020 DUP2 PUSH2 0xEFA JUMP JUMPDEST PUSH2 0x1029 DUP5 PUSH2 0xF0C JUMP JUMPDEST DUP2 ADD PUSH1 0x20 DUP6 LT ISZERO PUSH2 0x1038 JUMPI DUP2 SWAP1 POP JUMPDEST PUSH2 0x104C PUSH2 0x1044 DUP6 PUSH2 0xF0C JUMP JUMPDEST DUP4 ADD DUP3 PUSH2 0xFEC JUMP JUMPDEST POP POP JUMPDEST POP POP POP JUMP JUMPDEST PUSH0 DUP3 DUP3 SHR SWAP1 POP SWAP3 SWAP2 POP POP JUMP JUMPDEST PUSH0 PUSH2 0x106F PUSH0 NOT DUP5 PUSH1 0x8 MUL PUSH2 0x1054 JUMP JUMPDEST NOT DUP1 DUP4 AND SWAP2 POP POP SWAP3 SWAP2 POP POP JUMP JUMPDEST PUSH0 PUSH2 0x1087 DUP4 DUP4 PUSH2 0x1060 JUMP JUMPDEST SWAP2 POP DUP3 PUSH1 0x2 MUL DUP3 OR SWAP1 POP SWAP3 SWAP2 POP POP JUMP JUMPDEST PUSH2 0x10A0 DUP3 PUSH2 0xAE9 JUMP JUMPDEST PUSH8 0xFFFFFFFFFFFFFFFF DUP2 GT ISZERO PUSH2 0x10B9 JUMPI PUSH2 0x10B8 PUSH2 0xBD9 JUMP JUMPDEST JUMPDEST PUSH2 0x10C3 DUP3 SLOAD PUSH2 0xE97 JUMP JUMPDEST PUSH2 0x10CE DUP3 DUP3 DUP6 PUSH2 0x100E JUMP JUMPDEST PUSH0 PUSH1 0x20 SWAP1 POP PUSH1 0x1F DUP4 GT PUSH1 0x1 DUP2 EQ PUSH2 0x10FF JUMPI PUSH0 DUP5 ISZERO PUSH2 0x10ED JUMPI DUP3 DUP8 ADD MLOAD SWAP1 POP JUMPDEST PUSH2 0x10F7 DUP6 DUP3 PUSH2 0x107C JUMP JUMPDEST DUP7 SSTORE POP PUSH2 0x115E JUMP JUMPDEST PUSH1 0x1F NOT DUP5 AND PUSH2 0x110D DUP7 PUSH2 0xEFA JUMP JUMPDEST PUSH0 JUMPDEST DUP3 DUP2 LT ISZERO PUSH2 0x1134 JUMPI DUP5 DUP10 ADD MLOAD DUP3 SSTORE PUSH1 0x1 DUP3 ADD SWAP2 POP PUSH1 0x20 DUP6 ADD SWAP5 POP PUSH1 0x20 DUP2 ADD SWAP1 POP PUSH2 0x110F JUMP JUMPDEST DUP7 DUP4 LT ISZERO PUSH2 0x1151 JUMPI DUP5 DUP10 ADD MLOAD PUSH2 0x114D PUSH1 0x1F DUP10 AND DUP3 PUSH2 0x1060 JUMP JUMPDEST DUP4 SSTORE POP JUMPDEST PUSH1 0x1 PUSH1 0x2 DUP9 MUL ADD DUP9 SSTORE POP POP POP JUMPDEST POP POP POP POP POP POP JUMP JUMPDEST PUSH0 PUSH2 0x1170 DUP3 PUSH2 0x932 JUMP JUMPDEST SWAP2 POP PUSH32 0xFFFFFFFFFFFFFFFFFFFFFFFFFFFFFFFFFFFFFFFFFFFFFFFFFFFFFFFFFFFFFFFF DUP3 SUB PUSH2 0x11A2 JUMPI PUSH2 0x11A1 PUSH2 0xE0D JUMP JUMPDEST JUMPDEST PUSH1 0x1 DUP3 ADD SWAP1 POP SWAP2 SWAP1 POP JUMP INVALID LOG2 PUSH5 0x6970667358 0x22 SLT KECCAK256 PUSH17 0xADAE6EC31F2AE95C71F5C7D5E9324BE38D SUB 0xCA 0x23 PUSH30 0x75684CDA7AE6283F9C3264736F6C634300081A0033000000000000000000 "},"gasEstimates":{"creation":{"codeDepositCost":"915800","executionCost":"infinite","totalCost":"infinite"},"external":{"approveRequest(uint256)":"infinite","approvers(address)":"2856","approversCount()":"2425","contribute()":"51036","createRequest(string,uint256,address)":"infinite","finalizeRequest(uint256)":"infinite","getRequest(uint256)":"infinite","getRequestsCount()":"2485","getSummary()":"infinite","manager()":"2597","minimumContribution()":"2469","requests(uint256)":"infinite"}},"methodIdentifiers":{"approveRequest(uint256)":"d7d1bbdb","approvers(address)":"0a144391","approversCount()":"82fde093","contribute()":"d7bb99ba","createRequest(string,uint256,address)":"8a9cfd55","finalizeRequest(uint256)":"03441006","getRequest(uint256)":"c58343ef","getRequestsCount()":"3410452a","getSummary()":"4051ddac","manager()":"481c6a75","minimumContribution()":"937e09b1","requests(uint256)":"81d12c58"}},"storageLayout":{"storage":[{"astId":59,"contract":"Campaign.sol:Campaign","label":"requests","offset":0,"slot":"0","type":"t_array(t_struct(Request)55_storage)dyn_storage"},{"astId":61,"contract":"Campaign.sol:Campaign","label":"manager","offset":0,"slot":"1","type":"t_address"},{"astId":63,"contract":"Campaign.sol:Campaign","label":"minimumContribution","offset":0,"slot":"2","type":"t_uint256"},{"astId":67,"contract":"Campaign.sol:Campaign","label":"approvers","offset":0,"slot":"3","type":"t_mapping(t_address,t_bool)"},{"astId":69,"contract":"Campaign.sol:Campaign","label":"approversCount","offset":0,"slot":"4","type":"t_uint256"}],"types":{"t_address":{"encoding":"inplace","label":"address","numberOfBytes":"20"},"t_address_payable":{"encoding":"inplace","label":"address payable","numberOfBytes":"20"},"t_array(t_struct(Request)55_storage)dyn_storage":{"base":"t_struct(Request)55_storage","encoding":"dynamic_array","label":"struct Campaign.Request[]","numberOfBytes":"32"},"t_bool":{"encoding":"inplace","label":"bool","numberOfBytes":"1"},"t_mapping(t_address,t_bool)":{"encoding":"mapping","key":"t_address","label":"mapping(address => bool)","numberOfBytes":"32","value":"t_bool"},"t_string_storage":{"encoding":"bytes","label":"string","numberOfBytes":"32"},"t_struct(Request)55_storage":{"encoding":"inplace","label":"struct Campaign.Request","members":[{"astId":42,"contract":"Campaign.sol:Campaign","label":"description","offset":0,"slot":"0","type":"t_string_storage"},{"astId":44,"contract":"Campaign.sol:Campaign","label":"value","offset":0,"slot":"1","type":"t_uint256"},{"astId":46,"contract":"Campaign.sol:Campaign","label":"recipient","offset":0,"slot":"2","type":"t_address_payable"},{"astId":48,"contract":"Campaign.sol:Campaign","label":"complete","offset":20,"slot":"2","type":"t_bool"},{"astId":50,"contract":"Campaign.sol:Campaign","label":"approvalCount","offset":0,"slot":"3","type":"t_uint256"},{"astId":54,"contract":"Campaign.sol:Campaign","label":"approvals","offset":0,"slot":"4","type":"t_mapping(t_address,t_bool)"}],"numberOfBytes":"160"},"t_uint256":{"encoding":"inplace","label":"uint256","numberOfBytes":"32"}}},"userdoc":{"kind":"user","methods":{},"version":1}}