{"abi":[{"inputs":[{"internalType":"uint256","name":"minimum","type":"uint256"},{"internalType":"address","name":"creator","type":"address"}],"stateMutability":"nonpayable","type":"constructor"},{"inputs":[{"internalType":"uint256","name":"index","type":"uint256"}],"name":"approveRequest","outputs":[],"stateMutability":"nonpayable","type":"function"},{"inputs":[{"internalType":"address","name":"","type":"address"}],"name":"approvers","outputs":[{"internalType":"bool","name":"","type":"bool"}],"stateMutability":"view","type":"function"},{"inputs":[],"name":"approversCount","outputs":[{"internalType":"uint256","name":"","type":"uint256"}],"stateMutability":"view","type":"function"},{"inputs":[],"name":"contribute","outputs":[],"stateMutability":"payable","type":"function"},{"inputs":[{"internalType":"string","name":"description","type":"string"},{"internalType":"uint256","name":"value","type":"uint256"},{"internalType":"address payable","name":"recipient","type":"address"}],"name":"createRequest","outputs":[],"stateMutability":"nonpayable","type":"function"},{"inputs":[{"internalType":"uint256","name":"index","type":"uint256"}],"name":"finalizeRequest","outputs":[],"stateMutability":"nonpayable","type":"function"},{"inputs":[{"internalType":"uint256","name":"index","type":"uint256"}],"name":"getRequest","outputs":[{"internalType":"string","name":"","type":"string"}],"stateMutability":"view","type":"function"},{"inputs":[],"name":"manager","outputs":[{"internalType":"address","name":"","type":"address"}],"stateMutability":"view","type":"function"},{"inputs":[],"name":"minimumContribution","outputs":[{"internalType":"uint256","name":"","type":"uint256"}],"stateMutability":"view","type":"function"},{"inputs":[{"internalType":"uint256","name":"","type":"uint256"}],"name":"requests","outputs":[{"internalType":"string","name":"description","type":"string"},{"internalType":"uint256","name":"value","type":"uint256"},{"internalType":"address payable","name":"recipient","type":"address"},{"internalType":"bool","name":"complete","type":"bool"},{"internalType":"uint256","name":"approvalCount","type":"uint256"}],"stateMutability":"view","type":"function"}],"devdoc":{"kind":"dev","methods":{},"version":1},"evm":{"assembly":"    /* \"Campaign.sol\":516:3176  contract Campaign { // we define the type Campaign but we have not instatiated a variable... */\n  mstore(0x40, 0x80)\n    /* \"Campaign.sol\":1197:1356  constructor(uint minimum, address creator) {... */\n  callvalue\n  dup1\n  iszero\n  tag_1\n  jumpi\n  0x00\n  dup1\n  revert\ntag_1:\n  pop\n  mload(0x40)\n  sub(codesize, bytecodeSize)\n  dup1\n  bytecodeSize\n  dup4\n  codecopy\n  dup2\n  dup2\n  add\n  0x40\n  mstore\n  dup2\n  add\n  swap1\n  tag_2\n  swap2\n  swap1\n  tag_3\n  jump\t// in\ntag_2:\n    /* \"Campaign.sol\":1260:1267  creator */\n  dup1\n    /* \"Campaign.sol\":1250:1257  manager */\n  0x01\n  0x00\n    /* \"Campaign.sol\":1250:1267  manager = creator */\n  0x0100\n  exp\n  dup2\n  sload\n  dup2\n  0xffffffffffffffffffffffffffffffffffffffff\n  mul\n  not\n  and\n  swap1\n  dup4\n  0xffffffffffffffffffffffffffffffffffffffff\n  and\n  mul\n  or\n  swap1\n  sstore\n  pop\n    /* \"Campaign.sol\":1342:1349  minimum */\n  dup2\n    /* \"Campaign.sol\":1320:1339  minimumContribution */\n  0x02\n    /* \"Campaign.sol\":1320:1349  minimumContribution = minimum */\n  dup2\n  swap1\n  sstore\n  pop\n    /* \"Campaign.sol\":1197:1356  constructor(uint minimum, address creator) {... */\n  pop\n  pop\n    /* \"Campaign.sol\":516:3176  contract Campaign { // we define the type Campaign but we have not instatiated a variable... */\n  jump(tag_6)\n    /* \"#utility.yul\":88:205   */\ntag_8:\n    /* \"#utility.yul\":197:198   */\n  0x00\n    /* \"#utility.yul\":194:195   */\n  dup1\n    /* \"#utility.yul\":187:199   */\n  revert\n    /* \"#utility.yul\":334:411   */\ntag_10:\n    /* \"#utility.yul\":371:378   */\n  0x00\n    /* \"#utility.yul\":400:405   */\n  dup2\n    /* \"#utility.yul\":389:405   */\n  swap1\n  pop\n    /* \"#utility.yul\":334:411   */\n  swap2\n  swap1\n  pop\n  jump\t// out\n    /* \"#utility.yul\":417:539   */\ntag_11:\n    /* \"#utility.yul\":490:514   */\n  tag_23\n    /* \"#utility.yul\":508:513   */\n  dup2\n    /* \"#utility.yul\":490:514   */\n  tag_10\n  jump\t// in\ntag_23:\n    /* \"#utility.yul\":483:488   */\n  dup2\n    /* \"#utility.yul\":480:515   */\n  eq\n    /* \"#utility.yul\":470:533   */\n  tag_24\n  jumpi\n    /* \"#utility.yul\":529:530   */\n  0x00\n    /* \"#utility.yul\":526:527   */\n  dup1\n    /* \"#utility.yul\":519:531   */\n  revert\n    /* \"#utility.yul\":470:533   */\ntag_24:\n    /* \"#utility.yul\":417:539   */\n  pop\n  jump\t// out\n    /* \"#utility.yul\":545:688   */\ntag_12:\n    /* \"#utility.yul\":602:607   */\n  0x00\n    /* \"#utility.yul\":633:639   */\n  dup2\n    /* \"#utility.yul\":627:640   */\n  mload\n    /* \"#utility.yul\":618:640   */\n  swap1\n  pop\n    /* \"#utility.yul\":649:682   */\n  tag_26\n    /* \"#utility.yul\":676:681   */\n  dup2\n    /* \"#utility.yul\":649:682   */\n  tag_11\n  jump\t// in\ntag_26:\n    /* \"#utility.yul\":545:688   */\n  swap3\n  swap2\n  pop\n  pop\n  jump\t// out\n    /* \"#utility.yul\":694:820   */\ntag_13:\n    /* \"#utility.yul\":731:738   */\n  0x00\n    /* \"#utility.yul\":771:813   */\n  0xffffffffffffffffffffffffffffffffffffffff\n    /* \"#utility.yul\":764:769   */\n  dup3\n    /* \"#utility.yul\":760:814   */\n  and\n    /* \"#utility.yul\":749:814   */\n  swap1\n  pop\n    /* \"#utility.yul\":694:820   */\n  swap2\n  swap1\n  pop\n  jump\t// out\n    /* \"#utility.yul\":826:922   */\ntag_14:\n    /* \"#utility.yul\":863:870   */\n  0x00\n    /* \"#utility.yul\":892:916   */\n  tag_29\n    /* \"#utility.yul\":910:915   */\n  dup3\n    /* \"#utility.yul\":892:916   */\n  tag_13\n  jump\t// in\ntag_29:\n    /* \"#utility.yul\":881:916   */\n  swap1\n  pop\n    /* \"#utility.yul\":826:922   */\n  swap2\n  swap1\n  pop\n  jump\t// out\n    /* \"#utility.yul\":928:1050   */\ntag_15:\n    /* \"#utility.yul\":1001:1025   */\n  tag_31\n    /* \"#utility.yul\":1019:1024   */\n  dup2\n    /* \"#utility.yul\":1001:1025   */\n  tag_14\n  jump\t// in\ntag_31:\n    /* \"#utility.yul\":994:999   */\n  dup2\n    /* \"#utility.yul\":991:1026   */\n  eq\n    /* \"#utility.yul\":981:1044   */\n  tag_32\n  jumpi\n    /* \"#utility.yul\":1040:1041   */\n  0x00\n    /* \"#utility.yul\":1037:1038   */\n  dup1\n    /* \"#utility.yul\":1030:1042   */\n  revert\n    /* \"#utility.yul\":981:1044   */\ntag_32:\n    /* \"#utility.yul\":928:1050   */\n  pop\n  jump\t// out\n    /* \"#utility.yul\":1056:1199   */\ntag_16:\n    /* \"#utility.yul\":1113:1118   */\n  0x00\n    /* \"#utility.yul\":1144:1150   */\n  dup2\n    /* \"#utility.yul\":1138:1151   */\n  mload\n    /* \"#utility.yul\":1129:1151   */\n  swap1\n  pop\n    /* \"#utility.yul\":1160:1193   */\n  tag_34\n    /* \"#utility.yul\":1187:1192   */\n  dup2\n    /* \"#utility.yul\":1160:1193   */\n  tag_15\n  jump\t// in\ntag_34:\n    /* \"#utility.yul\":1056:1199   */\n  swap3\n  swap2\n  pop\n  pop\n  jump\t// out\n    /* \"#utility.yul\":1205:1712   */\ntag_3:\n    /* \"#utility.yul\":1284:1290   */\n  0x00\n    /* \"#utility.yul\":1292:1298   */\n  dup1\n    /* \"#utility.yul\":1341:1343   */\n  0x40\n    /* \"#utility.yul\":1329:1338   */\n  dup4\n    /* \"#utility.yul\":1320:1327   */\n  dup6\n    /* \"#utility.yul\":1316:1339   */\n  sub\n    /* \"#utility.yul\":1312:1344   */\n  slt\n    /* \"#utility.yul\":1309:1428   */\n  iszero\n  tag_36\n  jumpi\n    /* \"#utility.yul\":1347:1426   */\n  tag_37\n  tag_8\n  jump\t// in\ntag_37:\n    /* \"#utility.yul\":1309:1428   */\ntag_36:\n    /* \"#utility.yul\":1467:1468   */\n  0x00\n    /* \"#utility.yul\":1492:1556   */\n  tag_38\n    /* \"#utility.yul\":1548:1555   */\n  dup6\n    /* \"#utility.yul\":1539:1545   */\n  dup3\n    /* \"#utility.yul\":1528:1537   */\n  dup7\n    /* \"#utility.yul\":1524:1546   */\n  add\n    /* \"#utility.yul\":1492:1556   */\n  tag_12\n  jump\t// in\ntag_38:\n    /* \"#utility.yul\":1482:1556   */\n  swap3\n  pop\n    /* \"#utility.yul\":1438:1566   */\n  pop\n    /* \"#utility.yul\":1605:1607   */\n  0x20\n    /* \"#utility.yul\":1631:1695   */\n  tag_39\n    /* \"#utility.yul\":1687:1694   */\n  dup6\n    /* \"#utility.yul\":1678:1684   */\n  dup3\n    /* \"#utility.yul\":1667:1676   */\n  dup7\n    /* \"#utility.yul\":1663:1685   */\n  add\n    /* \"#utility.yul\":1631:1695   */\n  tag_16\n  jump\t// in\ntag_39:\n    /* \"#utility.yul\":1621:1695   */\n  swap2\n  pop\n    /* \"#utility.yul\":1576:1705   */\n  pop\n    /* \"#utility.yul\":1205:1712   */\n  swap3\n  pop\n  swap3\n  swap1\n  pop\n  jump\t// out\n    /* \"Campaign.sol\":516:3176  contract Campaign { // we define the type Campaign but we have not instatiated a variable... */\ntag_6:\n  dataSize(sub_0)\n  dup1\n  dataOffset(sub_0)\n  0x00\n  codecopy\n  0x00\n  return\nstop\n\nsub_0: assembly {\n        /* \"Campaign.sol\":516:3176  contract Campaign { // we define the type Campaign but we have not instatiated a variable... */\n      mstore(0x40, 0x80)\n      jumpi(tag_1, lt(calldatasize, 0x04))\n      shr(0xe0, calldataload(0x00))\n      dup1\n      0x8a9cfd55\n      gt\n      tag_12\n      jumpi\n      dup1\n      0x8a9cfd55\n      eq\n      tag_7\n      jumpi\n      dup1\n      0x937e09b1\n      eq\n      tag_8\n      jumpi\n      dup1\n      0xc58343ef\n      eq\n      tag_9\n      jumpi\n      dup1\n      0xd7bb99ba\n      eq\n      tag_10\n      jumpi\n      dup1\n      0xd7d1bbdb\n      eq\n      tag_11\n      jumpi\n      jump(tag_1)\n    tag_12:\n      dup1\n      0x03441006\n      eq\n      tag_2\n      jumpi\n      dup1\n      0x0a144391\n      eq\n      tag_3\n      jumpi\n      dup1\n      0x481c6a75\n      eq\n      tag_4\n      jumpi\n      dup1\n      0x81d12c58\n      eq\n      tag_5\n      jumpi\n      dup1\n      0x82fde093\n      eq\n      tag_6\n      jumpi\n    tag_1:\n      0x00\n      dup1\n      revert\n        /* \"Campaign.sol\":2535:2978  function finalizeRequest(uint index) public restricted { // the index of the Request[]... */\n    tag_2:\n      callvalue\n      dup1\n      iszero\n      tag_13\n      jumpi\n      0x00\n      dup1\n      revert\n    tag_13:\n      pop\n      tag_14\n      0x04\n      dup1\n      calldatasize\n      sub\n      dup2\n      add\n      swap1\n      tag_15\n      swap2\n      swap1\n      tag_16\n      jump\t// in\n    tag_15:\n      tag_17\n      jump\t// in\n    tag_14:\n      stop\n        /* \"Campaign.sol\":912:953  mapping(address => bool) public approvers */\n    tag_3:\n      callvalue\n      dup1\n      iszero\n      tag_18\n      jumpi\n      0x00\n      dup1\n      revert\n    tag_18:\n      pop\n      tag_19\n      0x04\n      dup1\n      calldatasize\n      sub\n      dup2\n      add\n      swap1\n      tag_20\n      swap2\n      swap1\n      tag_21\n      jump\t// in\n    tag_20:\n      tag_22\n      jump\t// in\n    tag_19:\n      mload(0x40)\n      tag_23\n      swap2\n      swap1\n      tag_24\n      jump\t// in\n    tag_23:\n      mload(0x40)\n      dup1\n      swap2\n      sub\n      swap1\n      return\n        /* \"Campaign.sol\":847:869  address public manager */\n    tag_4:\n      callvalue\n      dup1\n      iszero\n      tag_25\n      jumpi\n      0x00\n      dup1\n      revert\n    tag_25:\n      pop\n      tag_26\n      tag_27\n      jump\t// in\n    tag_26:\n      mload(0x40)\n      tag_28\n      swap2\n      swap1\n      tag_29\n      jump\t// in\n    tag_28:\n      mload(0x40)\n      dup1\n      swap2\n      sub\n      swap1\n      return\n        /* \"Campaign.sol\":816:841  Request[] public requests */\n    tag_5:\n      callvalue\n      dup1\n      iszero\n      tag_30\n      jumpi\n      0x00\n      dup1\n      revert\n    tag_30:\n      pop\n      tag_31\n      0x04\n      dup1\n      calldatasize\n      sub\n      dup2\n      add\n      swap1\n      tag_32\n      swap2\n      swap1\n      tag_16\n      jump\t// in\n    tag_32:\n      tag_33\n      jump\t// in\n    tag_31:\n      mload(0x40)\n      tag_34\n      swap6\n      swap5\n      swap4\n      swap3\n      swap2\n      swap1\n      tag_35\n      jump\t// in\n    tag_34:\n      mload(0x40)\n      dup1\n      swap2\n      sub\n      swap1\n      return\n        /* \"Campaign.sol\":959:985  uint public approversCount */\n    tag_6:\n      callvalue\n      dup1\n      iszero\n      tag_36\n      jumpi\n      0x00\n      dup1\n      revert\n    tag_36:\n      pop\n      tag_37\n      tag_38\n      jump\t// in\n    tag_37:\n      mload(0x40)\n      tag_39\n      swap2\n      swap1\n      tag_40\n      jump\t// in\n    tag_39:\n      mload(0x40)\n      dup1\n      swap2\n      sub\n      swap1\n      return\n        /* \"Campaign.sol\":1692:2078  function createRequest(string memory description, uint value, address payable recipient) public  restricted {... */\n    tag_7:\n      callvalue\n      dup1\n      iszero\n      tag_41\n      jumpi\n      0x00\n      dup1\n      revert\n    tag_41:\n      pop\n      tag_42\n      0x04\n      dup1\n      calldatasize\n      sub\n      dup2\n      add\n      swap1\n      tag_43\n      swap2\n      swap1\n      tag_44\n      jump\t// in\n    tag_43:\n      tag_45\n      jump\t// in\n    tag_42:\n      stop\n        /* \"Campaign.sol\":875:906  uint public minimumContribution */\n    tag_8:\n      callvalue\n      dup1\n      iszero\n      tag_46\n      jumpi\n      0x00\n      dup1\n      revert\n    tag_46:\n      pop\n      tag_47\n      tag_48\n      jump\t// in\n    tag_47:\n      mload(0x40)\n      tag_49\n      swap2\n      swap1\n      tag_40\n      jump\t// in\n    tag_49:\n      mload(0x40)\n      dup1\n      swap2\n      sub\n      swap1\n      return\n        /* \"Campaign.sol\":2984:3174  function getRequest(uint index) public view returns (string memory) {... */\n    tag_9:\n      callvalue\n      dup1\n      iszero\n      tag_50\n      jumpi\n      0x00\n      dup1\n      revert\n    tag_50:\n      pop\n      tag_51\n      0x04\n      dup1\n      calldatasize\n      sub\n      dup2\n      add\n      swap1\n      tag_52\n      swap2\n      swap1\n      tag_16\n      jump\t// in\n    tag_52:\n      tag_53\n      jump\t// in\n    tag_51:\n      mload(0x40)\n      tag_54\n      swap2\n      swap1\n      tag_55\n      jump\t// in\n    tag_54:\n      mload(0x40)\n      dup1\n      swap2\n      sub\n      swap1\n      return\n        /* \"Campaign.sol\":1362:1686  function contribute() public payable {... */\n    tag_10:\n      tag_56\n      tag_57\n      jump\t// in\n    tag_56:\n      stop\n        /* \"Campaign.sol\":2084:2529  function approveRequest(uint index) public { // index of the Request[]... */\n    tag_11:\n      callvalue\n      dup1\n      iszero\n      tag_58\n      jumpi\n      0x00\n      dup1\n      revert\n    tag_58:\n      pop\n      tag_59\n      0x04\n      dup1\n      calldatasize\n      sub\n      dup2\n      add\n      swap1\n      tag_60\n      swap2\n      swap1\n      tag_16\n      jump\t// in\n    tag_60:\n      tag_61\n      jump\t// in\n    tag_59:\n      stop\n        /* \"Campaign.sol\":2535:2978  function finalizeRequest(uint index) public restricted { // the index of the Request[]... */\n    tag_17:\n        /* \"Campaign.sol\":1079:1086  manager */\n      0x01\n      0x00\n      swap1\n      sload\n      swap1\n      0x0100\n      exp\n      swap1\n      div\n      0xffffffffffffffffffffffffffffffffffffffff\n      and\n        /* \"Campaign.sol\":1065:1086  msg.sender == manager */\n      0xffffffffffffffffffffffffffffffffffffffff\n      and\n        /* \"Campaign.sol\":1065:1075  msg.sender */\n      caller\n        /* \"Campaign.sol\":1065:1086  msg.sender == manager */\n      0xffffffffffffffffffffffffffffffffffffffff\n      and\n      eq\n        /* \"Campaign.sol\":1057:1087  require(msg.sender == manager) */\n      tag_63\n      jumpi\n      0x00\n      dup1\n      revert\n    tag_63:\n        /* \"Campaign.sol\":2630:2653  Request storage request */\n      0x00\n        /* \"Campaign.sol\":2656:2664  requests */\n      dup1\n        /* \"Campaign.sol\":2665:2670  index */\n      dup3\n        /* \"Campaign.sol\":2656:2671  requests[index] */\n      dup2\n      sload\n      dup2\n      lt\n      tag_65\n      jumpi\n      tag_66\n      tag_67\n      jump\t// in\n    tag_66:\n    tag_65:\n      swap1\n      0x00\n      mstore\n      keccak256(0x00, 0x20)\n      swap1\n      0x05\n      mul\n      add\n        /* \"Campaign.sol\":2630:2671  Request storage request = requests[index] */\n      swap1\n      pop\n        /* \"Campaign.sol\":2731:2732  2 */\n      0x02\n        /* \"Campaign.sol\":2714:2728  approversCount */\n      sload(0x04)\n        /* \"Campaign.sol\":2714:2732  approversCount / 2 */\n      tag_69\n      swap2\n      swap1\n      tag_70\n      jump\t// in\n    tag_69:\n        /* \"Campaign.sol\":2689:2696  request */\n      dup2\n        /* \"Campaign.sol\":2689:2710  request.approvalCount */\n      0x03\n      add\n      sload\n        /* \"Campaign.sol\":2689:2733  request.approvalCount > (approversCount / 2) */\n      gt\n        /* \"Campaign.sol\":2681:2734  require(request.approvalCount > (approversCount / 2)) */\n      tag_71\n      jumpi\n      0x00\n      dup1\n      revert\n    tag_71:\n        /* \"Campaign.sol\":2834:2841  request */\n      dup1\n        /* \"Campaign.sol\":2834:2850  request.complete */\n      0x02\n      add\n      0x14\n      swap1\n      sload\n      swap1\n      0x0100\n      exp\n      swap1\n      div\n      0xff\n      and\n        /* \"Campaign.sol\":2833:2850  !request.complete */\n      iszero\n        /* \"Campaign.sol\":2825:2851  require(!request.complete) */\n      tag_72\n      jumpi\n      0x00\n      dup1\n      revert\n    tag_72:\n        /* \"Campaign.sol\":2861:2868  request */\n      dup1\n        /* \"Campaign.sol\":2861:2878  request.recipient */\n      0x02\n      add\n      0x00\n      swap1\n      sload\n      swap1\n      0x0100\n      exp\n      swap1\n      div\n      0xffffffffffffffffffffffffffffffffffffffff\n      and\n        /* \"Campaign.sol\":2861:2887  request.recipient.transfer */\n      0xffffffffffffffffffffffffffffffffffffffff\n      and\n        /* \"Campaign.sol\":2861:2902  request.recipient.transfer(request.value) */\n      0x08fc\n        /* \"Campaign.sol\":2888:2895  request */\n      dup3\n        /* \"Campaign.sol\":2888:2901  request.value */\n      0x01\n      add\n      sload\n        /* \"Campaign.sol\":2861:2902  request.recipient.transfer(request.value) */\n      swap1\n      dup2\n      iszero\n      mul\n      swap1\n      mload(0x40)\n      0x00\n      mload(0x40)\n      dup1\n      dup4\n      sub\n      dup2\n      dup6\n      dup9\n      dup9\n      call\n      swap4\n      pop\n      pop\n      pop\n      pop\n      iszero\n      dup1\n      iszero\n      tag_74\n      jumpi\n      returndatasize\n      0x00\n      dup1\n      returndatacopy\n      revert(0x00, returndatasize)\n    tag_74:\n      pop\n        /* \"Campaign.sol\":2967:2971  true */\n      0x01\n        /* \"Campaign.sol\":2948:2955  request */\n      dup2\n        /* \"Campaign.sol\":2948:2964  request.complete */\n      0x02\n      add\n      0x14\n        /* \"Campaign.sol\":2948:2971  request.complete = true */\n      0x0100\n      exp\n      dup2\n      sload\n      dup2\n      0xff\n      mul\n      not\n      and\n      swap1\n      dup4\n      iszero\n      iszero\n      mul\n      or\n      swap1\n      sstore\n      pop\n        /* \"Campaign.sol\":2590:2978  { // the index of the Request[]... */\n      pop\n        /* \"Campaign.sol\":2535:2978  function finalizeRequest(uint index) public restricted { // the index of the Request[]... */\n      pop\n      jump\t// out\n        /* \"Campaign.sol\":912:953  mapping(address => bool) public approvers */\n    tag_22:\n      mstore(0x20, 0x03)\n      dup1\n      0x00\n      mstore\n      keccak256(0x00, 0x40)\n      0x00\n      swap2\n      pop\n      sload\n      swap1\n      0x0100\n      exp\n      swap1\n      div\n      0xff\n      and\n      dup2\n      jump\t// out\n        /* \"Campaign.sol\":847:869  address public manager */\n    tag_27:\n      0x01\n      0x00\n      swap1\n      sload\n      swap1\n      0x0100\n      exp\n      swap1\n      div\n      0xffffffffffffffffffffffffffffffffffffffff\n      and\n      dup2\n      jump\t// out\n        /* \"Campaign.sol\":816:841  Request[] public requests */\n    tag_33:\n      0x00\n      dup2\n      dup2\n      sload\n      dup2\n      lt\n      tag_75\n      jumpi\n      0x00\n      dup1\n      revert\n    tag_75:\n      swap1\n      0x00\n      mstore\n      keccak256(0x00, 0x20)\n      swap1\n      0x05\n      mul\n      add\n      0x00\n      swap2\n      pop\n      swap1\n      pop\n      dup1\n      0x00\n      add\n      dup1\n      sload\n      tag_77\n      swap1\n      tag_78\n      jump\t// in\n    tag_77:\n      dup1\n      0x1f\n      add\n      0x20\n      dup1\n      swap2\n      div\n      mul\n      0x20\n      add\n      mload(0x40)\n      swap1\n      dup2\n      add\n      0x40\n      mstore\n      dup1\n      swap3\n      swap2\n      swap1\n      dup2\n      dup2\n      mstore\n      0x20\n      add\n      dup3\n      dup1\n      sload\n      tag_79\n      swap1\n      tag_78\n      jump\t// in\n    tag_79:\n      dup1\n      iszero\n      tag_80\n      jumpi\n      dup1\n      0x1f\n      lt\n      tag_81\n      jumpi\n      0x0100\n      dup1\n      dup4\n      sload\n      div\n      mul\n      dup4\n      mstore\n      swap2\n      0x20\n      add\n      swap2\n      jump(tag_80)\n    tag_81:\n      dup3\n      add\n      swap2\n      swap1\n      0x00\n      mstore\n      keccak256(0x00, 0x20)\n      swap1\n    tag_82:\n      dup2\n      sload\n      dup2\n      mstore\n      swap1\n      0x01\n      add\n      swap1\n      0x20\n      add\n      dup1\n      dup4\n      gt\n      tag_82\n      jumpi\n      dup3\n      swap1\n      sub\n      0x1f\n      and\n      dup3\n      add\n      swap2\n    tag_80:\n      pop\n      pop\n      pop\n      pop\n      pop\n      swap1\n      dup1\n      0x01\n      add\n      sload\n      swap1\n      dup1\n      0x02\n      add\n      0x00\n      swap1\n      sload\n      swap1\n      0x0100\n      exp\n      swap1\n      div\n      0xffffffffffffffffffffffffffffffffffffffff\n      and\n      swap1\n      dup1\n      0x02\n      add\n      0x14\n      swap1\n      sload\n      swap1\n      0x0100\n      exp\n      swap1\n      div\n      0xff\n      and\n      swap1\n      dup1\n      0x03\n      add\n      sload\n      swap1\n      pop\n      dup6\n      jump\t// out\n        /* \"Campaign.sol\":959:985  uint public approversCount */\n    tag_38:\n      sload(0x04)\n      dup2\n      jump\t// out\n        /* \"Campaign.sol\":1692:2078  function createRequest(string memory description, uint value, address payable recipient) public  restricted {... */\n    tag_45:\n        /* \"Campaign.sol\":1079:1086  manager */\n      0x01\n      0x00\n      swap1\n      sload\n      swap1\n      0x0100\n      exp\n      swap1\n      div\n      0xffffffffffffffffffffffffffffffffffffffff\n      and\n        /* \"Campaign.sol\":1065:1086  msg.sender == manager */\n      0xffffffffffffffffffffffffffffffffffffffff\n      and\n        /* \"Campaign.sol\":1065:1075  msg.sender */\n      caller\n        /* \"Campaign.sol\":1065:1086  msg.sender == manager */\n      0xffffffffffffffffffffffffffffffffffffffff\n      and\n      eq\n        /* \"Campaign.sol\":1057:1087  require(msg.sender == manager) */\n      tag_84\n      jumpi\n      0x00\n      dup1\n      revert\n    tag_84:\n        /* \"Campaign.sol\":1810:1818  requests */\n      0x00\n        /* \"Campaign.sol\":1810:1825  requests.push() */\n      0x01\n      dup2\n      0x01\n      dup2\n      sload\n      add\n      dup1\n      dup3\n      sstore\n      dup1\n      swap2\n      pop\n      pop\n      sub\n      swap1\n      0x00\n      mstore\n      keccak256(0x00, 0x20)\n      swap1\n      pop\n      pop\n        /* \"Campaign.sol\":1835:1858  Request storage request */\n      0x00\n        /* \"Campaign.sol\":1861:1869  requests */\n      dup1\n        /* \"Campaign.sol\":1887:1888  1 */\n      0x01\n        /* \"Campaign.sol\":1870:1878  requests */\n      0x00\n        /* \"Campaign.sol\":1870:1885  requests.length */\n      dup1\n      sload\n      swap1\n      pop\n        /* \"Campaign.sol\":1870:1888  requests.length -1 */\n      tag_87\n      swap2\n      swap1\n      tag_88\n      jump\t// in\n    tag_87:\n        /* \"Campaign.sol\":1861:1889  requests[requests.length -1] */\n      dup2\n      sload\n      dup2\n      lt\n      tag_89\n      jumpi\n      tag_90\n      tag_67\n      jump\t// in\n    tag_90:\n    tag_89:\n      swap1\n      0x00\n      mstore\n      keccak256(0x00, 0x20)\n      swap1\n      0x05\n      mul\n      add\n        /* \"Campaign.sol\":1835:1889  Request storage request = requests[requests.length -1] */\n      swap1\n      pop\n        /* \"Campaign.sol\":1921:1932  description */\n      dup4\n        /* \"Campaign.sol\":1899:1906  request */\n      dup2\n        /* \"Campaign.sol\":1899:1918  request.description */\n      0x00\n      add\n        /* \"Campaign.sol\":1899:1932  request.description = description */\n      swap1\n      dup2\n      tag_92\n      swap2\n      swap1\n      tag_93\n      jump\t// in\n    tag_92:\n      pop\n        /* \"Campaign.sol\":1958:1963  value */\n      dup3\n        /* \"Campaign.sol\":1942:1949  request */\n      dup2\n        /* \"Campaign.sol\":1942:1955  request.value */\n      0x01\n      add\n        /* \"Campaign.sol\":1942:1963  request.value = value */\n      dup2\n      swap1\n      sstore\n      pop\n        /* \"Campaign.sol\":1993:2002  recipient */\n      dup2\n        /* \"Campaign.sol\":1973:1980  request */\n      dup2\n        /* \"Campaign.sol\":1973:1990  request.recipient */\n      0x02\n      add\n      0x00\n        /* \"Campaign.sol\":1973:2002  request.recipient = recipient */\n      0x0100\n      exp\n      dup2\n      sload\n      dup2\n      0xffffffffffffffffffffffffffffffffffffffff\n      mul\n      not\n      and\n      swap1\n      dup4\n      0xffffffffffffffffffffffffffffffffffffffff\n      and\n      mul\n      or\n      swap1\n      sstore\n      pop\n        /* \"Campaign.sol\":2031:2036  false */\n      0x00\n        /* \"Campaign.sol\":2012:2019  request */\n      dup2\n        /* \"Campaign.sol\":2012:2028  request.complete */\n      0x02\n      add\n      0x14\n        /* \"Campaign.sol\":2012:2036  request.complete = false */\n      0x0100\n      exp\n      dup2\n      sload\n      dup2\n      0xff\n      mul\n      not\n      and\n      swap1\n      dup4\n      iszero\n      iszero\n      mul\n      or\n      swap1\n      sstore\n      pop\n        /* \"Campaign.sol\":2070:2071  0 */\n      0x00\n        /* \"Campaign.sol\":2046:2053  request */\n      dup2\n        /* \"Campaign.sol\":2046:2067  request.approvalCount */\n      0x03\n      add\n        /* \"Campaign.sol\":2046:2071  request.approvalCount = 0 */\n      dup2\n      swap1\n      sstore\n      pop\n        /* \"Campaign.sol\":1800:2078  {... */\n      pop\n        /* \"Campaign.sol\":1692:2078  function createRequest(string memory description, uint value, address payable recipient) public  restricted {... */\n      pop\n      pop\n      pop\n      jump\t// out\n        /* \"Campaign.sol\":875:906  uint public minimumContribution */\n    tag_48:\n      sload(0x02)\n      dup2\n      jump\t// out\n        /* \"Campaign.sol\":2984:3174  function getRequest(uint index) public view returns (string memory) {... */\n    tag_53:\n        /* \"Campaign.sol\":3037:3050  string memory */\n      0x60\n        /* \"Campaign.sol\":3062:3085  Request storage request */\n      0x00\n        /* \"Campaign.sol\":3088:3096  requests */\n      dup1\n        /* \"Campaign.sol\":3097:3102  index */\n      dup4\n        /* \"Campaign.sol\":3088:3103  requests[index] */\n      dup2\n      sload\n      dup2\n      lt\n      tag_95\n      jumpi\n      tag_96\n      tag_67\n      jump\t// in\n    tag_96:\n    tag_95:\n      swap1\n      0x00\n      mstore\n      keccak256(0x00, 0x20)\n      swap1\n      0x05\n      mul\n      add\n        /* \"Campaign.sol\":3062:3103  Request storage request = requests[index] */\n      swap1\n      pop\n        /* \"Campaign.sol\":3134:3141  request */\n      dup1\n        /* \"Campaign.sol\":3134:3153  request.description */\n      0x00\n      add\n        /* \"Campaign.sol\":3113:3167  return (... */\n      dup1\n      sload\n      tag_98\n      swap1\n      tag_78\n      jump\t// in\n    tag_98:\n      dup1\n      0x1f\n      add\n      0x20\n      dup1\n      swap2\n      div\n      mul\n      0x20\n      add\n      mload(0x40)\n      swap1\n      dup2\n      add\n      0x40\n      mstore\n      dup1\n      swap3\n      swap2\n      swap1\n      dup2\n      dup2\n      mstore\n      0x20\n      add\n      dup3\n      dup1\n      sload\n      tag_99\n      swap1\n      tag_78\n      jump\t// in\n    tag_99:\n      dup1\n      iszero\n      tag_100\n      jumpi\n      dup1\n      0x1f\n      lt\n      tag_101\n      jumpi\n      0x0100\n      dup1\n      dup4\n      sload\n      div\n      mul\n      dup4\n      mstore\n      swap2\n      0x20\n      add\n      swap2\n      jump(tag_100)\n    tag_101:\n      dup3\n      add\n      swap2\n      swap1\n      0x00\n      mstore\n      keccak256(0x00, 0x20)\n      swap1\n    tag_102:\n      dup2\n      sload\n      dup2\n      mstore\n      swap1\n      0x01\n      add\n      swap1\n      0x20\n      add\n      dup1\n      dup4\n      gt\n      tag_102\n      jumpi\n      dup3\n      swap1\n      sub\n      0x1f\n      and\n      dup3\n      add\n      swap2\n    tag_100:\n      pop\n      pop\n      pop\n      pop\n      pop\n      swap2\n      pop\n      pop\n        /* \"Campaign.sol\":2984:3174  function getRequest(uint index) public view returns (string memory) {... */\n      swap2\n      swap1\n      pop\n      jump\t// out\n        /* \"Campaign.sol\":1362:1686  function contribute() public payable {... */\n    tag_57:\n        /* \"Campaign.sol\":1429:1448  minimumContribution */\n      sload(0x02)\n        /* \"Campaign.sol\":1417:1426  msg.value */\n      callvalue\n        /* \"Campaign.sol\":1417:1448  msg.value > minimumContribution */\n      gt\n        /* \"Campaign.sol\":1409:1449  require(msg.value > minimumContribution) */\n      tag_104\n      jumpi\n      0x00\n      dup1\n      revert\n    tag_104:\n        /* \"Campaign.sol\":1592:1596  true */\n      0x01\n        /* \"Campaign.sol\":1568:1577  approvers */\n      0x03\n        /* \"Campaign.sol\":1568:1589  approvers[msg.sender] */\n      0x00\n        /* \"Campaign.sol\":1578:1588  msg.sender */\n      caller\n        /* \"Campaign.sol\":1568:1589  approvers[msg.sender] */\n      0xffffffffffffffffffffffffffffffffffffffff\n      and\n      0xffffffffffffffffffffffffffffffffffffffff\n      and\n      dup2\n      mstore\n      0x20\n      add\n      swap1\n      dup2\n      mstore\n      0x20\n      add\n      0x00\n      keccak256\n      0x00\n        /* \"Campaign.sol\":1568:1596  approvers[msg.sender] = true */\n      0x0100\n      exp\n      dup2\n      sload\n      dup2\n      0xff\n      mul\n      not\n      and\n      swap1\n      dup4\n      iszero\n      iszero\n      mul\n      or\n      swap1\n      sstore\n      pop\n        /* \"Campaign.sol\":1663:1677  approversCount */\n      0x04\n      0x00\n        /* \"Campaign.sol\":1663:1679  approversCount++ */\n      dup2\n      sload\n      dup1\n      swap3\n      swap2\n      swap1\n      tag_105\n      swap1\n      tag_106\n      jump\t// in\n    tag_105:\n      swap2\n      swap1\n      pop\n      sstore\n      pop\n        /* \"Campaign.sol\":1362:1686  function contribute() public payable {... */\n      jump\t// out\n        /* \"Campaign.sol\":2084:2529  function approveRequest(uint index) public { // index of the Request[]... */\n    tag_61:\n        /* \"Campaign.sol\":2171:2180  approvers */\n      0x03\n        /* \"Campaign.sol\":2171:2192  approvers[msg.sender] */\n      0x00\n        /* \"Campaign.sol\":2181:2191  msg.sender */\n      caller\n        /* \"Campaign.sol\":2171:2192  approvers[msg.sender] */\n      0xffffffffffffffffffffffffffffffffffffffff\n      and\n      0xffffffffffffffffffffffffffffffffffffffff\n      and\n      dup2\n      mstore\n      0x20\n      add\n      swap1\n      dup2\n      mstore\n      0x20\n      add\n      0x00\n      keccak256\n      0x00\n      swap1\n      sload\n      swap1\n      0x0100\n      exp\n      swap1\n      div\n      0xff\n      and\n        /* \"Campaign.sol\":2163:2193  require(approvers[msg.sender]) */\n      tag_108\n      jumpi\n      0x00\n      dup1\n      revert\n    tag_108:\n        /* \"Campaign.sol\":2241:2264  Request storage request */\n      0x00\n        /* \"Campaign.sol\":2267:2275  requests */\n      dup1\n        /* \"Campaign.sol\":2276:2281  index */\n      dup3\n        /* \"Campaign.sol\":2267:2282  requests[index] */\n      dup2\n      sload\n      dup2\n      lt\n      tag_109\n      jumpi\n      tag_110\n      tag_67\n      jump\t// in\n    tag_110:\n    tag_109:\n      swap1\n      0x00\n      mstore\n      keccak256(0x00, 0x20)\n      swap1\n      0x05\n      mul\n      add\n        /* \"Campaign.sol\":2241:2282  Request storage request = requests[index] */\n      swap1\n      pop\n        /* \"Campaign.sol\":2361:2368  request */\n      dup1\n        /* \"Campaign.sol\":2361:2378  request.approvals */\n      0x04\n      add\n        /* \"Campaign.sol\":2361:2390  request.approvals[msg.sender] */\n      0x00\n        /* \"Campaign.sol\":2379:2389  msg.sender */\n      caller\n        /* \"Campaign.sol\":2361:2390  request.approvals[msg.sender] */\n      0xffffffffffffffffffffffffffffffffffffffff\n      and\n      0xffffffffffffffffffffffffffffffffffffffff\n      and\n      dup2\n      mstore\n      0x20\n      add\n      swap1\n      dup2\n      mstore\n      0x20\n      add\n      0x00\n      keccak256\n      0x00\n      swap1\n      sload\n      swap1\n      0x0100\n      exp\n      swap1\n      div\n      0xff\n      and\n        /* \"Campaign.sol\":2360:2390  !request.approvals[msg.sender] */\n      iszero\n        /* \"Campaign.sol\":2352:2391  require(!request.approvals[msg.sender]) */\n      tag_112\n      jumpi\n      0x00\n      dup1\n      revert\n    tag_112:\n        /* \"Campaign.sol\":2485:2489  true */\n      0x01\n        /* \"Campaign.sol\":2453:2460  request */\n      dup2\n        /* \"Campaign.sol\":2453:2470  request.approvals */\n      0x04\n      add\n        /* \"Campaign.sol\":2453:2482  request.approvals[msg.sender] */\n      0x00\n        /* \"Campaign.sol\":2471:2481  msg.sender */\n      caller\n        /* \"Campaign.sol\":2453:2482  request.approvals[msg.sender] */\n      0xffffffffffffffffffffffffffffffffffffffff\n      and\n      0xffffffffffffffffffffffffffffffffffffffff\n      and\n      dup2\n      mstore\n      0x20\n      add\n      swap1\n      dup2\n      mstore\n      0x20\n      add\n      0x00\n      keccak256\n      0x00\n        /* \"Campaign.sol\":2453:2489  request.approvals[msg.sender] = true */\n      0x0100\n      exp\n      dup2\n      sload\n      dup2\n      0xff\n      mul\n      not\n      and\n      swap1\n      dup4\n      iszero\n      iszero\n      mul\n      or\n      swap1\n      sstore\n      pop\n        /* \"Campaign.sol\":2499:2506  request */\n      dup1\n        /* \"Campaign.sol\":2499:2520  request.approvalCount */\n      0x03\n      add\n      0x00\n        /* \"Campaign.sol\":2499:2522  request.approvalCount++ */\n      dup2\n      sload\n      dup1\n      swap3\n      swap2\n      swap1\n      tag_113\n      swap1\n      tag_106\n      jump\t// in\n    tag_113:\n      swap2\n      swap1\n      pop\n      sstore\n      pop\n        /* \"Campaign.sol\":2127:2529  { // index of the Request[]... */\n      pop\n        /* \"Campaign.sol\":2084:2529  function approveRequest(uint index) public { // index of the Request[]... */\n      pop\n      jump\t// out\n        /* \"#utility.yul\":7:82   */\n    tag_114:\n        /* \"#utility.yul\":40:46   */\n      0x00\n        /* \"#utility.yul\":73:75   */\n      0x40\n        /* \"#utility.yul\":67:76   */\n      mload\n        /* \"#utility.yul\":57:76   */\n      swap1\n      pop\n        /* \"#utility.yul\":7:82   */\n      swap1\n      jump\t// out\n        /* \"#utility.yul\":88:205   */\n    tag_115:\n        /* \"#utility.yul\":197:198   */\n      0x00\n        /* \"#utility.yul\":194:195   */\n      dup1\n        /* \"#utility.yul\":187:199   */\n      revert\n        /* \"#utility.yul\":211:328   */\n    tag_116:\n        /* \"#utility.yul\":320:321   */\n      0x00\n        /* \"#utility.yul\":317:318   */\n      dup1\n        /* \"#utility.yul\":310:322   */\n      revert\n        /* \"#utility.yul\":334:411   */\n    tag_117:\n        /* \"#utility.yul\":371:378   */\n      0x00\n        /* \"#utility.yul\":400:405   */\n      dup2\n        /* \"#utility.yul\":389:405   */\n      swap1\n      pop\n        /* \"#utility.yul\":334:411   */\n      swap2\n      swap1\n      pop\n      jump\t// out\n        /* \"#utility.yul\":417:539   */\n    tag_118:\n        /* \"#utility.yul\":490:514   */\n      tag_170\n        /* \"#utility.yul\":508:513   */\n      dup2\n        /* \"#utility.yul\":490:514   */\n      tag_117\n      jump\t// in\n    tag_170:\n        /* \"#utility.yul\":483:488   */\n      dup2\n        /* \"#utility.yul\":480:515   */\n      eq\n        /* \"#utility.yul\":470:533   */\n      tag_171\n      jumpi\n        /* \"#utility.yul\":529:530   */\n      0x00\n        /* \"#utility.yul\":526:527   */\n      dup1\n        /* \"#utility.yul\":519:531   */\n      revert\n        /* \"#utility.yul\":470:533   */\n    tag_171:\n        /* \"#utility.yul\":417:539   */\n      pop\n      jump\t// out\n        /* \"#utility.yul\":545:684   */\n    tag_119:\n        /* \"#utility.yul\":591:596   */\n      0x00\n        /* \"#utility.yul\":629:635   */\n      dup2\n        /* \"#utility.yul\":616:636   */\n      calldataload\n        /* \"#utility.yul\":607:636   */\n      swap1\n      pop\n        /* \"#utility.yul\":645:678   */\n      tag_173\n        /* \"#utility.yul\":672:677   */\n      dup2\n        /* \"#utility.yul\":645:678   */\n      tag_118\n      jump\t// in\n    tag_173:\n        /* \"#utility.yul\":545:684   */\n      swap3\n      swap2\n      pop\n      pop\n      jump\t// out\n        /* \"#utility.yul\":690:1019   */\n    tag_16:\n        /* \"#utility.yul\":749:755   */\n      0x00\n        /* \"#utility.yul\":798:800   */\n      0x20\n        /* \"#utility.yul\":786:795   */\n      dup3\n        /* \"#utility.yul\":777:784   */\n      dup5\n        /* \"#utility.yul\":773:796   */\n      sub\n        /* \"#utility.yul\":769:801   */\n      slt\n        /* \"#utility.yul\":766:885   */\n      iszero\n      tag_175\n      jumpi\n        /* \"#utility.yul\":804:883   */\n      tag_176\n      tag_115\n      jump\t// in\n    tag_176:\n        /* \"#utility.yul\":766:885   */\n    tag_175:\n        /* \"#utility.yul\":924:925   */\n      0x00\n        /* \"#utility.yul\":949:1002   */\n      tag_177\n        /* \"#utility.yul\":994:1001   */\n      dup5\n        /* \"#utility.yul\":985:991   */\n      dup3\n        /* \"#utility.yul\":974:983   */\n      dup6\n        /* \"#utility.yul\":970:992   */\n      add\n        /* \"#utility.yul\":949:1002   */\n      tag_119\n      jump\t// in\n    tag_177:\n        /* \"#utility.yul\":939:1002   */\n      swap2\n      pop\n        /* \"#utility.yul\":895:1012   */\n      pop\n        /* \"#utility.yul\":690:1019   */\n      swap3\n      swap2\n      pop\n      pop\n      jump\t// out\n        /* \"#utility.yul\":1025:1151   */\n    tag_120:\n        /* \"#utility.yul\":1062:1069   */\n      0x00\n        /* \"#utility.yul\":1102:1144   */\n      0xffffffffffffffffffffffffffffffffffffffff\n        /* \"#utility.yul\":1095:1100   */\n      dup3\n        /* \"#utility.yul\":1091:1145   */\n      and\n        /* \"#utility.yul\":1080:1145   */\n      swap1\n      pop\n        /* \"#utility.yul\":1025:1151   */\n      swap2\n      swap1\n      pop\n      jump\t// out\n        /* \"#utility.yul\":1157:1253   */\n    tag_121:\n        /* \"#utility.yul\":1194:1201   */\n      0x00\n        /* \"#utility.yul\":1223:1247   */\n      tag_180\n        /* \"#utility.yul\":1241:1246   */\n      dup3\n        /* \"#utility.yul\":1223:1247   */\n      tag_120\n      jump\t// in\n    tag_180:\n        /* \"#utility.yul\":1212:1247   */\n      swap1\n      pop\n        /* \"#utility.yul\":1157:1253   */\n      swap2\n      swap1\n      pop\n      jump\t// out\n        /* \"#utility.yul\":1259:1381   */\n    tag_122:\n        /* \"#utility.yul\":1332:1356   */\n      tag_182\n        /* \"#utility.yul\":1350:1355   */\n      dup2\n        /* \"#utility.yul\":1332:1356   */\n      tag_121\n      jump\t// in\n    tag_182:\n        /* \"#utility.yul\":1325:1330   */\n      dup2\n        /* \"#utility.yul\":1322:1357   */\n      eq\n        /* \"#utility.yul\":1312:1375   */\n      tag_183\n      jumpi\n        /* \"#utility.yul\":1371:1372   */\n      0x00\n        /* \"#utility.yul\":1368:1369   */\n      dup1\n        /* \"#utility.yul\":1361:1373   */\n      revert\n        /* \"#utility.yul\":1312:1375   */\n    tag_183:\n        /* \"#utility.yul\":1259:1381   */\n      pop\n      jump\t// out\n        /* \"#utility.yul\":1387:1526   */\n    tag_123:\n        /* \"#utility.yul\":1433:1438   */\n      0x00\n        /* \"#utility.yul\":1471:1477   */\n      dup2\n        /* \"#utility.yul\":1458:1478   */\n      calldataload\n        /* \"#utility.yul\":1449:1478   */\n      swap1\n      pop\n        /* \"#utility.yul\":1487:1520   */\n      tag_185\n        /* \"#utility.yul\":1514:1519   */\n      dup2\n        /* \"#utility.yul\":1487:1520   */\n      tag_122\n      jump\t// in\n    tag_185:\n        /* \"#utility.yul\":1387:1526   */\n      swap3\n      swap2\n      pop\n      pop\n      jump\t// out\n        /* \"#utility.yul\":1532:1861   */\n    tag_21:\n        /* \"#utility.yul\":1591:1597   */\n      0x00\n        /* \"#utility.yul\":1640:1642   */\n      0x20\n        /* \"#utility.yul\":1628:1637   */\n      dup3\n        /* \"#utility.yul\":1619:1626   */\n      dup5\n        /* \"#utility.yul\":1615:1638   */\n      sub\n        /* \"#utility.yul\":1611:1643   */\n      slt\n        /* \"#utility.yul\":1608:1727   */\n      iszero\n      tag_187\n      jumpi\n        /* \"#utility.yul\":1646:1725   */\n      tag_188\n      tag_115\n      jump\t// in\n    tag_188:\n        /* \"#utility.yul\":1608:1727   */\n    tag_187:\n        /* \"#utility.yul\":1766:1767   */\n      0x00\n        /* \"#utility.yul\":1791:1844   */\n      tag_189\n        /* \"#utility.yul\":1836:1843   */\n      dup5\n        /* \"#utility.yul\":1827:1833   */\n      dup3\n        /* \"#utility.yul\":1816:1825   */\n      dup6\n        /* \"#utility.yul\":1812:1834   */\n      add\n        /* \"#utility.yul\":1791:1844   */\n      tag_123\n      jump\t// in\n    tag_189:\n        /* \"#utility.yul\":1781:1844   */\n      swap2\n      pop\n        /* \"#utility.yul\":1737:1854   */\n      pop\n        /* \"#utility.yul\":1532:1861   */\n      swap3\n      swap2\n      pop\n      pop\n      jump\t// out\n        /* \"#utility.yul\":1867:1957   */\n    tag_124:\n        /* \"#utility.yul\":1901:1908   */\n      0x00\n        /* \"#utility.yul\":1944:1949   */\n      dup2\n        /* \"#utility.yul\":1937:1950   */\n      iszero\n        /* \"#utility.yul\":1930:1951   */\n      iszero\n        /* \"#utility.yul\":1919:1951   */\n      swap1\n      pop\n        /* \"#utility.yul\":1867:1957   */\n      swap2\n      swap1\n      pop\n      jump\t// out\n        /* \"#utility.yul\":1963:2072   */\n    tag_125:\n        /* \"#utility.yul\":2044:2065   */\n      tag_192\n        /* \"#utility.yul\":2059:2064   */\n      dup2\n        /* \"#utility.yul\":2044:2065   */\n      tag_124\n      jump\t// in\n    tag_192:\n        /* \"#utility.yul\":2039:2042   */\n      dup3\n        /* \"#utility.yul\":2032:2066   */\n      mstore\n        /* \"#utility.yul\":1963:2072   */\n      pop\n      pop\n      jump\t// out\n        /* \"#utility.yul\":2078:2288   */\n    tag_24:\n        /* \"#utility.yul\":2165:2169   */\n      0x00\n        /* \"#utility.yul\":2203:2205   */\n      0x20\n        /* \"#utility.yul\":2192:2201   */\n      dup3\n        /* \"#utility.yul\":2188:2206   */\n      add\n        /* \"#utility.yul\":2180:2206   */\n      swap1\n      pop\n        /* \"#utility.yul\":2216:2281   */\n      tag_194\n        /* \"#utility.yul\":2278:2279   */\n      0x00\n        /* \"#utility.yul\":2267:2276   */\n      dup4\n        /* \"#utility.yul\":2263:2280   */\n      add\n        /* \"#utility.yul\":2254:2260   */\n      dup5\n        /* \"#utility.yul\":2216:2281   */\n      tag_125\n      jump\t// in\n    tag_194:\n        /* \"#utility.yul\":2078:2288   */\n      swap3\n      swap2\n      pop\n      pop\n      jump\t// out\n        /* \"#utility.yul\":2294:2412   */\n    tag_126:\n        /* \"#utility.yul\":2381:2405   */\n      tag_196\n        /* \"#utility.yul\":2399:2404   */\n      dup2\n        /* \"#utility.yul\":2381:2405   */\n      tag_121\n      jump\t// in\n    tag_196:\n        /* \"#utility.yul\":2376:2379   */\n      dup3\n        /* \"#utility.yul\":2369:2406   */\n      mstore\n        /* \"#utility.yul\":2294:2412   */\n      pop\n      pop\n      jump\t// out\n        /* \"#utility.yul\":2418:2640   */\n    tag_29:\n        /* \"#utility.yul\":2511:2515   */\n      0x00\n        /* \"#utility.yul\":2549:2551   */\n      0x20\n        /* \"#utility.yul\":2538:2547   */\n      dup3\n        /* \"#utility.yul\":2534:2552   */\n      add\n        /* \"#utility.yul\":2526:2552   */\n      swap1\n      pop\n        /* \"#utility.yul\":2562:2633   */\n      tag_198\n        /* \"#utility.yul\":2630:2631   */\n      0x00\n        /* \"#utility.yul\":2619:2628   */\n      dup4\n        /* \"#utility.yul\":2615:2632   */\n      add\n        /* \"#utility.yul\":2606:2612   */\n      dup5\n        /* \"#utility.yul\":2562:2633   */\n      tag_126\n      jump\t// in\n    tag_198:\n        /* \"#utility.yul\":2418:2640   */\n      swap3\n      swap2\n      pop\n      pop\n      jump\t// out\n        /* \"#utility.yul\":2646:2745   */\n    tag_127:\n        /* \"#utility.yul\":2698:2704   */\n      0x00\n        /* \"#utility.yul\":2732:2737   */\n      dup2\n        /* \"#utility.yul\":2726:2738   */\n      mload\n        /* \"#utility.yul\":2716:2738   */\n      swap1\n      pop\n        /* \"#utility.yul\":2646:2745   */\n      swap2\n      swap1\n      pop\n      jump\t// out\n        /* \"#utility.yul\":2751:2920   */\n    tag_128:\n        /* \"#utility.yul\":2835:2846   */\n      0x00\n        /* \"#utility.yul\":2869:2875   */\n      dup3\n        /* \"#utility.yul\":2864:2867   */\n      dup3\n        /* \"#utility.yul\":2857:2876   */\n      mstore\n        /* \"#utility.yul\":2909:2913   */\n      0x20\n        /* \"#utility.yul\":2904:2907   */\n      dup3\n        /* \"#utility.yul\":2900:2914   */\n      add\n        /* \"#utility.yul\":2885:2914   */\n      swap1\n      pop\n        /* \"#utility.yul\":2751:2920   */\n      swap3\n      swap2\n      pop\n      pop\n      jump\t// out\n        /* \"#utility.yul\":2926:3065   */\n    tag_129:\n        /* \"#utility.yul\":3015:3021   */\n      dup3\n        /* \"#utility.yul\":3010:3013   */\n      dup2\n        /* \"#utility.yul\":3005:3008   */\n      dup4\n        /* \"#utility.yul\":2999:3022   */\n      mcopy\n        /* \"#utility.yul\":3056:3057   */\n      0x00\n        /* \"#utility.yul\":3047:3053   */\n      dup4\n        /* \"#utility.yul\":3042:3045   */\n      dup4\n        /* \"#utility.yul\":3038:3054   */\n      add\n        /* \"#utility.yul\":3031:3058   */\n      mstore\n        /* \"#utility.yul\":2926:3065   */\n      pop\n      pop\n      pop\n      jump\t// out\n        /* \"#utility.yul\":3071:3173   */\n    tag_130:\n        /* \"#utility.yul\":3112:3118   */\n      0x00\n        /* \"#utility.yul\":3163:3165   */\n      0x1f\n        /* \"#utility.yul\":3159:3166   */\n      not\n        /* \"#utility.yul\":3154:3156   */\n      0x1f\n        /* \"#utility.yul\":3147:3152   */\n      dup4\n        /* \"#utility.yul\":3143:3157   */\n      add\n        /* \"#utility.yul\":3139:3167   */\n      and\n        /* \"#utility.yul\":3129:3167   */\n      swap1\n      pop\n        /* \"#utility.yul\":3071:3173   */\n      swap2\n      swap1\n      pop\n      jump\t// out\n        /* \"#utility.yul\":3179:3556   */\n    tag_131:\n        /* \"#utility.yul\":3267:3270   */\n      0x00\n        /* \"#utility.yul\":3295:3334   */\n      tag_204\n        /* \"#utility.yul\":3328:3333   */\n      dup3\n        /* \"#utility.yul\":3295:3334   */\n      tag_127\n      jump\t// in\n    tag_204:\n        /* \"#utility.yul\":3350:3421   */\n      tag_205\n        /* \"#utility.yul\":3414:3420   */\n      dup2\n        /* \"#utility.yul\":3409:3412   */\n      dup6\n        /* \"#utility.yul\":3350:3421   */\n      tag_128\n      jump\t// in\n    tag_205:\n        /* \"#utility.yul\":3343:3421   */\n      swap4\n      pop\n        /* \"#utility.yul\":3430:3495   */\n      tag_206\n        /* \"#utility.yul\":3488:3494   */\n      dup2\n        /* \"#utility.yul\":3483:3486   */\n      dup6\n        /* \"#utility.yul\":3476:3480   */\n      0x20\n        /* \"#utility.yul\":3469:3474   */\n      dup7\n        /* \"#utility.yul\":3465:3481   */\n      add\n        /* \"#utility.yul\":3430:3495   */\n      tag_129\n      jump\t// in\n    tag_206:\n        /* \"#utility.yul\":3520:3549   */\n      tag_207\n        /* \"#utility.yul\":3542:3548   */\n      dup2\n        /* \"#utility.yul\":3520:3549   */\n      tag_130\n      jump\t// in\n    tag_207:\n        /* \"#utility.yul\":3515:3518   */\n      dup5\n        /* \"#utility.yul\":3511:3550   */\n      add\n        /* \"#utility.yul\":3504:3550   */\n      swap2\n      pop\n        /* \"#utility.yul\":3271:3556   */\n      pop\n        /* \"#utility.yul\":3179:3556   */\n      swap3\n      swap2\n      pop\n      pop\n      jump\t// out\n        /* \"#utility.yul\":3562:3680   */\n    tag_132:\n        /* \"#utility.yul\":3649:3673   */\n      tag_209\n        /* \"#utility.yul\":3667:3672   */\n      dup2\n        /* \"#utility.yul\":3649:3673   */\n      tag_117\n      jump\t// in\n    tag_209:\n        /* \"#utility.yul\":3644:3647   */\n      dup3\n        /* \"#utility.yul\":3637:3674   */\n      mstore\n        /* \"#utility.yul\":3562:3680   */\n      pop\n      pop\n      jump\t// out\n        /* \"#utility.yul\":3686:3790   */\n    tag_133:\n        /* \"#utility.yul\":3731:3738   */\n      0x00\n        /* \"#utility.yul\":3760:3784   */\n      tag_211\n        /* \"#utility.yul\":3778:3783   */\n      dup3\n        /* \"#utility.yul\":3760:3784   */\n      tag_120\n      jump\t// in\n    tag_211:\n        /* \"#utility.yul\":3749:3784   */\n      swap1\n      pop\n        /* \"#utility.yul\":3686:3790   */\n      swap2\n      swap1\n      pop\n      jump\t// out\n        /* \"#utility.yul\":3796:3938   */\n    tag_134:\n        /* \"#utility.yul\":3899:3931   */\n      tag_213\n        /* \"#utility.yul\":3925:3930   */\n      dup2\n        /* \"#utility.yul\":3899:3931   */\n      tag_133\n      jump\t// in\n    tag_213:\n        /* \"#utility.yul\":3894:3897   */\n      dup3\n        /* \"#utility.yul\":3887:3932   */\n      mstore\n        /* \"#utility.yul\":3796:3938   */\n      pop\n      pop\n      jump\t// out\n        /* \"#utility.yul\":3944:4719   */\n    tag_35:\n        /* \"#utility.yul\":4179:4183   */\n      0x00\n        /* \"#utility.yul\":4217:4220   */\n      0xa0\n        /* \"#utility.yul\":4206:4215   */\n      dup3\n        /* \"#utility.yul\":4202:4221   */\n      add\n        /* \"#utility.yul\":4194:4221   */\n      swap1\n      pop\n        /* \"#utility.yul\":4267:4276   */\n      dup2\n        /* \"#utility.yul\":4261:4265   */\n      dup2\n        /* \"#utility.yul\":4257:4277   */\n      sub\n        /* \"#utility.yul\":4253:4254   */\n      0x00\n        /* \"#utility.yul\":4242:4251   */\n      dup4\n        /* \"#utility.yul\":4238:4255   */\n      add\n        /* \"#utility.yul\":4231:4278   */\n      mstore\n        /* \"#utility.yul\":4295:4373   */\n      tag_215\n        /* \"#utility.yul\":4368:4372   */\n      dup2\n        /* \"#utility.yul\":4359:4365   */\n      dup9\n        /* \"#utility.yul\":4295:4373   */\n      tag_131\n      jump\t// in\n    tag_215:\n        /* \"#utility.yul\":4287:4373   */\n      swap1\n      pop\n        /* \"#utility.yul\":4383:4455   */\n      tag_216\n        /* \"#utility.yul\":4451:4453   */\n      0x20\n        /* \"#utility.yul\":4440:4449   */\n      dup4\n        /* \"#utility.yul\":4436:4454   */\n      add\n        /* \"#utility.yul\":4427:4433   */\n      dup8\n        /* \"#utility.yul\":4383:4455   */\n      tag_132\n      jump\t// in\n    tag_216:\n        /* \"#utility.yul\":4465:4553   */\n      tag_217\n        /* \"#utility.yul\":4549:4551   */\n      0x40\n        /* \"#utility.yul\":4538:4547   */\n      dup4\n        /* \"#utility.yul\":4534:4552   */\n      add\n        /* \"#utility.yul\":4525:4531   */\n      dup7\n        /* \"#utility.yul\":4465:4553   */\n      tag_134\n      jump\t// in\n    tag_217:\n        /* \"#utility.yul\":4563:4629   */\n      tag_218\n        /* \"#utility.yul\":4625:4627   */\n      0x60\n        /* \"#utility.yul\":4614:4623   */\n      dup4\n        /* \"#utility.yul\":4610:4628   */\n      add\n        /* \"#utility.yul\":4601:4607   */\n      dup6\n        /* \"#utility.yul\":4563:4629   */\n      tag_125\n      jump\t// in\n    tag_218:\n        /* \"#utility.yul\":4639:4712   */\n      tag_219\n        /* \"#utility.yul\":4707:4710   */\n      0x80\n        /* \"#utility.yul\":4696:4705   */\n      dup4\n        /* \"#utility.yul\":4692:4711   */\n      add\n        /* \"#utility.yul\":4683:4689   */\n      dup5\n        /* \"#utility.yul\":4639:4712   */\n      tag_132\n      jump\t// in\n    tag_219:\n        /* \"#utility.yul\":3944:4719   */\n      swap7\n      swap6\n      pop\n      pop\n      pop\n      pop\n      pop\n      pop\n      jump\t// out\n        /* \"#utility.yul\":4725:4947   */\n    tag_40:\n        /* \"#utility.yul\":4818:4822   */\n      0x00\n        /* \"#utility.yul\":4856:4858   */\n      0x20\n        /* \"#utility.yul\":4845:4854   */\n      dup3\n        /* \"#utility.yul\":4841:4859   */\n      add\n        /* \"#utility.yul\":4833:4859   */\n      swap1\n      pop\n        /* \"#utility.yul\":4869:4940   */\n      tag_221\n        /* \"#utility.yul\":4937:4938   */\n      0x00\n        /* \"#utility.yul\":4926:4935   */\n      dup4\n        /* \"#utility.yul\":4922:4939   */\n      add\n        /* \"#utility.yul\":4913:4919   */\n      dup5\n        /* \"#utility.yul\":4869:4940   */\n      tag_132\n      jump\t// in\n    tag_221:\n        /* \"#utility.yul\":4725:4947   */\n      swap3\n      swap2\n      pop\n      pop\n      jump\t// out\n        /* \"#utility.yul\":4953:5070   */\n    tag_135:\n        /* \"#utility.yul\":5062:5063   */\n      0x00\n        /* \"#utility.yul\":5059:5060   */\n      dup1\n        /* \"#utility.yul\":5052:5064   */\n      revert\n        /* \"#utility.yul\":5076:5193   */\n    tag_136:\n        /* \"#utility.yul\":5185:5186   */\n      0x00\n        /* \"#utility.yul\":5182:5183   */\n      dup1\n        /* \"#utility.yul\":5175:5187   */\n      revert\n        /* \"#utility.yul\":5199:5379   */\n    tag_137:\n        /* \"#utility.yul\":5247:5324   */\n      0x4e487b7100000000000000000000000000000000000000000000000000000000\n        /* \"#utility.yul\":5244:5245   */\n      0x00\n        /* \"#utility.yul\":5237:5325   */\n      mstore\n        /* \"#utility.yul\":5344:5348   */\n      0x41\n        /* \"#utility.yul\":5341:5342   */\n      0x04\n        /* \"#utility.yul\":5334:5349   */\n      mstore\n        /* \"#utility.yul\":5368:5372   */\n      0x24\n        /* \"#utility.yul\":5365:5366   */\n      0x00\n        /* \"#utility.yul\":5358:5373   */\n      revert\n        /* \"#utility.yul\":5385:5666   */\n    tag_138:\n        /* \"#utility.yul\":5468:5495   */\n      tag_226\n        /* \"#utility.yul\":5490:5494   */\n      dup3\n        /* \"#utility.yul\":5468:5495   */\n      tag_130\n      jump\t// in\n    tag_226:\n        /* \"#utility.yul\":5460:5466   */\n      dup2\n        /* \"#utility.yul\":5456:5496   */\n      add\n        /* \"#utility.yul\":5598:5604   */\n      dup2\n        /* \"#utility.yul\":5586:5596   */\n      dup2\n        /* \"#utility.yul\":5583:5605   */\n      lt\n        /* \"#utility.yul\":5562:5580   */\n      0xffffffffffffffff\n        /* \"#utility.yul\":5550:5560   */\n      dup3\n        /* \"#utility.yul\":5547:5581   */\n      gt\n        /* \"#utility.yul\":5544:5606   */\n      or\n        /* \"#utility.yul\":5541:5629   */\n      iszero\n      tag_227\n      jumpi\n        /* \"#utility.yul\":5609:5627   */\n      tag_228\n      tag_137\n      jump\t// in\n    tag_228:\n        /* \"#utility.yul\":5541:5629   */\n    tag_227:\n        /* \"#utility.yul\":5649:5659   */\n      dup1\n        /* \"#utility.yul\":5645:5647   */\n      0x40\n        /* \"#utility.yul\":5638:5660   */\n      mstore\n        /* \"#utility.yul\":5428:5666   */\n      pop\n        /* \"#utility.yul\":5385:5666   */\n      pop\n      pop\n      jump\t// out\n        /* \"#utility.yul\":5672:5801   */\n    tag_139:\n        /* \"#utility.yul\":5706:5712   */\n      0x00\n        /* \"#utility.yul\":5733:5753   */\n      tag_230\n      tag_114\n      jump\t// in\n    tag_230:\n        /* \"#utility.yul\":5723:5753   */\n      swap1\n      pop\n        /* \"#utility.yul\":5762:5795   */\n      tag_231\n        /* \"#utility.yul\":5790:5794   */\n      dup3\n        /* \"#utility.yul\":5782:5788   */\n      dup3\n        /* \"#utility.yul\":5762:5795   */\n      tag_138\n      jump\t// in\n    tag_231:\n        /* \"#utility.yul\":5672:5801   */\n      swap2\n      swap1\n      pop\n      jump\t// out\n        /* \"#utility.yul\":5807:6115   */\n    tag_140:\n        /* \"#utility.yul\":5869:5873   */\n      0x00\n        /* \"#utility.yul\":5959:5977   */\n      0xffffffffffffffff\n        /* \"#utility.yul\":5951:5957   */\n      dup3\n        /* \"#utility.yul\":5948:5978   */\n      gt\n        /* \"#utility.yul\":5945:6001   */\n      iszero\n      tag_233\n      jumpi\n        /* \"#utility.yul\":5981:5999   */\n      tag_234\n      tag_137\n      jump\t// in\n    tag_234:\n        /* \"#utility.yul\":5945:6001   */\n    tag_233:\n        /* \"#utility.yul\":6019:6048   */\n      tag_235\n        /* \"#utility.yul\":6041:6047   */\n      dup3\n        /* \"#utility.yul\":6019:6048   */\n      tag_130\n      jump\t// in\n    tag_235:\n        /* \"#utility.yul\":6011:6048   */\n      swap1\n      pop\n        /* \"#utility.yul\":6103:6107   */\n      0x20\n        /* \"#utility.yul\":6097:6101   */\n      dup2\n        /* \"#utility.yul\":6093:6108   */\n      add\n        /* \"#utility.yul\":6085:6108   */\n      swap1\n      pop\n        /* \"#utility.yul\":5807:6115   */\n      swap2\n      swap1\n      pop\n      jump\t// out\n        /* \"#utility.yul\":6121:6269   */\n    tag_141:\n        /* \"#utility.yul\":6219:6225   */\n      dup3\n        /* \"#utility.yul\":6214:6217   */\n      dup2\n        /* \"#utility.yul\":6209:6212   */\n      dup4\n        /* \"#utility.yul\":6196:6226   */\n      calldatacopy\n        /* \"#utility.yul\":6260:6261   */\n      0x00\n        /* \"#utility.yul\":6251:6257   */\n      dup4\n        /* \"#utility.yul\":6246:6249   */\n      dup4\n        /* \"#utility.yul\":6242:6258   */\n      add\n        /* \"#utility.yul\":6235:6262   */\n      mstore\n        /* \"#utility.yul\":6121:6269   */\n      pop\n      pop\n      pop\n      jump\t// out\n        /* \"#utility.yul\":6275:6700   */\n    tag_142:\n        /* \"#utility.yul\":6353:6358   */\n      0x00\n        /* \"#utility.yul\":6378:6444   */\n      tag_238\n        /* \"#utility.yul\":6394:6443   */\n      tag_239\n        /* \"#utility.yul\":6436:6442   */\n      dup5\n        /* \"#utility.yul\":6394:6443   */\n      tag_140\n      jump\t// in\n    tag_239:\n        /* \"#utility.yul\":6378:6444   */\n      tag_139\n      jump\t// in\n    tag_238:\n        /* \"#utility.yul\":6369:6444   */\n      swap1\n      pop\n        /* \"#utility.yul\":6467:6473   */\n      dup3\n        /* \"#utility.yul\":6460:6465   */\n      dup2\n        /* \"#utility.yul\":6453:6474   */\n      mstore\n        /* \"#utility.yul\":6505:6509   */\n      0x20\n        /* \"#utility.yul\":6498:6503   */\n      dup2\n        /* \"#utility.yul\":6494:6510   */\n      add\n        /* \"#utility.yul\":6543:6546   */\n      dup5\n        /* \"#utility.yul\":6534:6540   */\n      dup5\n        /* \"#utility.yul\":6529:6532   */\n      dup5\n        /* \"#utility.yul\":6525:6541   */\n      add\n        /* \"#utility.yul\":6522:6547   */\n      gt\n        /* \"#utility.yul\":6519:6631   */\n      iszero\n      tag_240\n      jumpi\n        /* \"#utility.yul\":6550:6629   */\n      tag_241\n      tag_136\n      jump\t// in\n    tag_241:\n        /* \"#utility.yul\":6519:6631   */\n    tag_240:\n        /* \"#utility.yul\":6640:6694   */\n      tag_242\n        /* \"#utility.yul\":6687:6693   */\n      dup5\n        /* \"#utility.yul\":6682:6685   */\n      dup3\n        /* \"#utility.yul\":6677:6680   */\n      dup6\n        /* \"#utility.yul\":6640:6694   */\n      tag_141\n      jump\t// in\n    tag_242:\n        /* \"#utility.yul\":6359:6700   */\n      pop\n        /* \"#utility.yul\":6275:6700   */\n      swap4\n      swap3\n      pop\n      pop\n      pop\n      jump\t// out\n        /* \"#utility.yul\":6720:7060   */\n    tag_143:\n        /* \"#utility.yul\":6776:6781   */\n      0x00\n        /* \"#utility.yul\":6825:6828   */\n      dup3\n        /* \"#utility.yul\":6818:6822   */\n      0x1f\n        /* \"#utility.yul\":6810:6816   */\n      dup4\n        /* \"#utility.yul\":6806:6823   */\n      add\n        /* \"#utility.yul\":6802:6829   */\n      slt\n        /* \"#utility.yul\":6792:6914   */\n      tag_244\n      jumpi\n        /* \"#utility.yul\":6833:6912   */\n      tag_245\n      tag_135\n      jump\t// in\n    tag_245:\n        /* \"#utility.yul\":6792:6914   */\n    tag_244:\n        /* \"#utility.yul\":6950:6956   */\n      dup2\n        /* \"#utility.yul\":6937:6957   */\n      calldataload\n        /* \"#utility.yul\":6975:7054   */\n      tag_246\n        /* \"#utility.yul\":7050:7053   */\n      dup5\n        /* \"#utility.yul\":7042:7048   */\n      dup3\n        /* \"#utility.yul\":7035:7039   */\n      0x20\n        /* \"#utility.yul\":7027:7033   */\n      dup7\n        /* \"#utility.yul\":7023:7040   */\n      add\n        /* \"#utility.yul\":6975:7054   */\n      tag_142\n      jump\t// in\n    tag_246:\n        /* \"#utility.yul\":6966:7054   */\n      swap2\n      pop\n        /* \"#utility.yul\":6782:7060   */\n      pop\n        /* \"#utility.yul\":6720:7060   */\n      swap3\n      swap2\n      pop\n      pop\n      jump\t// out\n        /* \"#utility.yul\":7066:7204   */\n    tag_144:\n        /* \"#utility.yul\":7147:7179   */\n      tag_248\n        /* \"#utility.yul\":7173:7178   */\n      dup2\n        /* \"#utility.yul\":7147:7179   */\n      tag_133\n      jump\t// in\n    tag_248:\n        /* \"#utility.yul\":7140:7145   */\n      dup2\n        /* \"#utility.yul\":7137:7180   */\n      eq\n        /* \"#utility.yul\":7127:7198   */\n      tag_249\n      jumpi\n        /* \"#utility.yul\":7194:7195   */\n      0x00\n        /* \"#utility.yul\":7191:7192   */\n      dup1\n        /* \"#utility.yul\":7184:7196   */\n      revert\n        /* \"#utility.yul\":7127:7198   */\n    tag_249:\n        /* \"#utility.yul\":7066:7204   */\n      pop\n      jump\t// out\n        /* \"#utility.yul\":7210:7365   */\n    tag_145:\n        /* \"#utility.yul\":7264:7269   */\n      0x00\n        /* \"#utility.yul\":7302:7308   */\n      dup2\n        /* \"#utility.yul\":7289:7309   */\n      calldataload\n        /* \"#utility.yul\":7280:7309   */\n      swap1\n      pop\n        /* \"#utility.yul\":7318:7359   */\n      tag_251\n        /* \"#utility.yul\":7353:7358   */\n      dup2\n        /* \"#utility.yul\":7318:7359   */\n      tag_144\n      jump\t// in\n    tag_251:\n        /* \"#utility.yul\":7210:7365   */\n      swap3\n      swap2\n      pop\n      pop\n      jump\t// out\n        /* \"#utility.yul\":7371:8186   */\n    tag_44:\n        /* \"#utility.yul\":7466:7472   */\n      0x00\n        /* \"#utility.yul\":7474:7480   */\n      dup1\n        /* \"#utility.yul\":7482:7488   */\n      0x00\n        /* \"#utility.yul\":7531:7533   */\n      0x60\n        /* \"#utility.yul\":7519:7528   */\n      dup5\n        /* \"#utility.yul\":7510:7517   */\n      dup7\n        /* \"#utility.yul\":7506:7529   */\n      sub\n        /* \"#utility.yul\":7502:7534   */\n      slt\n        /* \"#utility.yul\":7499:7618   */\n      iszero\n      tag_253\n      jumpi\n        /* \"#utility.yul\":7537:7616   */\n      tag_254\n      tag_115\n      jump\t// in\n    tag_254:\n        /* \"#utility.yul\":7499:7618   */\n    tag_253:\n        /* \"#utility.yul\":7685:7686   */\n      0x00\n        /* \"#utility.yul\":7674:7683   */\n      dup5\n        /* \"#utility.yul\":7670:7687   */\n      add\n        /* \"#utility.yul\":7657:7688   */\n      calldataload\n        /* \"#utility.yul\":7715:7733   */\n      0xffffffffffffffff\n        /* \"#utility.yul\":7707:7713   */\n      dup2\n        /* \"#utility.yul\":7704:7734   */\n      gt\n        /* \"#utility.yul\":7701:7818   */\n      iszero\n      tag_255\n      jumpi\n        /* \"#utility.yul\":7737:7816   */\n      tag_256\n      tag_116\n      jump\t// in\n    tag_256:\n        /* \"#utility.yul\":7701:7818   */\n    tag_255:\n        /* \"#utility.yul\":7842:7905   */\n      tag_257\n        /* \"#utility.yul\":7897:7904   */\n      dup7\n        /* \"#utility.yul\":7888:7894   */\n      dup3\n        /* \"#utility.yul\":7877:7886   */\n      dup8\n        /* \"#utility.yul\":7873:7895   */\n      add\n        /* \"#utility.yul\":7842:7905   */\n      tag_143\n      jump\t// in\n    tag_257:\n        /* \"#utility.yul\":7832:7905   */\n      swap4\n      pop\n        /* \"#utility.yul\":7628:7915   */\n      pop\n        /* \"#utility.yul\":7954:7956   */\n      0x20\n        /* \"#utility.yul\":7980:8033   */\n      tag_258\n        /* \"#utility.yul\":8025:8032   */\n      dup7\n        /* \"#utility.yul\":8016:8022   */\n      dup3\n        /* \"#utility.yul\":8005:8014   */\n      dup8\n        /* \"#utility.yul\":8001:8023   */\n      add\n        /* \"#utility.yul\":7980:8033   */\n      tag_119\n      jump\t// in\n    tag_258:\n        /* \"#utility.yul\":7970:8033   */\n      swap3\n      pop\n        /* \"#utility.yul\":7925:8043   */\n      pop\n        /* \"#utility.yul\":8082:8084   */\n      0x40\n        /* \"#utility.yul\":8108:8169   */\n      tag_259\n        /* \"#utility.yul\":8161:8168   */\n      dup7\n        /* \"#utility.yul\":8152:8158   */\n      dup3\n        /* \"#utility.yul\":8141:8150   */\n      dup8\n        /* \"#utility.yul\":8137:8159   */\n      add\n        /* \"#utility.yul\":8108:8169   */\n      tag_145\n      jump\t// in\n    tag_259:\n        /* \"#utility.yul\":8098:8169   */\n      swap2\n      pop\n        /* \"#utility.yul\":8053:8179   */\n      pop\n        /* \"#utility.yul\":7371:8186   */\n      swap3\n      pop\n      swap3\n      pop\n      swap3\n      jump\t// out\n        /* \"#utility.yul\":8192:8505   */\n    tag_55:\n        /* \"#utility.yul\":8305:8309   */\n      0x00\n        /* \"#utility.yul\":8343:8345   */\n      0x20\n        /* \"#utility.yul\":8332:8341   */\n      dup3\n        /* \"#utility.yul\":8328:8346   */\n      add\n        /* \"#utility.yul\":8320:8346   */\n      swap1\n      pop\n        /* \"#utility.yul\":8392:8401   */\n      dup2\n        /* \"#utility.yul\":8386:8390   */\n      dup2\n        /* \"#utility.yul\":8382:8402   */\n      sub\n        /* \"#utility.yul\":8378:8379   */\n      0x00\n        /* \"#utility.yul\":8367:8376   */\n      dup4\n        /* \"#utility.yul\":8363:8380   */\n      add\n        /* \"#utility.yul\":8356:8403   */\n      mstore\n        /* \"#utility.yul\":8420:8498   */\n      tag_261\n        /* \"#utility.yul\":8493:8497   */\n      dup2\n        /* \"#utility.yul\":8484:8490   */\n      dup5\n        /* \"#utility.yul\":8420:8498   */\n      tag_131\n      jump\t// in\n    tag_261:\n        /* \"#utility.yul\":8412:8498   */\n      swap1\n      pop\n        /* \"#utility.yul\":8192:8505   */\n      swap3\n      swap2\n      pop\n      pop\n      jump\t// out\n        /* \"#utility.yul\":8511:8691   */\n    tag_67:\n        /* \"#utility.yul\":8559:8636   */\n      0x4e487b7100000000000000000000000000000000000000000000000000000000\n        /* \"#utility.yul\":8556:8557   */\n      0x00\n        /* \"#utility.yul\":8549:8637   */\n      mstore\n        /* \"#utility.yul\":8656:8660   */\n      0x32\n        /* \"#utility.yul\":8653:8654   */\n      0x04\n        /* \"#utility.yul\":8646:8661   */\n      mstore\n        /* \"#utility.yul\":8680:8684   */\n      0x24\n        /* \"#utility.yul\":8677:8678   */\n      0x00\n        /* \"#utility.yul\":8670:8685   */\n      revert\n        /* \"#utility.yul\":8697:8877   */\n    tag_146:\n        /* \"#utility.yul\":8745:8822   */\n      0x4e487b7100000000000000000000000000000000000000000000000000000000\n        /* \"#utility.yul\":8742:8743   */\n      0x00\n        /* \"#utility.yul\":8735:8823   */\n      mstore\n        /* \"#utility.yul\":8842:8846   */\n      0x12\n        /* \"#utility.yul\":8839:8840   */\n      0x04\n        /* \"#utility.yul\":8832:8847   */\n      mstore\n        /* \"#utility.yul\":8866:8870   */\n      0x24\n        /* \"#utility.yul\":8863:8864   */\n      0x00\n        /* \"#utility.yul\":8856:8871   */\n      revert\n        /* \"#utility.yul\":8883:9063   */\n    tag_147:\n        /* \"#utility.yul\":8931:9008   */\n      0x4e487b7100000000000000000000000000000000000000000000000000000000\n        /* \"#utility.yul\":8928:8929   */\n      0x00\n        /* \"#utility.yul\":8921:9009   */\n      mstore\n        /* \"#utility.yul\":9028:9032   */\n      0x11\n        /* \"#utility.yul\":9025:9026   */\n      0x04\n        /* \"#utility.yul\":9018:9033   */\n      mstore\n        /* \"#utility.yul\":9052:9056   */\n      0x24\n        /* \"#utility.yul\":9049:9050   */\n      0x00\n        /* \"#utility.yul\":9042:9057   */\n      revert\n        /* \"#utility.yul\":9069:9254   */\n    tag_70:\n        /* \"#utility.yul\":9109:9110   */\n      0x00\n        /* \"#utility.yul\":9126:9146   */\n      tag_266\n        /* \"#utility.yul\":9144:9145   */\n      dup3\n        /* \"#utility.yul\":9126:9146   */\n      tag_117\n      jump\t// in\n    tag_266:\n        /* \"#utility.yul\":9121:9146   */\n      swap2\n      pop\n        /* \"#utility.yul\":9160:9180   */\n      tag_267\n        /* \"#utility.yul\":9178:9179   */\n      dup4\n        /* \"#utility.yul\":9160:9180   */\n      tag_117\n      jump\t// in\n    tag_267:\n        /* \"#utility.yul\":9155:9180   */\n      swap3\n      pop\n        /* \"#utility.yul\":9199:9200   */\n      dup3\n        /* \"#utility.yul\":9189:9224   */\n      tag_268\n      jumpi\n        /* \"#utility.yul\":9204:9222   */\n      tag_269\n      tag_146\n      jump\t// in\n    tag_269:\n        /* \"#utility.yul\":9189:9224   */\n    tag_268:\n        /* \"#utility.yul\":9246:9247   */\n      dup3\n        /* \"#utility.yul\":9243:9244   */\n      dup3\n        /* \"#utility.yul\":9239:9248   */\n      div\n        /* \"#utility.yul\":9234:9248   */\n      swap1\n      pop\n        /* \"#utility.yul\":9069:9254   */\n      swap3\n      swap2\n      pop\n      pop\n      jump\t// out\n        /* \"#utility.yul\":9260:9440   */\n    tag_148:\n        /* \"#utility.yul\":9308:9385   */\n      0x4e487b7100000000000000000000000000000000000000000000000000000000\n        /* \"#utility.yul\":9305:9306   */\n      0x00\n        /* \"#utility.yul\":9298:9386   */\n      mstore\n        /* \"#utility.yul\":9405:9409   */\n      0x22\n        /* \"#utility.yul\":9402:9403   */\n      0x04\n        /* \"#utility.yul\":9395:9410   */\n      mstore\n        /* \"#utility.yul\":9429:9433   */\n      0x24\n        /* \"#utility.yul\":9426:9427   */\n      0x00\n        /* \"#utility.yul\":9419:9434   */\n      revert\n        /* \"#utility.yul\":9446:9766   */\n    tag_78:\n        /* \"#utility.yul\":9490:9496   */\n      0x00\n        /* \"#utility.yul\":9527:9528   */\n      0x02\n        /* \"#utility.yul\":9521:9525   */\n      dup3\n        /* \"#utility.yul\":9517:9529   */\n      div\n        /* \"#utility.yul\":9507:9529   */\n      swap1\n      pop\n        /* \"#utility.yul\":9574:9575   */\n      0x01\n        /* \"#utility.yul\":9568:9572   */\n      dup3\n        /* \"#utility.yul\":9564:9576   */\n      and\n        /* \"#utility.yul\":9595:9613   */\n      dup1\n        /* \"#utility.yul\":9585:9666   */\n      tag_272\n      jumpi\n        /* \"#utility.yul\":9651:9655   */\n      0x7f\n        /* \"#utility.yul\":9643:9649   */\n      dup3\n        /* \"#utility.yul\":9639:9656   */\n      and\n        /* \"#utility.yul\":9629:9656   */\n      swap2\n      pop\n        /* \"#utility.yul\":9585:9666   */\n    tag_272:\n        /* \"#utility.yul\":9713:9715   */\n      0x20\n        /* \"#utility.yul\":9705:9711   */\n      dup3\n        /* \"#utility.yul\":9702:9716   */\n      lt\n        /* \"#utility.yul\":9682:9700   */\n      dup2\n        /* \"#utility.yul\":9679:9717   */\n      sub\n        /* \"#utility.yul\":9676:9760   */\n      tag_273\n      jumpi\n        /* \"#utility.yul\":9732:9750   */\n      tag_274\n      tag_148\n      jump\t// in\n    tag_274:\n        /* \"#utility.yul\":9676:9760   */\n    tag_273:\n        /* \"#utility.yul\":9497:9766   */\n      pop\n        /* \"#utility.yul\":9446:9766   */\n      swap2\n      swap1\n      pop\n      jump\t// out\n        /* \"#utility.yul\":9772:9966   */\n    tag_88:\n        /* \"#utility.yul\":9812:9816   */\n      0x00\n        /* \"#utility.yul\":9832:9852   */\n      tag_276\n        /* \"#utility.yul\":9850:9851   */\n      dup3\n        /* \"#utility.yul\":9832:9852   */\n      tag_117\n      jump\t// in\n    tag_276:\n        /* \"#utility.yul\":9827:9852   */\n      swap2\n      pop\n        /* \"#utility.yul\":9866:9886   */\n      tag_277\n        /* \"#utility.yul\":9884:9885   */\n      dup4\n        /* \"#utility.yul\":9866:9886   */\n      tag_117\n      jump\t// in\n    tag_277:\n        /* \"#utility.yul\":9861:9886   */\n      swap3\n      pop\n        /* \"#utility.yul\":9910:9911   */\n      dup3\n        /* \"#utility.yul\":9907:9908   */\n      dup3\n        /* \"#utility.yul\":9903:9912   */\n      sub\n        /* \"#utility.yul\":9895:9912   */\n      swap1\n      pop\n        /* \"#utility.yul\":9934:9935   */\n      dup2\n        /* \"#utility.yul\":9928:9932   */\n      dup2\n        /* \"#utility.yul\":9925:9936   */\n      gt\n        /* \"#utility.yul\":9922:9959   */\n      iszero\n      tag_278\n      jumpi\n        /* \"#utility.yul\":9939:9957   */\n      tag_279\n      tag_147\n      jump\t// in\n    tag_279:\n        /* \"#utility.yul\":9922:9959   */\n    tag_278:\n        /* \"#utility.yul\":9772:9966   */\n      swap3\n      swap2\n      pop\n      pop\n      jump\t// out\n        /* \"#utility.yul\":9972:10113   */\n    tag_149:\n        /* \"#utility.yul\":10021:10025   */\n      0x00\n        /* \"#utility.yul\":10044:10047   */\n      dup2\n        /* \"#utility.yul\":10036:10047   */\n      swap1\n      pop\n        /* \"#utility.yul\":10067:10070   */\n      dup2\n        /* \"#utility.yul\":10064:10065   */\n      0x00\n        /* \"#utility.yul\":10057:10071   */\n      mstore\n        /* \"#utility.yul\":10101:10105   */\n      0x20\n        /* \"#utility.yul\":10098:10099   */\n      0x00\n        /* \"#utility.yul\":10088:10106   */\n      keccak256\n        /* \"#utility.yul\":10080:10106   */\n      swap1\n      pop\n        /* \"#utility.yul\":9972:10113   */\n      swap2\n      swap1\n      pop\n      jump\t// out\n        /* \"#utility.yul\":10119:10212   */\n    tag_150:\n        /* \"#utility.yul\":10156:10162   */\n      0x00\n        /* \"#utility.yul\":10203:10205   */\n      0x20\n        /* \"#utility.yul\":10198:10200   */\n      0x1f\n        /* \"#utility.yul\":10191:10196   */\n      dup4\n        /* \"#utility.yul\":10187:10201   */\n      add\n        /* \"#utility.yul\":10183:10206   */\n      div\n        /* \"#utility.yul\":10173:10206   */\n      swap1\n      pop\n        /* \"#utility.yul\":10119:10212   */\n      swap2\n      swap1\n      pop\n      jump\t// out\n        /* \"#utility.yul\":10218:10325   */\n    tag_151:\n        /* \"#utility.yul\":10262:10270   */\n      0x00\n        /* \"#utility.yul\":10312:10317   */\n      dup3\n        /* \"#utility.yul\":10306:10310   */\n      dup3\n        /* \"#utility.yul\":10302:10318   */\n      shl\n        /* \"#utility.yul\":10281:10318   */\n      swap1\n      pop\n        /* \"#utility.yul\":10218:10325   */\n      swap3\n      swap2\n      pop\n      pop\n      jump\t// out\n        /* \"#utility.yul\":10331:10724   */\n    tag_152:\n        /* \"#utility.yul\":10400:10406   */\n      0x00\n        /* \"#utility.yul\":10450:10451   */\n      0x08\n        /* \"#utility.yul\":10438:10448   */\n      dup4\n        /* \"#utility.yul\":10434:10452   */\n      mul\n        /* \"#utility.yul\":10473:10570   */\n      tag_284\n        /* \"#utility.yul\":10503:10569   */\n      0xffffffffffffffffffffffffffffffffffffffffffffffffffffffffffffffff\n        /* \"#utility.yul\":10492:10501   */\n      dup3\n        /* \"#utility.yul\":10473:10570   */\n      tag_151\n      jump\t// in\n    tag_284:\n        /* \"#utility.yul\":10591:10630   */\n      tag_285\n        /* \"#utility.yul\":10621:10629   */\n      dup7\n        /* \"#utility.yul\":10610:10619   */\n      dup4\n        /* \"#utility.yul\":10591:10630   */\n      tag_151\n      jump\t// in\n    tag_285:\n        /* \"#utility.yul\":10579:10630   */\n      swap6\n      pop\n        /* \"#utility.yul\":10663:10667   */\n      dup1\n        /* \"#utility.yul\":10659:10668   */\n      not\n        /* \"#utility.yul\":10652:10657   */\n      dup5\n        /* \"#utility.yul\":10648:10669   */\n      and\n        /* \"#utility.yul\":10639:10669   */\n      swap4\n      pop\n        /* \"#utility.yul\":10712:10716   */\n      dup1\n        /* \"#utility.yul\":10702:10710   */\n      dup7\n        /* \"#utility.yul\":10698:10717   */\n      and\n        /* \"#utility.yul\":10691:10696   */\n      dup5\n        /* \"#utility.yul\":10688:10718   */\n      or\n        /* \"#utility.yul\":10678:10718   */\n      swap3\n      pop\n        /* \"#utility.yul\":10407:10724   */\n      pop\n      pop\n        /* \"#utility.yul\":10331:10724   */\n      swap4\n      swap3\n      pop\n      pop\n      pop\n      jump\t// out\n        /* \"#utility.yul\":10730:10790   */\n    tag_153:\n        /* \"#utility.yul\":10758:10761   */\n      0x00\n        /* \"#utility.yul\":10779:10784   */\n      dup2\n        /* \"#utility.yul\":10772:10784   */\n      swap1\n      pop\n        /* \"#utility.yul\":10730:10790   */\n      swap2\n      swap1\n      pop\n      jump\t// out\n        /* \"#utility.yul\":10796:10938   */\n    tag_154:\n        /* \"#utility.yul\":10846:10855   */\n      0x00\n        /* \"#utility.yul\":10879:10932   */\n      tag_288\n        /* \"#utility.yul\":10897:10931   */\n      tag_289\n        /* \"#utility.yul\":10906:10930   */\n      tag_290\n        /* \"#utility.yul\":10924:10929   */\n      dup5\n        /* \"#utility.yul\":10906:10930   */\n      tag_117\n      jump\t// in\n    tag_290:\n        /* \"#utility.yul\":10897:10931   */\n      tag_153\n      jump\t// in\n    tag_289:\n        /* \"#utility.yul\":10879:10932   */\n      tag_117\n      jump\t// in\n    tag_288:\n        /* \"#utility.yul\":10866:10932   */\n      swap1\n      pop\n        /* \"#utility.yul\":10796:10938   */\n      swap2\n      swap1\n      pop\n      jump\t// out\n        /* \"#utility.yul\":10944:11019   */\n    tag_155:\n        /* \"#utility.yul\":10987:10990   */\n      0x00\n        /* \"#utility.yul\":11008:11013   */\n      dup2\n        /* \"#utility.yul\":11001:11013   */\n      swap1\n      pop\n        /* \"#utility.yul\":10944:11019   */\n      swap2\n      swap1\n      pop\n      jump\t// out\n        /* \"#utility.yul\":11025:11294   */\n    tag_156:\n        /* \"#utility.yul\":11135:11174   */\n      tag_293\n        /* \"#utility.yul\":11166:11173   */\n      dup4\n        /* \"#utility.yul\":11135:11174   */\n      tag_154\n      jump\t// in\n    tag_293:\n        /* \"#utility.yul\":11196:11287   */\n      tag_294\n        /* \"#utility.yul\":11245:11286   */\n      tag_295\n        /* \"#utility.yul\":11269:11285   */\n      dup3\n        /* \"#utility.yul\":11245:11286   */\n      tag_155\n      jump\t// in\n    tag_295:\n        /* \"#utility.yul\":11237:11243   */\n      dup5\n        /* \"#utility.yul\":11230:11234   */\n      dup5\n        /* \"#utility.yul\":11224:11235   */\n      sload\n        /* \"#utility.yul\":11196:11287   */\n      tag_152\n      jump\t// in\n    tag_294:\n        /* \"#utility.yul\":11190:11194   */\n      dup3\n        /* \"#utility.yul\":11183:11288   */\n      sstore\n        /* \"#utility.yul\":11101:11294   */\n      pop\n        /* \"#utility.yul\":11025:11294   */\n      pop\n      pop\n      pop\n      jump\t// out\n        /* \"#utility.yul\":11300:11373   */\n    tag_157:\n        /* \"#utility.yul\":11345:11348   */\n      0x00\n        /* \"#utility.yul\":11300:11373   */\n      swap1\n      jump\t// out\n        /* \"#utility.yul\":11379:11568   */\n    tag_158:\n        /* \"#utility.yul\":11456:11488   */\n      tag_298\n      tag_157\n      jump\t// in\n    tag_298:\n        /* \"#utility.yul\":11497:11562   */\n      tag_299\n        /* \"#utility.yul\":11555:11561   */\n      dup2\n        /* \"#utility.yul\":11547:11553   */\n      dup5\n        /* \"#utility.yul\":11541:11545   */\n      dup5\n        /* \"#utility.yul\":11497:11562   */\n      tag_156\n      jump\t// in\n    tag_299:\n        /* \"#utility.yul\":11432:11568   */\n      pop\n        /* \"#utility.yul\":11379:11568   */\n      pop\n      pop\n      jump\t// out\n        /* \"#utility.yul\":11574:11760   */\n    tag_159:\n        /* \"#utility.yul\":11634:11754   */\n    tag_301:\n        /* \"#utility.yul\":11651:11654   */\n      dup2\n        /* \"#utility.yul\":11644:11649   */\n      dup2\n        /* \"#utility.yul\":11641:11655   */\n      lt\n        /* \"#utility.yul\":11634:11754   */\n      iszero\n      tag_303\n      jumpi\n        /* \"#utility.yul\":11705:11744   */\n      tag_304\n        /* \"#utility.yul\":11742:11743   */\n      0x00\n        /* \"#utility.yul\":11735:11740   */\n      dup3\n        /* \"#utility.yul\":11705:11744   */\n      tag_158\n      jump\t// in\n    tag_304:\n        /* \"#utility.yul\":11678:11679   */\n      0x01\n        /* \"#utility.yul\":11671:11676   */\n      dup2\n        /* \"#utility.yul\":11667:11680   */\n      add\n        /* \"#utility.yul\":11658:11680   */\n      swap1\n      pop\n        /* \"#utility.yul\":11634:11754   */\n      jump(tag_301)\n    tag_303:\n        /* \"#utility.yul\":11574:11760   */\n      pop\n      pop\n      jump\t// out\n        /* \"#utility.yul\":11766:12309   */\n    tag_160:\n        /* \"#utility.yul\":11867:11869   */\n      0x1f\n        /* \"#utility.yul\":11862:11865   */\n      dup3\n        /* \"#utility.yul\":11859:11870   */\n      gt\n        /* \"#utility.yul\":11856:12302   */\n      iszero\n      tag_306\n      jumpi\n        /* \"#utility.yul\":11901:11939   */\n      tag_307\n        /* \"#utility.yul\":11933:11938   */\n      dup2\n        /* \"#utility.yul\":11901:11939   */\n      tag_149\n      jump\t// in\n    tag_307:\n        /* \"#utility.yul\":11985:12014   */\n      tag_308\n        /* \"#utility.yul\":12003:12013   */\n      dup5\n        /* \"#utility.yul\":11985:12014   */\n      tag_150\n      jump\t// in\n    tag_308:\n        /* \"#utility.yul\":11975:11983   */\n      dup2\n        /* \"#utility.yul\":11971:12015   */\n      add\n        /* \"#utility.yul\":12168:12170   */\n      0x20\n        /* \"#utility.yul\":12156:12166   */\n      dup6\n        /* \"#utility.yul\":12153:12171   */\n      lt\n        /* \"#utility.yul\":12150:12199   */\n      iszero\n      tag_309\n      jumpi\n        /* \"#utility.yul\":12189:12197   */\n      dup2\n        /* \"#utility.yul\":12174:12197   */\n      swap1\n      pop\n        /* \"#utility.yul\":12150:12199   */\n    tag_309:\n        /* \"#utility.yul\":12212:12292   */\n      tag_310\n        /* \"#utility.yul\":12268:12290   */\n      tag_311\n        /* \"#utility.yul\":12286:12289   */\n      dup6\n        /* \"#utility.yul\":12268:12290   */\n      tag_150\n      jump\t// in\n    tag_311:\n        /* \"#utility.yul\":12258:12266   */\n      dup4\n        /* \"#utility.yul\":12254:12291   */\n      add\n        /* \"#utility.yul\":12241:12252   */\n      dup3\n        /* \"#utility.yul\":12212:12292   */\n      tag_159\n      jump\t// in\n    tag_310:\n        /* \"#utility.yul\":11871:12302   */\n      pop\n      pop\n        /* \"#utility.yul\":11856:12302   */\n    tag_306:\n        /* \"#utility.yul\":11766:12309   */\n      pop\n      pop\n      pop\n      jump\t// out\n        /* \"#utility.yul\":12315:12432   */\n    tag_161:\n        /* \"#utility.yul\":12369:12377   */\n      0x00\n        /* \"#utility.yul\":12419:12424   */\n      dup3\n        /* \"#utility.yul\":12413:12417   */\n      dup3\n        /* \"#utility.yul\":12409:12425   */\n      shr\n        /* \"#utility.yul\":12388:12425   */\n      swap1\n      pop\n        /* \"#utility.yul\":12315:12432   */\n      swap3\n      swap2\n      pop\n      pop\n      jump\t// out\n        /* \"#utility.yul\":12438:12607   */\n    tag_162:\n        /* \"#utility.yul\":12482:12488   */\n      0x00\n        /* \"#utility.yul\":12515:12566   */\n      tag_314\n        /* \"#utility.yul\":12563:12564   */\n      0x00\n        /* \"#utility.yul\":12559:12565   */\n      not\n        /* \"#utility.yul\":12551:12556   */\n      dup5\n        /* \"#utility.yul\":12548:12549   */\n      0x08\n        /* \"#utility.yul\":12544:12557   */\n      mul\n        /* \"#utility.yul\":12515:12566   */\n      tag_161\n      jump\t// in\n    tag_314:\n        /* \"#utility.yul\":12511:12567   */\n      not\n        /* \"#utility.yul\":12596:12600   */\n      dup1\n        /* \"#utility.yul\":12590:12594   */\n      dup4\n        /* \"#utility.yul\":12586:12601   */\n      and\n        /* \"#utility.yul\":12576:12601   */\n      swap2\n      pop\n        /* \"#utility.yul\":12489:12607   */\n      pop\n        /* \"#utility.yul\":12438:12607   */\n      swap3\n      swap2\n      pop\n      pop\n      jump\t// out\n        /* \"#utility.yul\":12612:12907   */\n    tag_163:\n        /* \"#utility.yul\":12688:12692   */\n      0x00\n        /* \"#utility.yul\":12834:12863   */\n      tag_316\n        /* \"#utility.yul\":12859:12862   */\n      dup4\n        /* \"#utility.yul\":12853:12857   */\n      dup4\n        /* \"#utility.yul\":12834:12863   */\n      tag_162\n      jump\t// in\n    tag_316:\n        /* \"#utility.yul\":12826:12863   */\n      swap2\n      pop\n        /* \"#utility.yul\":12896:12899   */\n      dup3\n        /* \"#utility.yul\":12893:12894   */\n      0x02\n        /* \"#utility.yul\":12889:12900   */\n      mul\n        /* \"#utility.yul\":12883:12887   */\n      dup3\n        /* \"#utility.yul\":12880:12901   */\n      or\n        /* \"#utility.yul\":12872:12901   */\n      swap1\n      pop\n        /* \"#utility.yul\":12612:12907   */\n      swap3\n      swap2\n      pop\n      pop\n      jump\t// out\n        /* \"#utility.yul\":12912:14307   */\n    tag_93:\n        /* \"#utility.yul\":13029:13066   */\n      tag_318\n        /* \"#utility.yul\":13062:13065   */\n      dup3\n        /* \"#utility.yul\":13029:13066   */\n      tag_127\n      jump\t// in\n    tag_318:\n        /* \"#utility.yul\":13131:13149   */\n      0xffffffffffffffff\n        /* \"#utility.yul\":13123:13129   */\n      dup2\n        /* \"#utility.yul\":13120:13150   */\n      gt\n        /* \"#utility.yul\":13117:13173   */\n      iszero\n      tag_319\n      jumpi\n        /* \"#utility.yul\":13153:13171   */\n      tag_320\n      tag_137\n      jump\t// in\n    tag_320:\n        /* \"#utility.yul\":13117:13173   */\n    tag_319:\n        /* \"#utility.yul\":13197:13235   */\n      tag_321\n        /* \"#utility.yul\":13229:13233   */\n      dup3\n        /* \"#utility.yul\":13223:13234   */\n      sload\n        /* \"#utility.yul\":13197:13235   */\n      tag_78\n      jump\t// in\n    tag_321:\n        /* \"#utility.yul\":13282:13349   */\n      tag_322\n        /* \"#utility.yul\":13342:13348   */\n      dup3\n        /* \"#utility.yul\":13334:13340   */\n      dup3\n        /* \"#utility.yul\":13328:13332   */\n      dup6\n        /* \"#utility.yul\":13282:13349   */\n      tag_160\n      jump\t// in\n    tag_322:\n        /* \"#utility.yul\":13376:13377   */\n      0x00\n        /* \"#utility.yul\":13400:13404   */\n      0x20\n        /* \"#utility.yul\":13387:13404   */\n      swap1\n      pop\n        /* \"#utility.yul\":13432:13434   */\n      0x1f\n        /* \"#utility.yul\":13424:13430   */\n      dup4\n        /* \"#utility.yul\":13421:13435   */\n      gt\n        /* \"#utility.yul\":13449:13450   */\n      0x01\n        /* \"#utility.yul\":13444:14062   */\n      dup2\n      eq\n      tag_324\n      jumpi\n        /* \"#utility.yul\":14106:14107   */\n      0x00\n        /* \"#utility.yul\":14123:14129   */\n      dup5\n        /* \"#utility.yul\":14120:14197   */\n      iszero\n      tag_325\n      jumpi\n        /* \"#utility.yul\":14172:14181   */\n      dup3\n        /* \"#utility.yul\":14167:14170   */\n      dup8\n        /* \"#utility.yul\":14163:14182   */\n      add\n        /* \"#utility.yul\":14157:14183   */\n      mload\n        /* \"#utility.yul\":14148:14183   */\n      swap1\n      pop\n        /* \"#utility.yul\":14120:14197   */\n    tag_325:\n        /* \"#utility.yul\":14223:14290   */\n      tag_326\n        /* \"#utility.yul\":14283:14289   */\n      dup6\n        /* \"#utility.yul\":14276:14281   */\n      dup3\n        /* \"#utility.yul\":14223:14290   */\n      tag_163\n      jump\t// in\n    tag_326:\n        /* \"#utility.yul\":14217:14221   */\n      dup7\n        /* \"#utility.yul\":14210:14291   */\n      sstore\n        /* \"#utility.yul\":14079:14301   */\n      pop\n        /* \"#utility.yul\":13414:14301   */\n      jump(tag_323)\n        /* \"#utility.yul\":13444:14062   */\n    tag_324:\n        /* \"#utility.yul\":13496:13500   */\n      0x1f\n        /* \"#utility.yul\":13492:13501   */\n      not\n        /* \"#utility.yul\":13484:13490   */\n      dup5\n        /* \"#utility.yul\":13480:13502   */\n      and\n        /* \"#utility.yul\":13530:13567   */\n      tag_327\n        /* \"#utility.yul\":13562:13566   */\n      dup7\n        /* \"#utility.yul\":13530:13567   */\n      tag_149\n      jump\t// in\n    tag_327:\n        /* \"#utility.yul\":13589:13590   */\n      0x00\n        /* \"#utility.yul\":13603:13811   */\n    tag_328:\n        /* \"#utility.yul\":13617:13624   */\n      dup3\n        /* \"#utility.yul\":13614:13615   */\n      dup2\n        /* \"#utility.yul\":13611:13625   */\n      lt\n        /* \"#utility.yul\":13603:13811   */\n      iszero\n      tag_330\n      jumpi\n        /* \"#utility.yul\":13696:13705   */\n      dup5\n        /* \"#utility.yul\":13691:13694   */\n      dup10\n        /* \"#utility.yul\":13687:13706   */\n      add\n        /* \"#utility.yul\":13681:13707   */\n      mload\n        /* \"#utility.yul\":13673:13679   */\n      dup3\n        /* \"#utility.yul\":13666:13708   */\n      sstore\n        /* \"#utility.yul\":13747:13748   */\n      0x01\n        /* \"#utility.yul\":13739:13745   */\n      dup3\n        /* \"#utility.yul\":13735:13749   */\n      add\n        /* \"#utility.yul\":13725:13749   */\n      swap2\n      pop\n        /* \"#utility.yul\":13794:13796   */\n      0x20\n        /* \"#utility.yul\":13783:13792   */\n      dup6\n        /* \"#utility.yul\":13779:13797   */\n      add\n        /* \"#utility.yul\":13766:13797   */\n      swap5\n      pop\n        /* \"#utility.yul\":13640:13644   */\n      0x20\n        /* \"#utility.yul\":13637:13638   */\n      dup2\n        /* \"#utility.yul\":13633:13645   */\n      add\n        /* \"#utility.yul\":13628:13645   */\n      swap1\n      pop\n        /* \"#utility.yul\":13603:13811   */\n      jump(tag_328)\n    tag_330:\n        /* \"#utility.yul\":13839:13845   */\n      dup7\n        /* \"#utility.yul\":13830:13837   */\n      dup4\n        /* \"#utility.yul\":13827:13846   */\n      lt\n        /* \"#utility.yul\":13824:14003   */\n      iszero\n      tag_331\n      jumpi\n        /* \"#utility.yul\":13897:13906   */\n      dup5\n        /* \"#utility.yul\":13892:13895   */\n      dup10\n        /* \"#utility.yul\":13888:13907   */\n      add\n        /* \"#utility.yul\":13882:13908   */\n      mload\n        /* \"#utility.yul\":13940:13988   */\n      tag_332\n        /* \"#utility.yul\":13982:13986   */\n      0x1f\n        /* \"#utility.yul\":13974:13980   */\n      dup10\n        /* \"#utility.yul\":13970:13987   */\n      and\n        /* \"#utility.yul\":13959:13968   */\n      dup3\n        /* \"#utility.yul\":13940:13988   */\n      tag_162\n      jump\t// in\n    tag_332:\n        /* \"#utility.yul\":13932:13938   */\n      dup4\n        /* \"#utility.yul\":13925:13989   */\n      sstore\n        /* \"#utility.yul\":13847:14003   */\n      pop\n        /* \"#utility.yul\":13824:14003   */\n    tag_331:\n        /* \"#utility.yul\":14049:14050   */\n      0x01\n        /* \"#utility.yul\":14045:14046   */\n      0x02\n        /* \"#utility.yul\":14037:14043   */\n      dup9\n        /* \"#utility.yul\":14033:14047   */\n      mul\n        /* \"#utility.yul\":14029:14051   */\n      add\n        /* \"#utility.yul\":14023:14027   */\n      dup9\n        /* \"#utility.yul\":14016:14052   */\n      sstore\n        /* \"#utility.yul\":13451:14062   */\n      pop\n      pop\n      pop\n        /* \"#utility.yul\":13414:14301   */\n    tag_323:\n      pop\n        /* \"#utility.yul\":13004:14307   */\n      pop\n      pop\n      pop\n        /* \"#utility.yul\":12912:14307   */\n      pop\n      pop\n      jump\t// out\n        /* \"#utility.yul\":14313:14546   */\n    tag_106:\n        /* \"#utility.yul\":14352:14355   */\n      0x00\n        /* \"#utility.yul\":14375:14399   */\n      tag_334\n        /* \"#utility.yul\":14393:14398   */\n      dup3\n        /* \"#utility.yul\":14375:14399   */\n      tag_117\n      jump\t// in\n    tag_334:\n        /* \"#utility.yul\":14366:14399   */\n      swap2\n      pop\n        /* \"#utility.yul\":14421:14487   */\n      0xffffffffffffffffffffffffffffffffffffffffffffffffffffffffffffffff\n        /* \"#utility.yul\":14414:14419   */\n      dup3\n        /* \"#utility.yul\":14411:14488   */\n      sub\n        /* \"#utility.yul\":14408:14511   */\n      tag_335\n      jumpi\n        /* \"#utility.yul\":14491:14509   */\n      tag_336\n      tag_147\n      jump\t// in\n    tag_336:\n        /* \"#utility.yul\":14408:14511   */\n    tag_335:\n        /* \"#utility.yul\":14538:14539   */\n      0x01\n        /* \"#utility.yul\":14531:14536   */\n      dup3\n        /* \"#utility.yul\":14527:14540   */\n      add\n        /* \"#utility.yul\":14520:14540   */\n      swap1\n      pop\n        /* \"#utility.yul\":14313:14546   */\n      swap2\n      swap1\n      pop\n      jump\t// out\n\n    auxdata: 0xa26469706673582212205db6fd1f2613fb59b0782a938d52200d3d82fca3f9f6f0c03c310b5c6b5fbfa464736f6c634300081a0033\n}\n","bytecode":{"linkReferences":{},"object":"608060405234801561000f575f80fd5b5060405161123038038061123083398181016040528101906100319190610110565b8060015f6101000a81548173ffffffffffffffffffffffffffffffffffffffff021916908373ffffffffffffffffffffffffffffffffffffffff16021790555081600281905550505061014e565b5f80fd5b5f819050919050565b61009581610083565b811461009f575f80fd5b50565b5f815190506100b08161008c565b92915050565b5f73ffffffffffffffffffffffffffffffffffffffff82169050919050565b5f6100df826100b6565b9050919050565b6100ef816100d5565b81146100f9575f80fd5b50565b5f8151905061010a816100e6565b92915050565b5f80604083850312156101265761012561007f565b5b5f610133858286016100a2565b9250506020610144858286016100fc565b9150509250929050565b6110d58061015b5f395ff3fe608060405260043610610090575f3560e01c80638a9cfd55116100585780638a9cfd551461018c578063937e09b1146101b4578063c58343ef146101de578063d7bb99ba1461021a578063d7d1bbdb1461022457610090565b806303441006146100945780630a144391146100bc578063481c6a75146100f857806381d12c581461012257806382fde09314610162575b5f80fd5b34801561009f575f80fd5b506100ba60048036038101906100b591906108a8565b61024c565b005b3480156100c7575f80fd5b506100e260048036038101906100dd919061092d565b61038a565b6040516100ef9190610972565b60405180910390f35b348015610103575f80fd5b5061010c6103a7565b604051610119919061099a565b60405180910390f35b34801561012d575f80fd5b50610148600480360381019061014391906108a8565b6103cc565b604051610159959493929190610a52565b60405180910390f35b34801561016d575f80fd5b506101766104be565b6040516101839190610aaa565b60405180910390f35b348015610197575f80fd5b506101b260048036038101906101ad9190610c19565b6104c4565b005b3480156101bf575f80fd5b506101c86105f0565b6040516101d59190610aaa565b60405180910390f35b3480156101e9575f80fd5b5061020460048036038101906101ff91906108a8565b6105f6565b6040516102119190610c85565b60405180910390f35b6102226106ac565b005b34801561022f575f80fd5b5061024a600480360381019061024591906108a8565b610727565b005b60015f9054906101000a900473ffffffffffffffffffffffffffffffffffffffff1673ffffffffffffffffffffffffffffffffffffffff163373ffffffffffffffffffffffffffffffffffffffff16146102a4575f80fd5b5f8082815481106102b8576102b7610ca5565b5b905f5260205f209060050201905060026004546102d59190610d2c565b8160030154116102e3575f80fd5b8060020160149054906101000a900460ff16156102fe575f80fd5b806002015f9054906101000a900473ffffffffffffffffffffffffffffffffffffffff1673ffffffffffffffffffffffffffffffffffffffff166108fc826001015490811502906040515f60405180830381858888f19350505050158015610368573d5f803e3d5ffd5b5060018160020160146101000a81548160ff0219169083151502179055505050565b6003602052805f5260405f205f915054906101000a900460ff1681565b60015f9054906101000a900473ffffffffffffffffffffffffffffffffffffffff1681565b5f81815481106103da575f80fd5b905f5260205f2090600502015f91509050805f0180546103f990610d89565b80601f016020809104026020016040519081016040528092919081815260200182805461042590610d89565b80156104705780601f1061044757610100808354040283529160200191610470565b820191905f5260205f20905b81548152906001019060200180831161045357829003601f168201915b505050505090806001015490806002015f9054906101000a900473ffffffffffffffffffffffffffffffffffffffff16908060020160149054906101000a900460ff16908060030154905085565b60045481565b60015f9054906101000a900473ffffffffffffffffffffffffffffffffffffffff1673ffffffffffffffffffffffffffffffffffffffff163373ffffffffffffffffffffffffffffffffffffffff161461051c575f80fd5b5f60018160018154018082558091505003905f5260205f209050505f8060015f8054905061054a9190610db9565b8154811061055b5761055a610ca5565b5b905f5260205f209060050201905083815f0190816105799190610f89565b5082816001018190555081816002015f6101000a81548173ffffffffffffffffffffffffffffffffffffffff021916908373ffffffffffffffffffffffffffffffffffffffff1602179055505f8160020160146101000a81548160ff0219169083151502179055505f816003018190555050505050565b60025481565b60605f80838154811061060c5761060b610ca5565b5b905f5260205f2090600502019050805f01805461062890610d89565b80601f016020809104026020016040519081016040528092919081815260200182805461065490610d89565b801561069f5780601f106106765761010080835404028352916020019161069f565b820191905f5260205f20905b81548152906001019060200180831161068257829003601f168201915b5050505050915050919050565b60025434116106b9575f80fd5b600160035f3373ffffffffffffffffffffffffffffffffffffffff1673ffffffffffffffffffffffffffffffffffffffff1681526020019081526020015f205f6101000a81548160ff02191690831515021790555060045f81548092919061072090611058565b9190505550565b60035f3373ffffffffffffffffffffffffffffffffffffffff1673ffffffffffffffffffffffffffffffffffffffff1681526020019081526020015f205f9054906101000a900460ff16610779575f80fd5b5f80828154811061078d5761078c610ca5565b5b905f5260205f2090600502019050806004015f3373ffffffffffffffffffffffffffffffffffffffff1673ffffffffffffffffffffffffffffffffffffffff1681526020019081526020015f205f9054906101000a900460ff16156107f0575f80fd5b6001816004015f3373ffffffffffffffffffffffffffffffffffffffff1673ffffffffffffffffffffffffffffffffffffffff1681526020019081526020015f205f6101000a81548160ff021916908315150217905550806003015f81548092919061085b90611058565b91905055505050565b5f604051905090565b5f80fd5b5f80fd5b5f819050919050565b61088781610875565b8114610891575f80fd5b50565b5f813590506108a28161087e565b92915050565b5f602082840312156108bd576108bc61086d565b5b5f6108ca84828501610894565b91505092915050565b5f73ffffffffffffffffffffffffffffffffffffffff82169050919050565b5f6108fc826108d3565b9050919050565b61090c816108f2565b8114610916575f80fd5b50565b5f8135905061092781610903565b92915050565b5f602082840312156109425761094161086d565b5b5f61094f84828501610919565b91505092915050565b5f8115159050919050565b61096c81610958565b82525050565b5f6020820190506109855f830184610963565b92915050565b610994816108f2565b82525050565b5f6020820190506109ad5f83018461098b565b92915050565b5f81519050919050565b5f82825260208201905092915050565b8281835e5f83830152505050565b5f601f19601f8301169050919050565b5f6109f5826109b3565b6109ff81856109bd565b9350610a0f8185602086016109cd565b610a18816109db565b840191505092915050565b610a2c81610875565b82525050565b5f610a3c826108d3565b9050919050565b610a4c81610a32565b82525050565b5f60a0820190508181035f830152610a6a81886109eb565b9050610a796020830187610a23565b610a866040830186610a43565b610a936060830185610963565b610aa06080830184610a23565b9695505050505050565b5f602082019050610abd5f830184610a23565b92915050565b5f80fd5b5f80fd5b7f4e487b71000000000000000000000000000000000000000000000000000000005f52604160045260245ffd5b610b01826109db565b810181811067ffffffffffffffff82111715610b2057610b1f610acb565b5b80604052505050565b5f610b32610864565b9050610b3e8282610af8565b919050565b5f67ffffffffffffffff821115610b5d57610b5c610acb565b5b610b66826109db565b9050602081019050919050565b828183375f83830152505050565b5f610b93610b8e84610b43565b610b29565b905082815260208101848484011115610baf57610bae610ac7565b5b610bba848285610b73565b509392505050565b5f82601f830112610bd657610bd5610ac3565b5b8135610be6848260208601610b81565b91505092915050565b610bf881610a32565b8114610c02575f80fd5b50565b5f81359050610c1381610bef565b92915050565b5f805f60608486031215610c3057610c2f61086d565b5b5f84013567ffffffffffffffff811115610c4d57610c4c610871565b5b610c5986828701610bc2565b9350506020610c6a86828701610894565b9250506040610c7b86828701610c05565b9150509250925092565b5f6020820190508181035f830152610c9d81846109eb565b905092915050565b7f4e487b71000000000000000000000000000000000000000000000000000000005f52603260045260245ffd5b7f4e487b71000000000000000000000000000000000000000000000000000000005f52601260045260245ffd5b7f4e487b71000000000000000000000000000000000000000000000000000000005f52601160045260245ffd5b5f610d3682610875565b9150610d4183610875565b925082610d5157610d50610cd2565b5b828204905092915050565b7f4e487b71000000000000000000000000000000000000000000000000000000005f52602260045260245ffd5b5f6002820490506001821680610da057607f821691505b602082108103610db357610db2610d5c565b5b50919050565b5f610dc382610875565b9150610dce83610875565b9250828203905081811115610de657610de5610cff565b5b92915050565b5f819050815f5260205f209050919050565b5f6020601f8301049050919050565b5f82821b905092915050565b5f60088302610e487fffffffffffffffffffffffffffffffffffffffffffffffffffffffffffffffff82610e0d565b610e528683610e0d565b95508019841693508086168417925050509392505050565b5f819050919050565b5f610e8d610e88610e8384610875565b610e6a565b610875565b9050919050565b5f819050919050565b610ea683610e73565b610eba610eb282610e94565b848454610e19565b825550505050565b5f90565b610ece610ec2565b610ed9818484610e9d565b505050565b5b81811015610efc57610ef15f82610ec6565b600181019050610edf565b5050565b601f821115610f4157610f1281610dec565b610f1b84610dfe565b81016020851015610f2a578190505b610f3e610f3685610dfe565b830182610ede565b50505b505050565b5f82821c905092915050565b5f610f615f1984600802610f46565b1980831691505092915050565b5f610f798383610f52565b9150826002028217905092915050565b610f92826109b3565b67ffffffffffffffff811115610fab57610faa610acb565b5b610fb58254610d89565b610fc0828285610f00565b5f60209050601f831160018114610ff1575f8415610fdf578287015190505b610fe98582610f6e565b865550611050565b601f198416610fff86610dec565b5f5b8281101561102657848901518255600182019150602085019450602081019050611001565b86831015611043578489015161103f601f891682610f52565b8355505b6001600288020188555050505b505050505050565b5f61106282610875565b91507fffffffffffffffffffffffffffffffffffffffffffffffffffffffffffffffff820361109457611093610cff565b5b60018201905091905056fea26469706673582212205db6fd1f2613fb59b0782a938d52200d3d82fca3f9f6f0c03c310b5c6b5fbfa464736f6c634300081a0033","opcodes":"PUSH1 0x80 PUSH1 0x40 MSTORE CALLVALUE DUP1 ISZERO PUSH2 0xF JUMPI PUSH0 DUP1 REVERT JUMPDEST POP PUSH1 0x40 MLOAD PUSH2 0x1230 CODESIZE SUB DUP1 PUSH2 0x1230 DUP4 CODECOPY DUP2 DUP2 ADD PUSH1 0x40 MSTORE DUP2 ADD SWAP1 PUSH2 0x31 SWAP2 SWAP1 PUSH2 0x110 JUMP JUMPDEST DUP1 PUSH1 0x1 PUSH0 PUSH2 0x100 EXP DUP2 SLOAD DUP2 PUSH20 0xFFFFFFFFFFFFFFFFFFFFFFFFFFFFFFFFFFFFFFFF MUL NOT AND SWAP1 DUP4 PUSH20 0xFFFFFFFFFFFFFFFFFFFFFFFFFFFFFFFFFFFFFFFF AND MUL OR SWAP1 SSTORE POP DUP2 PUSH1 0x2 DUP2 SWAP1 SSTORE POP POP POP PUSH2 0x14E JUMP JUMPDEST PUSH0 DUP1 REVERT JUMPDEST PUSH0 DUP2 SWAP1 POP SWAP2 SWAP1 POP JUMP JUMPDEST PUSH2 0x95 DUP2 PUSH2 0x83 JUMP JUMPDEST DUP2 EQ PUSH2 0x9F JUMPI PUSH0 DUP1 REVERT JUMPDEST POP JUMP JUMPDEST PUSH0 DUP2 MLOAD SWAP1 POP PUSH2 0xB0 DUP2 PUSH2 0x8C JUMP JUMPDEST SWAP3 SWAP2 POP POP JUMP JUMPDEST PUSH0 PUSH20 0xFFFFFFFFFFFFFFFFFFFFFFFFFFFFFFFFFFFFFFFF DUP3 AND SWAP1 POP SWAP2 SWAP1 POP JUMP JUMPDEST PUSH0 PUSH2 0xDF DUP3 PUSH2 0xB6 JUMP JUMPDEST SWAP1 POP SWAP2 SWAP1 POP JUMP JUMPDEST PUSH2 0xEF DUP2 PUSH2 0xD5 JUMP JUMPDEST DUP2 EQ PUSH2 0xF9 JUMPI PUSH0 DUP1 REVERT JUMPDEST POP JUMP JUMPDEST PUSH0 DUP2 MLOAD SWAP1 POP PUSH2 0x10A DUP2 PUSH2 0xE6 JUMP JUMPDEST SWAP3 SWAP2 POP POP JUMP JUMPDEST PUSH0 DUP1 PUSH1 0x40 DUP4 DUP6 SUB SLT ISZERO PUSH2 0x126 JUMPI PUSH2 0x125 PUSH2 0x7F JUMP JUMPDEST JUMPDEST PUSH0 PUSH2 0x133 DUP6 DUP3 DUP7 ADD PUSH2 0xA2 JUMP JUMPDEST SWAP3 POP POP PUSH1 0x20 PUSH2 0x144 DUP6 DUP3 DUP7 ADD PUSH2 0xFC JUMP JUMPDEST SWAP2 POP POP SWAP3 POP SWAP3 SWAP1 POP JUMP JUMPDEST PUSH2 0x10D5 DUP1 PUSH2 0x15B PUSH0 CODECOPY PUSH0 RETURN INVALID PUSH1 0x80 PUSH1 0x40 MSTORE PUSH1 0x4 CALLDATASIZE LT PUSH2 0x90 JUMPI PUSH0 CALLDATALOAD PUSH1 0xE0 SHR DUP1 PUSH4 0x8A9CFD55 GT PUSH2 0x58 JUMPI DUP1 PUSH4 0x8A9CFD55 EQ PUSH2 0x18C JUMPI DUP1 PUSH4 0x937E09B1 EQ PUSH2 0x1B4 JUMPI DUP1 PUSH4 0xC58343EF EQ PUSH2 0x1DE JUMPI DUP1 PUSH4 0xD7BB99BA EQ PUSH2 0x21A JUMPI DUP1 PUSH4 0xD7D1BBDB EQ PUSH2 0x224 JUMPI PUSH2 0x90 JUMP JUMPDEST DUP1 PUSH4 0x3441006 EQ PUSH2 0x94 JUMPI DUP1 PUSH4 0xA144391 EQ PUSH2 0xBC JUMPI DUP1 PUSH4 0x481C6A75 EQ PUSH2 0xF8 JUMPI DUP1 PUSH4 0x81D12C58 EQ PUSH2 0x122 JUMPI DUP1 PUSH4 0x82FDE093 EQ PUSH2 0x162 JUMPI JUMPDEST PUSH0 DUP1 REVERT JUMPDEST CALLVALUE DUP1 ISZERO PUSH2 0x9F JUMPI PUSH0 DUP1 REVERT JUMPDEST POP PUSH2 0xBA PUSH1 0x4 DUP1 CALLDATASIZE SUB DUP2 ADD SWAP1 PUSH2 0xB5 SWAP2 SWAP1 PUSH2 0x8A8 JUMP JUMPDEST PUSH2 0x24C JUMP JUMPDEST STOP JUMPDEST CALLVALUE DUP1 ISZERO PUSH2 0xC7 JUMPI PUSH0 DUP1 REVERT JUMPDEST POP PUSH2 0xE2 PUSH1 0x4 DUP1 CALLDATASIZE SUB DUP2 ADD SWAP1 PUSH2 0xDD SWAP2 SWAP1 PUSH2 0x92D JUMP JUMPDEST PUSH2 0x38A JUMP JUMPDEST PUSH1 0x40 MLOAD PUSH2 0xEF SWAP2 SWAP1 PUSH2 0x972 JUMP JUMPDEST PUSH1 0x40 MLOAD DUP1 SWAP2 SUB SWAP1 RETURN JUMPDEST CALLVALUE DUP1 ISZERO PUSH2 0x103 JUMPI PUSH0 DUP1 REVERT JUMPDEST POP PUSH2 0x10C PUSH2 0x3A7 JUMP JUMPDEST PUSH1 0x40 MLOAD PUSH2 0x119 SWAP2 SWAP1 PUSH2 0x99A JUMP JUMPDEST PUSH1 0x40 MLOAD DUP1 SWAP2 SUB SWAP1 RETURN JUMPDEST CALLVALUE DUP1 ISZERO PUSH2 0x12D JUMPI PUSH0 DUP1 REVERT JUMPDEST POP PUSH2 0x148 PUSH1 0x4 DUP1 CALLDATASIZE SUB DUP2 ADD SWAP1 PUSH2 0x143 SWAP2 SWAP1 PUSH2 0x8A8 JUMP JUMPDEST PUSH2 0x3CC JUMP JUMPDEST PUSH1 0x40 MLOAD PUSH2 0x159 SWAP6 SWAP5 SWAP4 SWAP3 SWAP2 SWAP1 PUSH2 0xA52 JUMP JUMPDEST PUSH1 0x40 MLOAD DUP1 SWAP2 SUB SWAP1 RETURN JUMPDEST CALLVALUE DUP1 ISZERO PUSH2 0x16D JUMPI PUSH0 DUP1 REVERT JUMPDEST POP PUSH2 0x176 PUSH2 0x4BE JUMP JUMPDEST PUSH1 0x40 MLOAD PUSH2 0x183 SWAP2 SWAP1 PUSH2 0xAAA JUMP JUMPDEST PUSH1 0x40 MLOAD DUP1 SWAP2 SUB SWAP1 RETURN JUMPDEST CALLVALUE DUP1 ISZERO PUSH2 0x197 JUMPI PUSH0 DUP1 REVERT JUMPDEST POP PUSH2 0x1B2 PUSH1 0x4 DUP1 CALLDATASIZE SUB DUP2 ADD SWAP1 PUSH2 0x1AD SWAP2 SWAP1 PUSH2 0xC19 JUMP JUMPDEST PUSH2 0x4C4 JUMP JUMPDEST STOP JUMPDEST CALLVALUE DUP1 ISZERO PUSH2 0x1BF JUMPI PUSH0 DUP1 REVERT JUMPDEST POP PUSH2 0x1C8 PUSH2 0x5F0 JUMP JUMPDEST PUSH1 0x40 MLOAD PUSH2 0x1D5 SWAP2 SWAP1 PUSH2 0xAAA JUMP JUMPDEST PUSH1 0x40 MLOAD DUP1 SWAP2 SUB SWAP1 RETURN JUMPDEST CALLVALUE DUP1 ISZERO PUSH2 0x1E9 JUMPI PUSH0 DUP1 REVERT JUMPDEST POP PUSH2 0x204 PUSH1 0x4 DUP1 CALLDATASIZE SUB DUP2 ADD SWAP1 PUSH2 0x1FF SWAP2 SWAP1 PUSH2 0x8A8 JUMP JUMPDEST PUSH2 0x5F6 JUMP JUMPDEST PUSH1 0x40 MLOAD PUSH2 0x211 SWAP2 SWAP1 PUSH2 0xC85 JUMP JUMPDEST PUSH1 0x40 MLOAD DUP1 SWAP2 SUB SWAP1 RETURN JUMPDEST PUSH2 0x222 PUSH2 0x6AC JUMP JUMPDEST STOP JUMPDEST CALLVALUE DUP1 ISZERO PUSH2 0x22F JUMPI PUSH0 DUP1 REVERT JUMPDEST POP PUSH2 0x24A PUSH1 0x4 DUP1 CALLDATASIZE SUB DUP2 ADD SWAP1 PUSH2 0x245 SWAP2 SWAP1 PUSH2 0x8A8 JUMP JUMPDEST PUSH2 0x727 JUMP JUMPDEST STOP JUMPDEST PUSH1 0x1 PUSH0 SWAP1 SLOAD SWAP1 PUSH2 0x100 EXP SWAP1 DIV PUSH20 0xFFFFFFFFFFFFFFFFFFFFFFFFFFFFFFFFFFFFFFFF AND PUSH20 0xFFFFFFFFFFFFFFFFFFFFFFFFFFFFFFFFFFFFFFFF AND CALLER PUSH20 0xFFFFFFFFFFFFFFFFFFFFFFFFFFFFFFFFFFFFFFFF AND EQ PUSH2 0x2A4 JUMPI PUSH0 DUP1 REVERT JUMPDEST PUSH0 DUP1 DUP3 DUP2 SLOAD DUP2 LT PUSH2 0x2B8 JUMPI PUSH2 0x2B7 PUSH2 0xCA5 JUMP JUMPDEST JUMPDEST SWAP1 PUSH0 MSTORE PUSH1 0x20 PUSH0 KECCAK256 SWAP1 PUSH1 0x5 MUL ADD SWAP1 POP PUSH1 0x2 PUSH1 0x4 SLOAD PUSH2 0x2D5 SWAP2 SWAP1 PUSH2 0xD2C JUMP JUMPDEST DUP2 PUSH1 0x3 ADD SLOAD GT PUSH2 0x2E3 JUMPI PUSH0 DUP1 REVERT JUMPDEST DUP1 PUSH1 0x2 ADD PUSH1 0x14 SWAP1 SLOAD SWAP1 PUSH2 0x100 EXP SWAP1 DIV PUSH1 0xFF AND ISZERO PUSH2 0x2FE JUMPI PUSH0 DUP1 REVERT JUMPDEST DUP1 PUSH1 0x2 ADD PUSH0 SWAP1 SLOAD SWAP1 PUSH2 0x100 EXP SWAP1 DIV PUSH20 0xFFFFFFFFFFFFFFFFFFFFFFFFFFFFFFFFFFFFFFFF AND PUSH20 0xFFFFFFFFFFFFFFFFFFFFFFFFFFFFFFFFFFFFFFFF AND PUSH2 0x8FC DUP3 PUSH1 0x1 ADD SLOAD SWAP1 DUP2 ISZERO MUL SWAP1 PUSH1 0x40 MLOAD PUSH0 PUSH1 0x40 MLOAD DUP1 DUP4 SUB DUP2 DUP6 DUP9 DUP9 CALL SWAP4 POP POP POP POP ISZERO DUP1 ISZERO PUSH2 0x368 JUMPI RETURNDATASIZE PUSH0 DUP1 RETURNDATACOPY RETURNDATASIZE PUSH0 REVERT JUMPDEST POP PUSH1 0x1 DUP2 PUSH1 0x2 ADD PUSH1 0x14 PUSH2 0x100 EXP DUP2 SLOAD DUP2 PUSH1 0xFF MUL NOT AND SWAP1 DUP4 ISZERO ISZERO MUL OR SWAP1 SSTORE POP POP POP JUMP JUMPDEST PUSH1 0x3 PUSH1 0x20 MSTORE DUP1 PUSH0 MSTORE PUSH1 0x40 PUSH0 KECCAK256 PUSH0 SWAP2 POP SLOAD SWAP1 PUSH2 0x100 EXP SWAP1 DIV PUSH1 0xFF AND DUP2 JUMP JUMPDEST PUSH1 0x1 PUSH0 SWAP1 SLOAD SWAP1 PUSH2 0x100 EXP SWAP1 DIV PUSH20 0xFFFFFFFFFFFFFFFFFFFFFFFFFFFFFFFFFFFFFFFF AND DUP2 JUMP JUMPDEST PUSH0 DUP2 DUP2 SLOAD DUP2 LT PUSH2 0x3DA JUMPI PUSH0 DUP1 REVERT JUMPDEST SWAP1 PUSH0 MSTORE PUSH1 0x20 PUSH0 KECCAK256 SWAP1 PUSH1 0x5 MUL ADD PUSH0 SWAP2 POP SWAP1 POP DUP1 PUSH0 ADD DUP1 SLOAD PUSH2 0x3F9 SWAP1 PUSH2 0xD89 JUMP JUMPDEST DUP1 PUSH1 0x1F ADD PUSH1 0x20 DUP1 SWAP2 DIV MUL PUSH1 0x20 ADD PUSH1 0x40 MLOAD SWAP1 DUP2 ADD PUSH1 0x40 MSTORE DUP1 SWAP3 SWAP2 SWAP1 DUP2 DUP2 MSTORE PUSH1 0x20 ADD DUP3 DUP1 SLOAD PUSH2 0x425 SWAP1 PUSH2 0xD89 JUMP JUMPDEST DUP1 ISZERO PUSH2 0x470 JUMPI DUP1 PUSH1 0x1F LT PUSH2 0x447 JUMPI PUSH2 0x100 DUP1 DUP4 SLOAD DIV MUL DUP4 MSTORE SWAP2 PUSH1 0x20 ADD SWAP2 PUSH2 0x470 JUMP JUMPDEST DUP3 ADD SWAP2 SWAP1 PUSH0 MSTORE PUSH1 0x20 PUSH0 KECCAK256 SWAP1 JUMPDEST DUP2 SLOAD DUP2 MSTORE SWAP1 PUSH1 0x1 ADD SWAP1 PUSH1 0x20 ADD DUP1 DUP4 GT PUSH2 0x453 JUMPI DUP3 SWAP1 SUB PUSH1 0x1F AND DUP3 ADD SWAP2 JUMPDEST POP POP POP POP POP SWAP1 DUP1 PUSH1 0x1 ADD SLOAD SWAP1 DUP1 PUSH1 0x2 ADD PUSH0 SWAP1 SLOAD SWAP1 PUSH2 0x100 EXP SWAP1 DIV PUSH20 0xFFFFFFFFFFFFFFFFFFFFFFFFFFFFFFFFFFFFFFFF AND SWAP1 DUP1 PUSH1 0x2 ADD PUSH1 0x14 SWAP1 SLOAD SWAP1 PUSH2 0x100 EXP SWAP1 DIV PUSH1 0xFF AND SWAP1 DUP1 PUSH1 0x3 ADD SLOAD SWAP1 POP DUP6 JUMP JUMPDEST PUSH1 0x4 SLOAD DUP2 JUMP JUMPDEST PUSH1 0x1 PUSH0 SWAP1 SLOAD SWAP1 PUSH2 0x100 EXP SWAP1 DIV PUSH20 0xFFFFFFFFFFFFFFFFFFFFFFFFFFFFFFFFFFFFFFFF AND PUSH20 0xFFFFFFFFFFFFFFFFFFFFFFFFFFFFFFFFFFFFFFFF AND CALLER PUSH20 0xFFFFFFFFFFFFFFFFFFFFFFFFFFFFFFFFFFFFFFFF AND EQ PUSH2 0x51C JUMPI PUSH0 DUP1 REVERT JUMPDEST PUSH0 PUSH1 0x1 DUP2 PUSH1 0x1 DUP2 SLOAD ADD DUP1 DUP3 SSTORE DUP1 SWAP2 POP POP SUB SWAP1 PUSH0 MSTORE PUSH1 0x20 PUSH0 KECCAK256 SWAP1 POP POP PUSH0 DUP1 PUSH1 0x1 PUSH0 DUP1 SLOAD SWAP1 POP PUSH2 0x54A SWAP2 SWAP1 PUSH2 0xDB9 JUMP JUMPDEST DUP2 SLOAD DUP2 LT PUSH2 0x55B JUMPI PUSH2 0x55A PUSH2 0xCA5 JUMP JUMPDEST JUMPDEST SWAP1 PUSH0 MSTORE PUSH1 0x20 PUSH0 KECCAK256 SWAP1 PUSH1 0x5 MUL ADD SWAP1 POP DUP4 DUP2 PUSH0 ADD SWAP1 DUP2 PUSH2 0x579 SWAP2 SWAP1 PUSH2 0xF89 JUMP JUMPDEST POP DUP3 DUP2 PUSH1 0x1 ADD DUP2 SWAP1 SSTORE POP DUP2 DUP2 PUSH1 0x2 ADD PUSH0 PUSH2 0x100 EXP DUP2 SLOAD DUP2 PUSH20 0xFFFFFFFFFFFFFFFFFFFFFFFFFFFFFFFFFFFFFFFF MUL NOT AND SWAP1 DUP4 PUSH20 0xFFFFFFFFFFFFFFFFFFFFFFFFFFFFFFFFFFFFFFFF AND MUL OR SWAP1 SSTORE POP PUSH0 DUP2 PUSH1 0x2 ADD PUSH1 0x14 PUSH2 0x100 EXP DUP2 SLOAD DUP2 PUSH1 0xFF MUL NOT AND SWAP1 DUP4 ISZERO ISZERO MUL OR SWAP1 SSTORE POP PUSH0 DUP2 PUSH1 0x3 ADD DUP2 SWAP1 SSTORE POP POP POP POP POP JUMP JUMPDEST PUSH1 0x2 SLOAD DUP2 JUMP JUMPDEST PUSH1 0x60 PUSH0 DUP1 DUP4 DUP2 SLOAD DUP2 LT PUSH2 0x60C JUMPI PUSH2 0x60B PUSH2 0xCA5 JUMP JUMPDEST JUMPDEST SWAP1 PUSH0 MSTORE PUSH1 0x20 PUSH0 KECCAK256 SWAP1 PUSH1 0x5 MUL ADD SWAP1 POP DUP1 PUSH0 ADD DUP1 SLOAD PUSH2 0x628 SWAP1 PUSH2 0xD89 JUMP JUMPDEST DUP1 PUSH1 0x1F ADD PUSH1 0x20 DUP1 SWAP2 DIV MUL PUSH1 0x20 ADD PUSH1 0x40 MLOAD SWAP1 DUP2 ADD PUSH1 0x40 MSTORE DUP1 SWAP3 SWAP2 SWAP1 DUP2 DUP2 MSTORE PUSH1 0x20 ADD DUP3 DUP1 SLOAD PUSH2 0x654 SWAP1 PUSH2 0xD89 JUMP JUMPDEST DUP1 ISZERO PUSH2 0x69F JUMPI DUP1 PUSH1 0x1F LT PUSH2 0x676 JUMPI PUSH2 0x100 DUP1 DUP4 SLOAD DIV MUL DUP4 MSTORE SWAP2 PUSH1 0x20 ADD SWAP2 PUSH2 0x69F JUMP JUMPDEST DUP3 ADD SWAP2 SWAP1 PUSH0 MSTORE PUSH1 0x20 PUSH0 KECCAK256 SWAP1 JUMPDEST DUP2 SLOAD DUP2 MSTORE SWAP1 PUSH1 0x1 ADD SWAP1 PUSH1 0x20 ADD DUP1 DUP4 GT PUSH2 0x682 JUMPI DUP3 SWAP1 SUB PUSH1 0x1F AND DUP3 ADD SWAP2 JUMPDEST POP POP POP POP POP SWAP2 POP POP SWAP2 SWAP1 POP JUMP JUMPDEST PUSH1 0x2 SLOAD CALLVALUE GT PUSH2 0x6B9 JUMPI PUSH0 DUP1 REVERT JUMPDEST PUSH1 0x1 PUSH1 0x3 PUSH0 CALLER PUSH20 0xFFFFFFFFFFFFFFFFFFFFFFFFFFFFFFFFFFFFFFFF AND PUSH20 0xFFFFFFFFFFFFFFFFFFFFFFFFFFFFFFFFFFFFFFFF AND DUP2 MSTORE PUSH1 0x20 ADD SWAP1 DUP2 MSTORE PUSH1 0x20 ADD PUSH0 KECCAK256 PUSH0 PUSH2 0x100 EXP DUP2 SLOAD DUP2 PUSH1 0xFF MUL NOT AND SWAP1 DUP4 ISZERO ISZERO MUL OR SWAP1 SSTORE POP PUSH1 0x4 PUSH0 DUP2 SLOAD DUP1 SWAP3 SWAP2 SWAP1 PUSH2 0x720 SWAP1 PUSH2 0x1058 JUMP JUMPDEST SWAP2 SWAP1 POP SSTORE POP JUMP JUMPDEST PUSH1 0x3 PUSH0 CALLER PUSH20 0xFFFFFFFFFFFFFFFFFFFFFFFFFFFFFFFFFFFFFFFF AND PUSH20 0xFFFFFFFFFFFFFFFFFFFFFFFFFFFFFFFFFFFFFFFF AND DUP2 MSTORE PUSH1 0x20 ADD SWAP1 DUP2 MSTORE PUSH1 0x20 ADD PUSH0 KECCAK256 PUSH0 SWAP1 SLOAD SWAP1 PUSH2 0x100 EXP SWAP1 DIV PUSH1 0xFF AND PUSH2 0x779 JUMPI PUSH0 DUP1 REVERT JUMPDEST PUSH0 DUP1 DUP3 DUP2 SLOAD DUP2 LT PUSH2 0x78D JUMPI PUSH2 0x78C PUSH2 0xCA5 JUMP JUMPDEST JUMPDEST SWAP1 PUSH0 MSTORE PUSH1 0x20 PUSH0 KECCAK256 SWAP1 PUSH1 0x5 MUL ADD SWAP1 POP DUP1 PUSH1 0x4 ADD PUSH0 CALLER PUSH20 0xFFFFFFFFFFFFFFFFFFFFFFFFFFFFFFFFFFFFFFFF AND PUSH20 0xFFFFFFFFFFFFFFFFFFFFFFFFFFFFFFFFFFFFFFFF AND DUP2 MSTORE PUSH1 0x20 ADD SWAP1 DUP2 MSTORE PUSH1 0x20 ADD PUSH0 KECCAK256 PUSH0 SWAP1 SLOAD SWAP1 PUSH2 0x100 EXP SWAP1 DIV PUSH1 0xFF AND ISZERO PUSH2 0x7F0 JUMPI PUSH0 DUP1 REVERT JUMPDEST PUSH1 0x1 DUP2 PUSH1 0x4 ADD PUSH0 CALLER PUSH20 0xFFFFFFFFFFFFFFFFFFFFFFFFFFFFFFFFFFFFFFFF AND PUSH20 0xFFFFFFFFFFFFFFFFFFFFFFFFFFFFFFFFFFFFFFFF AND DUP2 MSTORE PUSH1 0x20 ADD SWAP1 DUP2 MSTORE PUSH1 0x20 ADD PUSH0 KECCAK256 PUSH0 PUSH2 0x100 EXP DUP2 SLOAD DUP2 PUSH1 0xFF MUL NOT AND SWAP1 DUP4 ISZERO ISZERO MUL OR SWAP1 SSTORE POP DUP1 PUSH1 0x3 ADD PUSH0 DUP2 SLOAD DUP1 SWAP3 SWAP2 SWAP1 PUSH2 0x85B SWAP1 PUSH2 0x1058 JUMP JUMPDEST SWAP2 SWAP1 POP SSTORE POP POP POP JUMP JUMPDEST PUSH0 PUSH1 0x40 MLOAD SWAP1 POP SWAP1 JUMP JUMPDEST PUSH0 DUP1 REVERT JUMPDEST PUSH0 DUP1 REVERT JUMPDEST PUSH0 DUP2 SWAP1 POP SWAP2 SWAP1 POP JUMP JUMPDEST PUSH2 0x887 DUP2 PUSH2 0x875 JUMP JUMPDEST DUP2 EQ PUSH2 0x891 JUMPI PUSH0 DUP1 REVERT JUMPDEST POP JUMP JUMPDEST PUSH0 DUP2 CALLDATALOAD SWAP1 POP PUSH2 0x8A2 DUP2 PUSH2 0x87E JUMP JUMPDEST SWAP3 SWAP2 POP POP JUMP JUMPDEST PUSH0 PUSH1 0x20 DUP3 DUP5 SUB SLT ISZERO PUSH2 0x8BD JUMPI PUSH2 0x8BC PUSH2 0x86D JUMP JUMPDEST JUMPDEST PUSH0 PUSH2 0x8CA DUP5 DUP3 DUP6 ADD PUSH2 0x894 JUMP JUMPDEST SWAP2 POP POP SWAP3 SWAP2 POP POP JUMP JUMPDEST PUSH0 PUSH20 0xFFFFFFFFFFFFFFFFFFFFFFFFFFFFFFFFFFFFFFFF DUP3 AND SWAP1 POP SWAP2 SWAP1 POP JUMP JUMPDEST PUSH0 PUSH2 0x8FC DUP3 PUSH2 0x8D3 JUMP JUMPDEST SWAP1 POP SWAP2 SWAP1 POP JUMP JUMPDEST PUSH2 0x90C DUP2 PUSH2 0x8F2 JUMP JUMPDEST DUP2 EQ PUSH2 0x916 JUMPI PUSH0 DUP1 REVERT JUMPDEST POP JUMP JUMPDEST PUSH0 DUP2 CALLDATALOAD SWAP1 POP PUSH2 0x927 DUP2 PUSH2 0x903 JUMP JUMPDEST SWAP3 SWAP2 POP POP JUMP JUMPDEST PUSH0 PUSH1 0x20 DUP3 DUP5 SUB SLT ISZERO PUSH2 0x942 JUMPI PUSH2 0x941 PUSH2 0x86D JUMP JUMPDEST JUMPDEST PUSH0 PUSH2 0x94F DUP5 DUP3 DUP6 ADD PUSH2 0x919 JUMP JUMPDEST SWAP2 POP POP SWAP3 SWAP2 POP POP JUMP JUMPDEST PUSH0 DUP2 ISZERO ISZERO SWAP1 POP SWAP2 SWAP1 POP JUMP JUMPDEST PUSH2 0x96C DUP2 PUSH2 0x958 JUMP JUMPDEST DUP3 MSTORE POP POP JUMP JUMPDEST PUSH0 PUSH1 0x20 DUP3 ADD SWAP1 POP PUSH2 0x985 PUSH0 DUP4 ADD DUP5 PUSH2 0x963 JUMP JUMPDEST SWAP3 SWAP2 POP POP JUMP JUMPDEST PUSH2 0x994 DUP2 PUSH2 0x8F2 JUMP JUMPDEST DUP3 MSTORE POP POP JUMP JUMPDEST PUSH0 PUSH1 0x20 DUP3 ADD SWAP1 POP PUSH2 0x9AD PUSH0 DUP4 ADD DUP5 PUSH2 0x98B JUMP JUMPDEST SWAP3 SWAP2 POP POP JUMP JUMPDEST PUSH0 DUP2 MLOAD SWAP1 POP SWAP2 SWAP1 POP JUMP JUMPDEST PUSH0 DUP3 DUP3 MSTORE PUSH1 0x20 DUP3 ADD SWAP1 POP SWAP3 SWAP2 POP POP JUMP JUMPDEST DUP3 DUP2 DUP4 MCOPY PUSH0 DUP4 DUP4 ADD MSTORE POP POP POP JUMP JUMPDEST PUSH0 PUSH1 0x1F NOT PUSH1 0x1F DUP4 ADD AND SWAP1 POP SWAP2 SWAP1 POP JUMP JUMPDEST PUSH0 PUSH2 0x9F5 DUP3 PUSH2 0x9B3 JUMP JUMPDEST PUSH2 0x9FF DUP2 DUP6 PUSH2 0x9BD JUMP JUMPDEST SWAP4 POP PUSH2 0xA0F DUP2 DUP6 PUSH1 0x20 DUP7 ADD PUSH2 0x9CD JUMP JUMPDEST PUSH2 0xA18 DUP2 PUSH2 0x9DB JUMP JUMPDEST DUP5 ADD SWAP2 POP POP SWAP3 SWAP2 POP POP JUMP JUMPDEST PUSH2 0xA2C DUP2 PUSH2 0x875 JUMP JUMPDEST DUP3 MSTORE POP POP JUMP JUMPDEST PUSH0 PUSH2 0xA3C DUP3 PUSH2 0x8D3 JUMP JUMPDEST SWAP1 POP SWAP2 SWAP1 POP JUMP JUMPDEST PUSH2 0xA4C DUP2 PUSH2 0xA32 JUMP JUMPDEST DUP3 MSTORE POP POP JUMP JUMPDEST PUSH0 PUSH1 0xA0 DUP3 ADD SWAP1 POP DUP2 DUP2 SUB PUSH0 DUP4 ADD MSTORE PUSH2 0xA6A DUP2 DUP9 PUSH2 0x9EB JUMP JUMPDEST SWAP1 POP PUSH2 0xA79 PUSH1 0x20 DUP4 ADD DUP8 PUSH2 0xA23 JUMP JUMPDEST PUSH2 0xA86 PUSH1 0x40 DUP4 ADD DUP7 PUSH2 0xA43 JUMP JUMPDEST PUSH2 0xA93 PUSH1 0x60 DUP4 ADD DUP6 PUSH2 0x963 JUMP JUMPDEST PUSH2 0xAA0 PUSH1 0x80 DUP4 ADD DUP5 PUSH2 0xA23 JUMP JUMPDEST SWAP7 SWAP6 POP POP POP POP POP POP JUMP JUMPDEST PUSH0 PUSH1 0x20 DUP3 ADD SWAP1 POP PUSH2 0xABD PUSH0 DUP4 ADD DUP5 PUSH2 0xA23 JUMP JUMPDEST SWAP3 SWAP2 POP POP JUMP JUMPDEST PUSH0 DUP1 REVERT JUMPDEST PUSH0 DUP1 REVERT JUMPDEST PUSH32 0x4E487B7100000000000000000000000000000000000000000000000000000000 PUSH0 MSTORE PUSH1 0x41 PUSH1 0x4 MSTORE PUSH1 0x24 PUSH0 REVERT JUMPDEST PUSH2 0xB01 DUP3 PUSH2 0x9DB JUMP JUMPDEST DUP2 ADD DUP2 DUP2 LT PUSH8 0xFFFFFFFFFFFFFFFF DUP3 GT OR ISZERO PUSH2 0xB20 JUMPI PUSH2 0xB1F PUSH2 0xACB JUMP JUMPDEST JUMPDEST DUP1 PUSH1 0x40 MSTORE POP POP POP JUMP JUMPDEST PUSH0 PUSH2 0xB32 PUSH2 0x864 JUMP JUMPDEST SWAP1 POP PUSH2 0xB3E DUP3 DUP3 PUSH2 0xAF8 JUMP JUMPDEST SWAP2 SWAP1 POP JUMP JUMPDEST PUSH0 PUSH8 0xFFFFFFFFFFFFFFFF DUP3 GT ISZERO PUSH2 0xB5D JUMPI PUSH2 0xB5C PUSH2 0xACB JUMP JUMPDEST JUMPDEST PUSH2 0xB66 DUP3 PUSH2 0x9DB JUMP JUMPDEST SWAP1 POP PUSH1 0x20 DUP2 ADD SWAP1 POP SWAP2 SWAP1 POP JUMP JUMPDEST DUP3 DUP2 DUP4 CALLDATACOPY PUSH0 DUP4 DUP4 ADD MSTORE POP POP POP JUMP JUMPDEST PUSH0 PUSH2 0xB93 PUSH2 0xB8E DUP5 PUSH2 0xB43 JUMP JUMPDEST PUSH2 0xB29 JUMP JUMPDEST SWAP1 POP DUP3 DUP2 MSTORE PUSH1 0x20 DUP2 ADD DUP5 DUP5 DUP5 ADD GT ISZERO PUSH2 0xBAF JUMPI PUSH2 0xBAE PUSH2 0xAC7 JUMP JUMPDEST JUMPDEST PUSH2 0xBBA DUP5 DUP3 DUP6 PUSH2 0xB73 JUMP JUMPDEST POP SWAP4 SWAP3 POP POP POP JUMP JUMPDEST PUSH0 DUP3 PUSH1 0x1F DUP4 ADD SLT PUSH2 0xBD6 JUMPI PUSH2 0xBD5 PUSH2 0xAC3 JUMP JUMPDEST JUMPDEST DUP2 CALLDATALOAD PUSH2 0xBE6 DUP5 DUP3 PUSH1 0x20 DUP7 ADD PUSH2 0xB81 JUMP JUMPDEST SWAP2 POP POP SWAP3 SWAP2 POP POP JUMP JUMPDEST PUSH2 0xBF8 DUP2 PUSH2 0xA32 JUMP JUMPDEST DUP2 EQ PUSH2 0xC02 JUMPI PUSH0 DUP1 REVERT JUMPDEST POP JUMP JUMPDEST PUSH0 DUP2 CALLDATALOAD SWAP1 POP PUSH2 0xC13 DUP2 PUSH2 0xBEF JUMP JUMPDEST SWAP3 SWAP2 POP POP JUMP JUMPDEST PUSH0 DUP1 PUSH0 PUSH1 0x60 DUP5 DUP7 SUB SLT ISZERO PUSH2 0xC30 JUMPI PUSH2 0xC2F PUSH2 0x86D JUMP JUMPDEST JUMPDEST PUSH0 DUP5 ADD CALLDATALOAD PUSH8 0xFFFFFFFFFFFFFFFF DUP2 GT ISZERO PUSH2 0xC4D JUMPI PUSH2 0xC4C PUSH2 0x871 JUMP JUMPDEST JUMPDEST PUSH2 0xC59 DUP7 DUP3 DUP8 ADD PUSH2 0xBC2 JUMP JUMPDEST SWAP4 POP POP PUSH1 0x20 PUSH2 0xC6A DUP7 DUP3 DUP8 ADD PUSH2 0x894 JUMP JUMPDEST SWAP3 POP POP PUSH1 0x40 PUSH2 0xC7B DUP7 DUP3 DUP8 ADD PUSH2 0xC05 JUMP JUMPDEST SWAP2 POP POP SWAP3 POP SWAP3 POP SWAP3 JUMP JUMPDEST PUSH0 PUSH1 0x20 DUP3 ADD SWAP1 POP DUP2 DUP2 SUB PUSH0 DUP4 ADD MSTORE PUSH2 0xC9D DUP2 DUP5 PUSH2 0x9EB JUMP JUMPDEST SWAP1 POP SWAP3 SWAP2 POP POP JUMP JUMPDEST PUSH32 0x4E487B7100000000000000000000000000000000000000000000000000000000 PUSH0 MSTORE PUSH1 0x32 PUSH1 0x4 MSTORE PUSH1 0x24 PUSH0 REVERT JUMPDEST PUSH32 0x4E487B7100000000000000000000000000000000000000000000000000000000 PUSH0 MSTORE PUSH1 0x12 PUSH1 0x4 MSTORE PUSH1 0x24 PUSH0 REVERT JUMPDEST PUSH32 0x4E487B7100000000000000000000000000000000000000000000000000000000 PUSH0 MSTORE PUSH1 0x11 PUSH1 0x4 MSTORE PUSH1 0x24 PUSH0 REVERT JUMPDEST PUSH0 PUSH2 0xD36 DUP3 PUSH2 0x875 JUMP JUMPDEST SWAP2 POP PUSH2 0xD41 DUP4 PUSH2 0x875 JUMP JUMPDEST SWAP3 POP DUP3 PUSH2 0xD51 JUMPI PUSH2 0xD50 PUSH2 0xCD2 JUMP JUMPDEST JUMPDEST DUP3 DUP3 DIV SWAP1 POP SWAP3 SWAP2 POP POP JUMP JUMPDEST PUSH32 0x4E487B7100000000000000000000000000000000000000000000000000000000 PUSH0 MSTORE PUSH1 0x22 PUSH1 0x4 MSTORE PUSH1 0x24 PUSH0 REVERT JUMPDEST PUSH0 PUSH1 0x2 DUP3 DIV SWAP1 POP PUSH1 0x1 DUP3 AND DUP1 PUSH2 0xDA0 JUMPI PUSH1 0x7F DUP3 AND SWAP2 POP JUMPDEST PUSH1 0x20 DUP3 LT DUP2 SUB PUSH2 0xDB3 JUMPI PUSH2 0xDB2 PUSH2 0xD5C JUMP JUMPDEST JUMPDEST POP SWAP2 SWAP1 POP JUMP JUMPDEST PUSH0 PUSH2 0xDC3 DUP3 PUSH2 0x875 JUMP JUMPDEST SWAP2 POP PUSH2 0xDCE DUP4 PUSH2 0x875 JUMP JUMPDEST SWAP3 POP DUP3 DUP3 SUB SWAP1 POP DUP2 DUP2 GT ISZERO PUSH2 0xDE6 JUMPI PUSH2 0xDE5 PUSH2 0xCFF JUMP JUMPDEST JUMPDEST SWAP3 SWAP2 POP POP JUMP JUMPDEST PUSH0 DUP2 SWAP1 POP DUP2 PUSH0 MSTORE PUSH1 0x20 PUSH0 KECCAK256 SWAP1 POP SWAP2 SWAP1 POP JUMP JUMPDEST PUSH0 PUSH1 0x20 PUSH1 0x1F DUP4 ADD DIV SWAP1 POP SWAP2 SWAP1 POP JUMP JUMPDEST PUSH0 DUP3 DUP3 SHL SWAP1 POP SWAP3 SWAP2 POP POP JUMP JUMPDEST PUSH0 PUSH1 0x8 DUP4 MUL PUSH2 0xE48 PUSH32 0xFFFFFFFFFFFFFFFFFFFFFFFFFFFFFFFFFFFFFFFFFFFFFFFFFFFFFFFFFFFFFFFF DUP3 PUSH2 0xE0D JUMP JUMPDEST PUSH2 0xE52 DUP7 DUP4 PUSH2 0xE0D JUMP JUMPDEST SWAP6 POP DUP1 NOT DUP5 AND SWAP4 POP DUP1 DUP7 AND DUP5 OR SWAP3 POP POP POP SWAP4 SWAP3 POP POP POP JUMP JUMPDEST PUSH0 DUP2 SWAP1 POP SWAP2 SWAP1 POP JUMP JUMPDEST PUSH0 PUSH2 0xE8D PUSH2 0xE88 PUSH2 0xE83 DUP5 PUSH2 0x875 JUMP JUMPDEST PUSH2 0xE6A JUMP JUMPDEST PUSH2 0x875 JUMP JUMPDEST SWAP1 POP SWAP2 SWAP1 POP JUMP JUMPDEST PUSH0 DUP2 SWAP1 POP SWAP2 SWAP1 POP JUMP JUMPDEST PUSH2 0xEA6 DUP4 PUSH2 0xE73 JUMP JUMPDEST PUSH2 0xEBA PUSH2 0xEB2 DUP3 PUSH2 0xE94 JUMP JUMPDEST DUP5 DUP5 SLOAD PUSH2 0xE19 JUMP JUMPDEST DUP3 SSTORE POP POP POP POP JUMP JUMPDEST PUSH0 SWAP1 JUMP JUMPDEST PUSH2 0xECE PUSH2 0xEC2 JUMP JUMPDEST PUSH2 0xED9 DUP2 DUP5 DUP5 PUSH2 0xE9D JUMP JUMPDEST POP POP POP JUMP JUMPDEST JUMPDEST DUP2 DUP2 LT ISZERO PUSH2 0xEFC JUMPI PUSH2 0xEF1 PUSH0 DUP3 PUSH2 0xEC6 JUMP JUMPDEST PUSH1 0x1 DUP2 ADD SWAP1 POP PUSH2 0xEDF JUMP JUMPDEST POP POP JUMP JUMPDEST PUSH1 0x1F DUP3 GT ISZERO PUSH2 0xF41 JUMPI PUSH2 0xF12 DUP2 PUSH2 0xDEC JUMP JUMPDEST PUSH2 0xF1B DUP5 PUSH2 0xDFE JUMP JUMPDEST DUP2 ADD PUSH1 0x20 DUP6 LT ISZERO PUSH2 0xF2A JUMPI DUP2 SWAP1 POP JUMPDEST PUSH2 0xF3E PUSH2 0xF36 DUP6 PUSH2 0xDFE JUMP JUMPDEST DUP4 ADD DUP3 PUSH2 0xEDE JUMP JUMPDEST POP POP JUMPDEST POP POP POP JUMP JUMPDEST PUSH0 DUP3 DUP3 SHR SWAP1 POP SWAP3 SWAP2 POP POP JUMP JUMPDEST PUSH0 PUSH2 0xF61 PUSH0 NOT DUP5 PUSH1 0x8 MUL PUSH2 0xF46 JUMP JUMPDEST NOT DUP1 DUP4 AND SWAP2 POP POP SWAP3 SWAP2 POP POP JUMP JUMPDEST PUSH0 PUSH2 0xF79 DUP4 DUP4 PUSH2 0xF52 JUMP JUMPDEST SWAP2 POP DUP3 PUSH1 0x2 MUL DUP3 OR SWAP1 POP SWAP3 SWAP2 POP POP JUMP JUMPDEST PUSH2 0xF92 DUP3 PUSH2 0x9B3 JUMP JUMPDEST PUSH8 0xFFFFFFFFFFFFFFFF DUP2 GT ISZERO PUSH2 0xFAB JUMPI PUSH2 0xFAA PUSH2 0xACB JUMP JUMPDEST JUMPDEST PUSH2 0xFB5 DUP3 SLOAD PUSH2 0xD89 JUMP JUMPDEST PUSH2 0xFC0 DUP3 DUP3 DUP6 PUSH2 0xF00 JUMP JUMPDEST PUSH0 PUSH1 0x20 SWAP1 POP PUSH1 0x1F DUP4 GT PUSH1 0x1 DUP2 EQ PUSH2 0xFF1 JUMPI PUSH0 DUP5 ISZERO PUSH2 0xFDF JUMPI DUP3 DUP8 ADD MLOAD SWAP1 POP JUMPDEST PUSH2 0xFE9 DUP6 DUP3 PUSH2 0xF6E JUMP JUMPDEST DUP7 SSTORE POP PUSH2 0x1050 JUMP JUMPDEST PUSH1 0x1F NOT DUP5 AND PUSH2 0xFFF DUP7 PUSH2 0xDEC JUMP JUMPDEST PUSH0 JUMPDEST DUP3 DUP2 LT ISZERO PUSH2 0x1026 JUMPI DUP5 DUP10 ADD MLOAD DUP3 SSTORE PUSH1 0x1 DUP3 ADD SWAP2 POP PUSH1 0x20 DUP6 ADD SWAP5 POP PUSH1 0x20 DUP2 ADD SWAP1 POP PUSH2 0x1001 JUMP JUMPDEST DUP7 DUP4 LT ISZERO PUSH2 0x1043 JUMPI DUP5 DUP10 ADD MLOAD PUSH2 0x103F PUSH1 0x1F DUP10 AND DUP3 PUSH2 0xF52 JUMP JUMPDEST DUP4 SSTORE POP JUMPDEST PUSH1 0x1 PUSH1 0x2 DUP9 MUL ADD DUP9 SSTORE POP POP POP JUMPDEST POP POP POP POP POP POP JUMP JUMPDEST PUSH0 PUSH2 0x1062 DUP3 PUSH2 0x875 JUMP JUMPDEST SWAP2 POP PUSH32 0xFFFFFFFFFFFFFFFFFFFFFFFFFFFFFFFFFFFFFFFFFFFFFFFFFFFFFFFFFFFFFFFF DUP3 SUB PUSH2 0x1094 JUMPI PUSH2 0x1093 PUSH2 0xCFF JUMP JUMPDEST JUMPDEST PUSH1 0x1 DUP3 ADD SWAP1 POP SWAP2 SWAP1 POP JUMP INVALID LOG2 PUSH5 0x6970667358 0x22 SLT KECCAK256 TSTORE 0xB6 REVERT 0x1F 0x26 SGT 0xFB MSIZE 0xB0 PUSH25 0x2A938D52200D3D82FCA3F9F6F0C03C310B5C6B5FBFA464736F PUSH13 0x634300081A0033000000000000 "},"gasEstimates":{"creation":{"codeDepositCost":"861800","executionCost":"infinite","totalCost":"infinite"},"external":{"approveRequest(uint256)":"infinite","approvers(address)":"2856","approversCount()":"2514","contribute()":"51014","createRequest(string,uint256,address)":"infinite","finalizeRequest(uint256)":"infinite","getRequest(uint256)":"infinite","manager()":"2553","minimumContribution()":"2447","requests(uint256)":"infinite"}},"methodIdentifiers":{"approveRequest(uint256)":"d7d1bbdb","approvers(address)":"0a144391","approversCount()":"82fde093","contribute()":"d7bb99ba","createRequest(string,uint256,address)":"8a9cfd55","finalizeRequest(uint256)":"03441006","getRequest(uint256)":"c58343ef","manager()":"481c6a75","minimumContribution()":"937e09b1","requests(uint256)":"81d12c58"}},"storageLayout":{"storage":[{"astId":59,"contract":"Campaign.sol:Campaign","label":"requests","offset":0,"slot":"0","type":"t_array(t_struct(Request)55_storage)dyn_storage"},{"astId":61,"contract":"Campaign.sol:Campaign","label":"manager","offset":0,"slot":"1","type":"t_address"},{"astId":63,"contract":"Campaign.sol:Campaign","label":"minimumContribution","offset":0,"slot":"2","type":"t_uint256"},{"astId":67,"contract":"Campaign.sol:Campaign","label":"approvers","offset":0,"slot":"3","type":"t_mapping(t_address,t_bool)"},{"astId":69,"contract":"Campaign.sol:Campaign","label":"approversCount","offset":0,"slot":"4","type":"t_uint256"}],"types":{"t_address":{"encoding":"inplace","label":"address","numberOfBytes":"20"},"t_address_payable":{"encoding":"inplace","label":"address payable","numberOfBytes":"20"},"t_array(t_struct(Request)55_storage)dyn_storage":{"base":"t_struct(Request)55_storage","encoding":"dynamic_array","label":"struct Campaign.Request[]","numberOfBytes":"32"},"t_bool":{"encoding":"inplace","label":"bool","numberOfBytes":"1"},"t_mapping(t_address,t_bool)":{"encoding":"mapping","key":"t_address","label":"mapping(address => bool)","numberOfBytes":"32","value":"t_bool"},"t_string_storage":{"encoding":"bytes","label":"string","numberOfBytes":"32"},"t_struct(Request)55_storage":{"encoding":"inplace","label":"struct Campaign.Request","members":[{"astId":42,"contract":"Campaign.sol:Campaign","label":"description","offset":0,"slot":"0","type":"t_string_storage"},{"astId":44,"contract":"Campaign.sol:Campaign","label":"value","offset":0,"slot":"1","type":"t_uint256"},{"astId":46,"contract":"Campaign.sol:Campaign","label":"recipient","offset":0,"slot":"2","type":"t_address_payable"},{"astId":48,"contract":"Campaign.sol:Campaign","label":"complete","offset":20,"slot":"2","type":"t_bool"},{"astId":50,"contract":"Campaign.sol:Campaign","label":"approvalCount","offset":0,"slot":"3","type":"t_uint256"},{"astId":54,"contract":"Campaign.sol:Campaign","label":"approvals","offset":0,"slot":"4","type":"t_mapping(t_address,t_bool)"}],"numberOfBytes":"160"},"t_uint256":{"encoding":"inplace","label":"uint256","numberOfBytes":"32"}}},"userdoc":{"kind":"user","methods":{},"version":1}}